:1000000018C300000C94BF4D0C94F04D0C94214E7D
:100010000C94524E0C94834E0C94B44E0C94E54EBA
:100020000C94164F0C94954B0C94954B0C94954B4B
:1000300031C300000C94BA332DC300002BC3000061
:1000400029C300000C94A54525C3000023C300006C
:1000500021C300001FC300001DC300000C94474FC4
:1000600019C300000C94DC530C94125413C3000009
:1000700011C300000FC300000DC300000BC300003C
:100080000C94D24507C3000005C3000003C3000061
:1000900001C30000FFC20000FDC200000C947649BD
:1000A000F9C20000F7C200000C94FF45F3C2000043
:1000B000F1C20000EFC20000EDC200000C942C461B
:1000C000E9C20000E7C20000E5C200000C948754BA
:1000D0000C94BD54DFC200000C9432550C9468554A
:1000E000D9C20000161752157F1595159515AC1538
:1000F00005179515FC17FC17FC17FC17FC17FC17C8
:10010000FC170916C9152716FC17FC17FC175616FD
:100110009E17A416C416E4168416FC17FC17FC17C9
:1001200024172B17FC17FC17FC17FC174D173A1751
:10013000FC17FC17FC17FC17FC17FC17FC17FC1727
:10014000FC17FC17FC17FC1785178E17FC17FC17FC
:10015000FC17FC17FC17FC17FC17FC17F617B41755
:10016000994D634D6B4D774D844DA54DB24D9B50D0
:10017000A050A550AF50B9503251C350CB50D350BE
:10018000DD50E750F15000510A51325114511E51C7
:1001900028515451575146514A5150518E515B513B
:1001A0005F51655169516D51735177517B518E513A
:1001B000815185518951084AD73B3BCE016E84BCA1
:1001C000BFFDC12F3D6C74319ABD56833DDA3D00B1
:1001D000C77F11BED9E4BB4C3E916BAAAABE0000FA
:1001E00000803F08000000BE922449123EABAAAA3C
:1001F0002ABECDCCCC4C3E00000080BEABAAAAAA41
:100200003E00000000BF000000803F000000000032
:10021000084178D3BB4387D1133D190E3CC3BD427F
:1002200082AD2B3E68EC8276BED98FE1A93E4C8030
:10023000EFFFBE01C4FF7F3F0000000000076342E4
:1002400036B79BD8A71A39685618AEBAAB558C1D6D
:100250003CB7CC5763BD6DEDFD753EF6177231BFEF
:10026000000000803F003F065B4F666D7D077F6F9B
:10027000777C395E7971BF86DBCFE6EDFD87FFEFD6
:10028000F7FCB9DEF9F100407C447C007C005C5452
:100290007454547C70107C74545C7C545C40407C7E
:1002A0007C547C74547C000400202020000000203A
:1002B00000000000000030007C82827C003100429F
:1002C000FE0200003200468A92620033004492929D
:1002D0006C0034001C64FE04003500F292928C0025
:1002E00036007C92924C003700C08E90E0003800BF
:1002F0006C92926C0039006492927C006100042A36
:100300002A1E006200FE12120C0063000C12121270
:100310000064000C1212FE0065001C2A2A180066F8
:1003200000103E50500067000815151E006800FEC2
:10033000101E00006900002E0000006A0002012E5D
:1003400000006B00FE081412006C0000FE020000AA
:100350006D001E100E100E6E001E10100E006F00AD
:100360000C12120C0070001F12120C0071000C1203
:10037000121F0072001E08101000730012292512AF
:10038000007400103E12000075001C02021E007670
:100390001804020418007718061C061800780012CA
:1003A0000C0C120079001805051E007A0012161AAE
:1003B000120041007E88887E004200FE92926C000E
:1003C00043007C828244004400FE82827C0045001F
:1003D000FE929282004600FE9090800047007C8250
:1003E000925C004800FE1010FE00490082FE820070
:1003F000004A000C0202FC004B00FE1028C6004C14
:1004000000FE020202004D00FE403040FE4E00FEA3
:10041000403008FE4F007C8282827C5000FE90902B
:10042000600051007C828A847A5200FE98946200B7
:1004300053006492924C00540080FE80800055006E
:10044000FC0202FC005600F00C020CF05700FE0407
:100450003804FE5800C63838C60059C0201E20C0D7
:10046000005A00869AB2C2002C00010E0C00002E29
:10047000000006060000257254781E2A4E21000056
:100480007A0000003F00204A3000002D00101010BC
:1004900010002B08083E0808002F00020C30400016
:1004A0002A2214081422003A00001400000022003E
:1004B000C000C000002328FE28FE28002800007C81
:1004C000820000290000827C00003B000224000022
:1004D000007E0040804080003B0002240000003D80
:1004E0000028282828007C0000FE0000003E008232
:1004F000442810003C001028448200400000000006
:10050000000000000A0B02090C0D0E08070304018D
:1005100000000000000000000000000000000000DB
:1005200000000000000000000000000000001211A8
:1005300010000000000000000000000000000000AB
:100540000000000000000000010210202008081038
:100550002040102040800201020108040201010233
:10056000040810204080804020100804020180040C
:100570000201804020100804020108040201010267
:100580000408102040800102040810204080050566
:100590000505070508080808020202020A0A0808F9
:1005A0000404040401010101010101010303030327
:1005B00003030303040707070C0C0C0C0C0C0C0CB6
:1005C0000202020206060606060606060B0B0B0BC7
:1005D0000B0B0B0B000020002300260029002C0031
:1005E0002F00320000010000030106010901000094
:1005F0002200250028002B002E00310034000201CB
:100600000000050108010B01000021002400270063
:100610002A002D0030003300010100000401070111
:100620000A010314812395484454EF549A557814D1
:10063000852311241FBECFEFD1E2DEBFCDBF00E086
:100640000CBF13E0A0E0B2E0E0EAFEEB00E00BBF7D
:1006500002C007900D92A23CB107D9F72EE0A2ECA0
:10066000B3E001C01D92AC3AB207E1F716E0CEE26A
:10067000D6E000E006C022970109FE010BBF0E94F0
:10068000875CC232D10780E00807A9F70E94DE55D7
:100690000C943F5FB5CCCF92DF92EF92FF920F9315
:1006A0001F93E82FF92F05C00150110921093109C5
:1006B00061F1908196239417B9F305C00150110997
:1006C0002109310911F1908196239413F7CFC12CA0
:1006D000D12CE12CF12C0AC08FEFC81AD80AE80AF5
:1006E000F80A0C151D052E053F0579F0808186233B
:1006F000841791F36C2D7D2D8E2D9F2D1F910F91C1
:10070000FF90EF90DF90CF90089560E070E080E080
:1007100090E01F910F91FF90EF90DF90CF900895A0
:1007200080ED96E00E948E230E94FD51892B21F4DA
:1007300080ED96E00C94A72380ED96E00C9499232D
:1007400080E596E00E948E230E94FD51892B21F4C2
:1007500080E596E00C94A72380E596E00C9499231D
:1007600080ED95E00E948E230E94FD51892B21F49B
:1007700080ED95E00C94A72380ED95E00C949923EF
:1007800080E595E00E948E230E94FD51892B21F483
:1007900080E595E00C94A72380E595E00C949923DF
:1007A0000C94315F0C94295FCF92DF92EF92FF920D
:1007B0000F931F93CF93DF931F921F92CDB7DEB796
:1007C0006C018B017C0184E0E80EF11CC601698399
:1007D0007A830E94295FF80181938F01FFEFCF1A7E
:1007E000DF0A69817A81CE14DF0481F7CB010F9093
:1007F0000F90DF91CF911F910F91FF90EF90DF90BD
:10080000CF900895EF92FF920F931F93CF93DF93B2
:100810001F92CDB7DEB77C01FC0100811181C801B8
:1008200069830E94295F6981681719F0C8010E94D5
:10083000315FC7010F90DF91CF911F910F91FF9012
:10084000EF900895BF92CF92DF92EF92FF920F93B5
:100850001F93CF93DF9300D0CDB7DEB78C01B62EB8
:10086000E62EF72E6C0184E0C80ED11CF7016191D1
:100870007F011A830983CE0101967B83C3DF0F5F5B
:100880001F4F7B810C151D0589F78B2D972F0F901E
:100890000F900F90DF91CF911F910F91FF90EF90EC
:1008A000DF90CF90BF900895CF92DF92EF92FF92AA
:1008B0000F931F93CF93DF931F921F92CDB7DEB795
:1008C0006C018C0183E5E82EF12CF80161918F0118
:1008D000FA82E982CE01019695DFFFEFEF1AFF0A57
:1008E00087E5E816F10489F7C6010F900F90DF91B4
:1008F000CF911F910F91FF90EF90DF90CF900895CF
:100900006BEA80E590E04CDF6DEC81E590E048DF3C
:100910006BEA82E590E044DF8AE092E0C5DF68E2BE
:1009200074E087E590E08EDF6CE274E08BE590E0A8
:1009300089DF60E374E08FE590E084DF68E074E0D5
:1009400083E690E07FDF6CE074E087E690E07ADF9A
:1009500060E174E08BE690E075DF68EE73E08FE6AF
:1009600090E070DF6FEE83E790E01ADF6BEA82E9D8
:1009700090E016DF6091240583E990E011DF6FEECF
:1009800084E990E00DCF6BEA80E990E009DF6DEC3F
:1009900081E990E005DF6BEA82E990E001DF609198
:1009A000240583E990E0FCDE6FEE84E990E0F8CE68
:1009B0000F931F93CF93DF9380E590E0F3DE8B3AA4
:1009C00029F481E590E0EEDE8D3C71F099DF80E95D
:1009D00090E0E8DE8B3A09F04BC081E990E0E2DE7E
:1009E0008D3C09F045C049C082E590E0DBDE8B3AE2
:1009F00009F037C083E790E0D5DE8F3E91F50AE03D
:100A000012E0C3E5D0E0CE010E94295FF801819396
:100A10008F012196C735D105B1F768E274E087E50B
:100A200090E0C2DE6CE274E08BE590E0BDDE60E356
:100A300074E08FE590E0B8DE68E074E083E690E073
:100A4000B3DE6CE074E087E690E0AEDE60E174E077
:100A50008BE690E0A9DE68EE73E08FE690E0A4DE1E
:100A6000B6CF6FE972E08BEC9CE00E944C56AFCFA2
:100A7000DF91CF911F910F9186CF82E990E092DEB6
:100A80008B3A81F484E990E08DDE8F3E59F483E95E
:100A900090E00E94295F80932405DF91CF911F9100
:100AA0000F91089565EC72E08BEC9CE0DF91CF91A3
:100AB0001F910F910C944C56609112027091130289
:100AC00080ED96E00E94CF23609112027091130294
:100AD00071956195710980E596E00C94CF23609142
:100AE00012027091130271956195710980ED96E083
:100AF0000E94CF23609112027091130280E596E06C
:100B00000C94CF23609112027091130277FF02C000
:100B10006D5F7F4F75956795759567957195619533
:100B2000710980ED96E00E94CF23609112027091CE
:100B3000130280E596E00C94CF236091120270912D
:100B4000130271956195710980ED96E00E94CF23A3
:100B5000609112027091130277FF02C06D5F7F4FA8
:100B6000759567957595679580E596E00C94CF230C
:100B7000609112027091130280ED96E00E94CF23E3
:100B8000609112027091130277FF02C06F5F7F4F76
:100B90007595679571956195710980E596E00C945E
:100BA000CF23609112027091130277FF02C06F5F32
:100BB0007F4F7595679580ED96E00E94CF236091F9
:100BC00012027091130271956195710980E596E0AA
:100BD0000C94CF23609112027091130280ED96E085
:100BE0000E94CF23609112027091130280E596E07B
:100BF0000C94CF236091120270911302719561954C
:100C0000710980ED96E00E94CF23609112027091ED
:100C1000130271956195710980E596E00C94CF23DC
:100C200060E070E080ED96E00E94CF2360E070E02D
:100C300080E596E00C94CF2320911F05211104C07C
:100C4000FC01E751FB4F0BC0223021F4FC01EB54B7
:100C5000FB4F05C0233029F4FC01EF57FB4F808187
:100C60000895089520911F05211104C0FC01E7514A
:100C7000FB4F0BC0223021F4FC01EB54FB4F05C0AD
:100C8000233021F4FC01EF57FB4F608308958091DE
:100C90001F05811103C08BEC9CE009C0823019F460
:100CA00088E69DE004C0833021F485E09EE00C944A
:100CB00039560895CF93DF93EC01BEDF809344054E
:100CC000CE010196B9DF809345058091440590914E
:100CD0004505DF91CF9108950F931F93CF93DF9335
:100CE000EC01AADF06E415E0F8018083CE0101964D
:100CF000A3DF80934705CE0102969EDF80934805CF
:100D0000CE01039699DF80934905F80160817181D6
:100D100082819381DF91CF911F910F910895CF939D
:100D2000DF93EC0189DF80934605CE01019684DFD5
:100D300080934705CE0102967FDF80934805CE0160
:100D400003967ADF809349056091460570914705C7
:100D50008091480590914905DF91CF910895EF92D8
:100D6000FF920F931F93CF93DF938B01C4EDD3E0DA
:100D7000845D93407C01CE01845D93408017910790
:100D800034F4C7018C0F9D1F57DF8993F4CFF8010E
:100D9000EC52FC4F108284ED93E0DF91CF911F91D4
:100DA0000F91FF90EF900895CF92DF92EF92FF9214
:100DB0000F931F93CF93DF937B0104EC13E0C0E00C
:100DC000D0E0845C93406C01CE15DF0564F4C03143
:100DD000D10549F0C601800F911F2EDFF8018193E4
:100DE0008F012196F1CF84EC93E0DF91CF911F9199
:100DF0000F91FF90EF90DF90CF900895FC01DB0101
:100E000012968C911297828313968C9113978383F9
:100E100014968C911497848315968C9115978583DD
:100E200016968C911697868317968C9117978783C1
:100E300018968C911897808719968C9119978187AD
:100E40001A968C911A9782871B968C911B97838791
:100E50001C964D915D916D917C911F9744875587AC
:100E60006687778750964D915D916D917C915397F0
:100E7000408B518B628B738B54964D915D916D912C
:100E80007C915797448B558B668B778B58964D91F9
:100E90005D916D917C915B97408F518F628F738FC5
:100EA0005C964D915D916D917C915F97448F558FCC
:100EB000668F778F90964D915D916D917C91939710
:100EC00040A351A362A373A394964D915D916D913C
:100ED0007C91979744A355A366A377A398964D91C9
:100EE0005D916D917C919B9740A751A762A773A7D5
:100EF0009C964D915D916D917C919F9744A755A7CC
:100F000066A777A7D0964D915D916D917C91D3970F
:100F100040AB51AB62AB73ABD4964D915D916D918B
:100F20007C91D79744AB55AB66AB77ABD8968D9198
:100F30009C91D99791AF80AFDA968D919C91DB9778
:100F400093AF82AFDC968D919C91DD9795AF84AF86
:100F5000DE968C91DE9786AFDF968D919C91DF01B6
:100F6000DF968D939C93CF010895ECE2F5E020E0AD
:100F700030E0419151914817590791F0452B41F4C8
:100F8000F901EE0FFF1FE45DFA4F9183808308C0E3
:100F90002F5F3F4F2C30310561F780E090E00895DE
:100FA000C90108954F925F926F927F928F929F92A4
:100FB000AF92BF92CF92DF92EF92FF920F931F9367
:100FC000CF93DF93CDB7DEB7C254D1090FB6F894F3
:100FD000DEBF0FBECDBF182F86E090E02DDE782E4D
:100FE000103209F4A4C218F5193009F4E2C150F422
:100FF000153009F455C0183009F45CC1133009F0FC
:101000008BC462C21B3009F4ADC168F1143109F41C
:101010006EC21E3109F080C461E00E948F5187E0EA
:1010200090E00ADE682F872D0E94C85175C41233E4
:1010300009F4B4C250F4183209F449C0193209F461
:10104000CDC1113209F068C47EC21C3309F469C1F4
:1010500020F4143309F4B5C25FC41D3399F01E3374
:1010600009F4F8C259C487E090E024DE5C01672DE2
:1010700089E599E00E94933AB50189E599E00E94DB
:10108000B33A4AC4811148C487E090E0D5DD182FF7
:1010900088E090E00FDE66277727681B790B83C313
:1010A00086E090E007DE66277727681B790B80EDE6
:1010B00096E00E94BB2388E090E0FCDD662777275E
:1010C000681B790B80E596E00E94BB2325C487E06E
:1010D00090E0F0DD8C0189E090E021DE4B015C01C5
:1010E00081E0781237C061E070E0CE0101960E9485
:1010F0008B3FBE016F5F7F4F84E897E07FDEB501D5
:10110000A40184E897E00E942042B801882777FD77
:101110008095982F0E94D5584B015C01AB01BC0112
:1011200084E897E00E94364240E050E46CE976E4BF
:1011300084E897E00E94904260E184E897E00E9492
:101140000E40B501A40184E897E00E94094384E8B9
:1011500097E039C082E0781239C062E070E0CE01D9
:1011600001960E948B3FBE016F5F7F4F85EC97E039
:1011700045DEB501A40185EC97E00E942042B8014C
:10118000882777FD8095982F0E94D5584B015C01E8
:10119000AB01BC0185EC97E00E94364240E050E490
:1011A0006CE976E485EC97E00E94904260E185EC82
:1011B00097E00E940E40B501A40185EC97E00E94E3
:1011C000094385EC97E00E94AF43A6C383E0781201
:1011D00037C063E070E0CE0101960E948B3FBE01F4
:1011E0006F5F7F4F86E098E009DEB501A40186E0DD
:1011F00098E00E942042B801882777FD8095982FBB
:101200000E94D5584B015C01AB01BC0186E098E01F
:101210000E94364240E050E46CE976E486E098E0D3
:101220000E94904260E186E098E00E940E40B50185
:10123000A40186E098E00E94094386E098E0C3CFCD
:1012400084E0781269C364E070E0CE0101960E94E8
:101250008B3FBE016F5F7F4F87E498E0CFDDB50124
:10126000A40187E498E00E942042B801882777FD16
:101270008095982F0E94D5584B015C01AB01BC01B1
:1012800087E498E00E94364240E050E46CE976E45E
:1012900087E498E00E94904260E187E498E00E9431
:1012A0000E40B501A40187E498E00E94094387E459
:1012B00098E089CF87E090E0BFDC982E88E090E04E
:1012C000BBDCA82E89E090E0B7DC182F8AE090E024
:1012D000B3DCB82E8BE090E0AFDC082F89E399E017
:1012E0000E945A3C871111C389E399E00E945D3C3A
:1012F00089110BC3AA2049F06FEF6A0D2B2D412FE6
:1013000089E399E00E94173D07C0202F4B2D612FE4
:1013100089E399E00E949E3D89E399E00E94CA3DDD
:10132000FBC287E090E088DC182F82E17812F4C2DB
:1013300077DC153050F41093240583E990E032DA1D
:10134000811709F4E9C2612F09C01092240583E9CD
:1013500090E028DA882309F4DFC260E083E990E0B6
:101360001FDADAC287E090E067DCE72DF0E0EE0FED
:10137000FF1FE458FD4F813011F4008101C001814D
:1013800088E090E059DCB82E10E0C801EEDDFC01E9
:10139000EE0FFF1FE80FF91FE25AF64F208131814F
:1013A000428129833A834B8384EB8B1508F4B4C2C2
:1013B000E3C08DE299E00E945A3C871529F0672D21
:1013C0008DE299E00E94E61D87E090E085DCAB01AC
:1013D000BC018DE299E00E94071E9EC288EF98E052
:1013E0000E945A3C871529F0672D88EF98E00E94EB
:1013F0003F3587E090E020DC8130F1F41091F1047A
:101400004091F2048AE090E023964FAF239714DCDA
:10141000682F772767FD70958BE090E0A0DC612F47
:10142000772767FD70959C0123964FAD239788EF32
:1014300098E00E945B3770C28230D9F488E090E077
:10144000FBDBB82E89E090E0F7DB482F60E170E02D
:101450008AE090E023964FAF2397A6DC8C0120E131
:1014600023964FAD23976B2D88EF98E00E94663549
:1014700053C28330D9F488E090E0DEDB182F89E096
:1014800090E0DADB682F8AE090E023966FAF239735
:10149000D3DB21E023966FAD2397111101C020E02B
:1014A000482F88EF98E00E94953736C2843009F0C3
:1014B00033C288E090E010DCAB01BC0123E088EF90
:1014C00098E00E94653828C289E299E00E945A3C5F
:1014D000871529F0672D89E299E00E94BA3C87E0E0
:1014E00090E0AADB61E0811114C060E012C089E2E3
:1014F00099E00E945A3C871529F0672D89E299E00E
:101500000E94BA3C87E090E097DB823038F4682F85
:10151000617089E299E00E94823CFEC161E0823004
:1015200009F460E089E299E00E94923CF5C161E033
:101530000E948F5187E090E07FDB682F70E0872D5D
:101540000E947750E9C187E090E076DBB82E84EB0B
:101550008B1508F4E1C1072D10E0C80106DDFC0180
:10156000EE0FFF1FE80FF91FE25AF64F208131817D
:10157000428129833A834B83CE0101960E94C04762
:10158000811105C0B801CE0101960E9424476B2D40
:1015900070E0CE0101960E945C47BEC10E94914F4F
:1015A0000E94D35820E030E04AE754E40E943A58C1
:1015B00060937D0470937E0480937F0490938004F5
:1015C000ABC18111A9C187E090E074DB8C0189E097
:1015D00090E070DBBC01882777FD8095982F0E94F2
:1015E000D55890582AE939E949E15EE30E944D5AFD
:1015F0004B015C01609314047093150480931604EE
:1016000090931704B801882777FD8095982F0E9442
:10161000D5582DEC3CEC4CE45EE30E944D5A6093AF
:10162000F4037093F5038093F6039093F703C501D9
:10163000B4010E94A2589B0177FF04C022273327E0
:10164000261B370B223031050CF466C181E08093F4
:101650004F0462C187E090E0EFDA182F81E0781242
:101660005AC088E090E05BDB4B015C018CE090E0CD
:1016700021DB97FF03C0919581959109113091F479
:10168000BC01882777FD8095982F0E94D5588B0143
:101690009C01C12CD12CE12CF12CB501A40180EDD1
:1016A00096E030C1123071F4BC01882777FD809537
:1016B000982F0E94D5588B019C01C12CD12CE12C74
:1016C000F12C1CC1133091F4BC01882777FD809563
:1016D000982F0E94D5588B019C01C12CD12CE12C54
:1016E000F12CB501A40180ED95E00CC1143009F096
:1016F00013C1BC01882777FD8095982F0E94D5588B
:101700008B019C01C12CD12CE12CF12CB501A40141
:1017100080E595E0F7C082E078123EC088E090E076
:10172000C9DA113061F4BC01882777FD8095982FC4
:101730000E94D558AB01BC0180ED96E02AC0123062
:1017400061F4BC01882777FD8095982F0E94D558B9
:10175000AB01BC0180E596E01CC0133061F4BC0114
:10176000882777FD8095982F0E94D558AB01BC0142
:1017700080ED95E00EC0143009F0CEC0BC01882782
:1017800077FD8095982F0E94D558AB01BC0180E56C
:1017900095E00E94BC25C0C083E0781217C088E0A5
:1017A00090E088DABC01113019F0123021F48ACCB3
:1017B00080ED96E089CC133019F480ED95E084CC6F
:1017C000143009F0A9C080E595E07ECC84E0781261
:1017D00023C0113031F440E050E0BA0180ED96E0D2
:1017E00018C0123031F440E050E0BA0180E596E0D4
:1017F00010C0133031F440E050E0BA0180ED95E0C4
:1018000008C0143009F088C040E050E0BA0180E51B
:1018100095E00E94932380C085E078127DC088E027
:1018200090E07DDA4B015C018CE090E043DA11300E
:10183000F9F4BC01882777FD8095982F0E94D55830
:101840002B013C01C12CD12CE12CF12C8B019C01F2
:10185000B501A40180ED96E00E94FE25442755279E
:10186000BA01481959096A097B099301820148C0E4
:101870001230B9F4BC01882777FD8095982F0E941B
:10188000D5582B013C0144275527BA01481959095D
:101890006A097B09C12CD12CE12CF12C9301820126
:1018A00027C0133051F4BC01882777FD8095982F0D
:1018B0000E94D5582B013C0113C0143069F5BC01BE
:1018C000882777FD8095982F0E94D5582B013C01E1
:1018D000B094A09490948094811C911CA11CB11C84
:1018E000C12CD12CE12CF12C93018201B501A40172
:1018F00080ED96E00E94FE2593018201B501A401CE
:1019000080E596E00E94FE2507C0492D672D89E3FA
:1019100099E00E94663DEECCCE5BDF4F0FB6F894A7
:10192000DEBF0FBECDBFDF91CF911F910F91FF9012
:10193000EF90DF90CF90BF90AF909F908F907F906F
:101940006F905F904F9008954F925F926F927F9249
:101950008F929F92AF92BF92CF92DF92EF92FF92BF
:101960000F931F93CF93DF9383EB98E00E94F12BAB
:1019700090586093750470937604809377049093E5
:10198000780420913404309135044091360450910C
:1019900037040E946F576B017C0120913C04309109
:1019A0003D0440913E0450913F040E9470578B01CA
:1019B000D82FC92F20E030E048EC52EC0E94365876
:1019C00087FD10C020E030E048EC52E4B8018D2FD4
:1019D0009C2F0E94FD5918164CF400E010E0D8EC42
:1019E000C2E404C000E010E0D8ECC2ECC801AD2FA6
:1019F000BC2F80933C0490933D04A0933E04B0938D
:101A00003F048090650490906604A0906704B090B5
:101A100068048092400490924104A0924204B092E3
:101A20004304209128043091290440912A045091C4
:101A30002B04C701B6010E944D5A2B013C01209195
:101A40002C0430912D0440912E0450912F04B801A4
:101A50008D2F9C2F0E944D5A9B01AC01C301B201F6
:101A60000E9470576B017C01209130043091310449
:101A70004091320450913304C501B4010E944D5A83
:101A80009B01AC01C701B6010E9470576B017C013C
:101A900020E030E0A9010E94FD5918164CF0C092D8
:101AA0003804D0923904E0923A04F0923B040FC01B
:101AB00020E030E0A901C701B6010E947057609391
:101AC00038047093390480933A0490933B04409017
:101AD00038045090390460903A0470903B04C090F0
:101AE000F803D090F903E090FA03F090FB03A7010C
:101AF0009601C301B2010E946F574B015C01C30103
:101B0000B2019058A70196010E946F576B017C01AA
:101B100020E030E04FE753ECC501B4010E94365895
:101B200087FD11C020E030E04FE753E4C501B40168
:101B30000E94FD5918166CF4812C912C1FE7A12EE0
:101B400013E4B12E06C0812C912CDFE7AD2ED3EC2F
:101B5000BD2E20E030E04FE753ECC701B6010E94F4
:101B6000365887FD11C020E030E04FE753E4C7014D
:101B7000B6010E94FD5918166CF4C12CD12CCFE788
:101B8000EC2EC3E4FC2E06C0C12CD12CBFE7EB2EFB
:101B9000B3ECFB2EC501B4010E94A25880ED96E083
:101BA0000E94CF23C701B6010E94A25880E596E0AB
:101BB000DF91CF911F910F91FF90EF90DF90CF9029
:101BC000BF90AF909F908F907F906F905F904F905D
:101BD0000C94CF234F925F926F927F928F929F923D
:101BE000AF92BF92CF92DF92EF92FF920F931F932B
:101BF000CF93DF9380E596E00E94B5236B017C01D3
:101C000080ED96E00E94B5239B01AC01C701B601AF
:101C10000E946F5720E030E040E05FE30E944D5AA1
:101C20004B015C01C0901404D0901504E0901604A0
:101C3000F09017042DEC3CEC4CE45FE360916D04F4
:101C400070916E0480916F04909170040E944D5ABF
:101C50002B013C012DEC3CEC4CE45EE3C701B601EA
:101C60000E944D5A9B01AC01C301B2010E94705702
:101C700060936D0470936E0480936F04909370046E
:101C800080914F04882361F1C501B4010E94A258DC
:101C9000695F7F4F6F30710518F520E030E0A901D2
:101CA000C701B6010E94365881111AC010924F0424
:101CB00010926D0410926E0410926F0410927004D2
:101CC0008091690490916A04A0916B04B0916C04B6
:101CD00080931C0490931D04A0931E04B0931F04D2
:101CE00020916D0430916E0440916F045091700406
:101CF000C501B4010E946F576B017C0120911C0447
:101D000030911D0440911E0450911F040E94705791
:101D10008B01D82FC92F80914F0420E030E04AEF8B
:101D200054ECB801882309F471C08D2F9C2F0E94B8
:101D3000365887FD10C020E030E04AEF54E4B80187
:101D40008D2F9C2F0E94FD5918164CF400E010E0D6
:101D5000DAEFC4E404C000E010E0DAEFC4ECC8013C
:101D6000AD2FBC2F80931C0490931D04A0931E04E0
:101D7000B0931F04209108043091090440910A0493
:101D800050910B04C701B6010E944D5A4B015C01F2
:101D900020910C0430910D0440910E0450910F04D9
:101DA000B8018D2F9C2F0E944D5A9B01AC01C5019B
:101DB000B4010E9470578B01D82FC92F20E030E06A
:101DC00040E051EC0E94365887FD10C020E030E022
:101DD00040E051E4B8018D2F9C2F0E94FD59181648
:101DE0004CF400E010E0D0E0C1E404C000E010E0FA
:101DF000D0E0C1ECA8016D2F7C2F409318045093C4
:101E0000190460931A0470931B0498C08D2F9C2FA3
:101E10000E94365887FD10C020E030E04AEF54E4BD
:101E2000B8018D2F9C2F0E94FD5918164CF400E02C
:101E300010E0DAEFC4E404C000E010E0DAEFC4EC34
:101E4000C801AD2FBC2F80931C0490931D04A09358
:101E50001E04B0931F04209108043091090440919E
:101E60000A0450910B04C501B4010E944D5A6B0144
:101E70007C0120910C0430910D0440910E0450918E
:101E80000F04B8018D2F9C2F0E944D5A9B01AC016D
:101E9000C701B6010E9470576B017C0120E030E061
:101EA00040E251EC0E94365887FD0FC020E030E040
:101EB00040E251E4B601C7010E94FD59181654F4DE
:101EC000C12CD12C90E281E407C0C12CD12C90E22E
:101ED00081EC02C09E2D8F2DA601692F782F409393
:101EE00018045093190460931A0470931B042DEC8A
:101EF0003CEC4CE45FE36091690470916A0480916A
:101F00006B0490916C040E944D5A4B015C012DECC6
:101F10003CEC4CE45EE3B8018D2F9C2F0E944D5A9F
:101F20009B01AC01C501B4010E9470576093690424
:101F300070936A0480936B0490936C04209118044E
:101F40003091190440911A0450911B0460910A02C7
:101F500070910B0280910C0290910D020E947057BB
:101F6000609334047093350480933604909337045F
:101F7000DF91CF911F910F91FF90EF90DF90CF9065
:101F8000BF90AF909F908F907F906F905F904F9099
:101F9000089580915004811111C083EB98E00E9454
:101FA000F12B0E94A2589B0177FF04C02227332700
:101FB000261B370B253031050CF477C08091500477
:101FC000882309F47CC083EB98E00E94F12B0E94E7
:101FD000A2589B0177FF04C022273327261B370B0B
:101FE000213231050CF46BC01092C3031092C2036E
:101FF00060E070E080ED96E00E94CF2360E070E04A
:1020000080E596E00E94CF2310921C0410921D04DC
:1020100010921E0410921F0480910A0290910B02EC
:10202000A0910C02B0910D0280933404909335047A
:10203000A0933604B0933704109214041092150440
:1020400010921604109217041092F4031092F503E4
:102050001092F6031092F70340E050E0BA0180EDD1
:1020600096E00E94932340E050E0BA0180E596E0BC
:102070000E94932310921C0410921D0410921E04BF
:1020800010921F041092500410926D0410926E046E
:1020900010926F04109270041092710410927204E6
:1020A000109273041092740408958091C203909169
:1020B000C30301969093C3038093C2037FCF8091A3
:1020C000C2039091C30345970CF44CC01092C30314
:1020D0001092C20310921C0410921D0410921E0450
:1020E00010921F0460E070E080ED96E00E94CF2324
:1020F00060E070E080E596E00E94CF2380910A02C4
:1021000090910B02A0910C02B0910D0280933404C7
:1021100090933504A0933604B093370440E050E028
:10212000BA0180ED96E00E94932340E050E0BA01AE
:1021300080E596E00E9493230E94914F6093610492
:1021400070936204809363049093640460935D04CD
:1021500070935E0480935F049093600481E08093A9
:10216000500408950895CF92DF92EF92FF9211DF0D
:1021700080915004882309F472C00E94914FC0904E
:102180006104D0906204E0906304F09064046C19E0
:102190007D098E099F096B3071058105910558F005
:1021A000D3DB0E94914F609361047093620480932B
:1021B0006304909364040E94914FC0905D04D0909A
:1021C0005E04E0905F04F09060046C197D098E0954
:1021D0009F09653671058105910508F450C0FADC48
:1021E0002DEC3CEC4CE45FE360917104709172045F
:1021F00080917304909174040E944D5A6B017C018C
:102200002DEC3CEC4CE45EE36091F4037091F5033B
:102210008091F6039091F7030E944D5A9B01AC0107
:10222000C701B6010E9470576093710470937204E5
:1022300080937304909374046093F8037093F9038C
:102240008093FA039093FB030E94914F60935D0487
:1022500070935E0480935F049093600410C060E00C
:1022600070E080ED96E00E94CF2360E070E080E5B2
:1022700096E0FF90EF90DF90CF900C94CF23FF90EB
:10228000EF90DF90CF900895CF93DF938091F60881
:102290009091F708892B79F48BE790E00E94EA553A
:1022A000EC0166E00E945233D093F708C093F60821
:1022B000CE010E9467338091F6089091F7080E9442
:1022C00096338091F6089091F7080E94913380939D
:1022D0002105843409F48DC090912405933009F0D0
:1022E000A7C0893109F447C008F5893009F447C00F
:1022F00078F4873009F447C0883009F095C08091A0
:102300000E0290910F02880F991F880F991F66C0C7
:10231000863109F489C0883109F45AC08C3009F03B
:1023200083C080910E0290910F0258C08A3479F1D7
:1023300068F48034E1F0823481F18C3109F074C0AA
:1023400020910E0230910F0245E032C08A3559F1DA
:102350008E35A1F1823509F067C080910E0290910F
:102360000F0263E0880F991F6A95E1F737C0DF918C
:10237000CF910C945C05DF91CF910C946F05DF91A8
:10238000CF910C94D105DF91CF910C94B805209199
:102390000E0230910F0249E00BC020910E023091E5
:1023A0000F0247E005C020910E0230910F0246E077
:1023B000429FC001439F900D112410C020910E0236
:1023C00030910F02C901880F991F820F931F06C019
:1023D00080910E0290910F02880F991F2091100298
:1023E00030911102820F931F909313028093120277
:1023F0001FC00E9410068091F6089091F7080E9475
:102400007633882339F08091F6089091F7080E947E
:102410009633F1CF809124058F5F8093240585301A
:1024200039F41092240504C0DF91CF910C9410066A
:10243000DF91CF9108958AE495E00E94763A28E7EB
:1024400030E03093130220931202813059F028F0CB
:10245000823099F0833001F108950E945C058AE092
:1024600090E015C00E945C0580912605909127059B
:10247000823091054CF101970AC00E945C05809161
:1024800026059091270584319105F4F401969093E7
:1024900027058093260508958091260590912705AC
:1024A0000A9711F40E946F058091260590912705E7
:1024B0000A9714F40E94EA05809126059091270559
:1024C0000B9714F00C94FA050895CF92DF92EF92D7
:1024D000FF920F931F9365E070E080E090E00E9410
:1024E000C04F80ED96E00E94892343E050E060E910
:1024F00073E00E944E4D80E596E00E94892343E000
:1025000050E060EA73E00E944E4D80ED95E00E943D
:10251000892343E050E060EB73E00E944E4D80E57C
:1025200095E00E94892343E050E060EC73E00E9454
:102530004E4D26E040E052EC61E070E08BEC9CE018
:102540000E945E5326E040E052EC61E070E088E6D5
:102550009DE00E945E5326E040E052EC61E070E0B6
:1025600085E09EE00E945E5365E070E080E090E0D0
:102570000E94C04F83EB98E00E94F33165E070E069
:1025800080E090E00E94C04F61E08DE00E948F519A
:1025900081E0809380008AE08093810083E08093D3
:1025A000B00082E08093B10068E070E080ED96E0DA
:1025B0000E945D2668E070E080E596E00E945D265E
:1025C00068E070E080ED95E00E945D2668E070E0D4
:1025D00080E595E00E945D266EE270E080ED96E079
:1025E0000E9461266EE270E080E596E00E9461261E
:1025F0006EE270E080ED95E00E9461266EE270E090
:1026000080E595E00E9461267AE9C72E79E9D72E08
:10261000ED2C7FE3F72E00E010E0980146E656E649
:1026200066EE7FE380ED96E00E943F2600E010E03A
:10263000980146E656E666EE7FE380E596E00E9466
:102640003F2600E010E0980146E656E666EE7FE39E
:1026500080ED95E00E943F2600E010E0980146E6FC
:1026600056E666EE7FE380E595E00E943F26C12CAA
:10267000D12C7601970186014CEE51E568E37EE3AB
:1026800080ED96E00E942526970186014CEE51E5EB
:1026900068E37EE380E596E00E94252697018601A7
:1026A0004CEE51E568E37EE380ED95E00E9425263F
:1026B000970186014CEE51E568E37EE380E595E005
:1026C0000E94252660E070E080ED96E00E94712671
:1026D00060E070E080E596E00E94712660E070E0C6
:1026E00080ED95E00E94712660E070E080E595E065
:1026F0000E947126109252041092510480910A0295
:1027000090910B02A0910C02B0910D0280933404C1
:1027100090933504A0933604B093370480E090E0A2
:10272000A0EAB1E48093280490932904A0932A049A
:10273000B0932B0480E090E0A0E8BFE380932C04EA
:1027400090932D04A0932E04B0932F048DEC9CEC59
:10275000ACE4BEE38093300490933104A093320440
:10276000B09333048FE892ECA5E7BDE380930804AF
:1027700090930904A0930A04B0930B048AE097EDA8
:10278000A3EABBE380930C0490930D04A0930E0482
:10279000B0930F040E94D80461E073E08BEC9CE0DE
:1027A0000E94385668E474E08BEC9CE00E943C5632
:1027B0000E94914F6093610470936204809363045C
:1027C0009093640460935D0470935E0480935F044F
:1027D000909360046093590470935A0480935B044F
:1027E00090935C040E94914F60935504709356043B
:1027F00080935704909358041F910F91FF90EF908E
:10280000DF90CF900895CF93DF93CEE5D9E0CE014E
:102810000E945946239689E0C238D807C1F789E556
:1028200099E00E94863A86E499E00E94B84389E3E1
:1028300099E00E940E3D8DE299E00E945D1C89E2C4
:1028400099E00E94413C88EF98E00E94EC3448E611
:1028500060E083EB98E00E94D62B8CE898E00E9421
:102860007C1E88E898E00E947334C4E8D7E0CE016B
:102870000E94853FCF5BDF4F88E0C838D807B9F7A3
:1028800080E897E00E94761E89E797E00E946F3209
:1028900083E797E00E94AC2B8DE697E00E94C12B66
:1028A00087E697E00E943F4480E597E06FD761E0BC
:1028B00080ED96E00E94212462E080E596E00E948F
:1028C000212463E080ED95E00E94212464E080E50E
:1028D00095E00E94212468E08AE495E00E94753A20
:1028E0006BE073E088E494E0DF91CF910C942A5779
:1028F00088E494E00E94C35689E399E00C94E23D99
:10290000682F80911F05811103C08BEC9CE009C0EA
:10291000823019F488E69DE004C0833021F485E01C
:102920009EE00C94FA5208958FEFEADF85E5E8CF38
:102930008FEFE6DF85E5E4DF0C944706CF93C82FE1
:1029400081E0DEDF8C2FCF91DBCFEF92FF920F93F0
:102950001F93CF93DF937C01FC01C4810C2F158161
:1029600084E0CEDF8C2FCCDFC0E0D0E0C017D107F1
:102970003CF4BE01C7010E946D57C2DF2196F6CF1D
:10298000DF91CF911F910F91FF90EF900895FF92EB
:102990000F931F93CF93DF931F92CDB7DEB78B01B9
:1029A000F82E82E09983ACDFA8016F2D9981792FF1
:1029B0004093460550934705609348057093490539
:1029C000802F9EDF809147059BDF8091480598DF2F
:1029D000809149050F90DF91CF911F910F91FF904A
:1029E0008FCF1F93CF93DF9300D0CDB7DEB7182FD3
:1029F00086E069837A839B8383DF698160934605E0
:102A00007A8170934705109348059B8190934905FF
:102A1000862F76DF8091470573DF8091480570DF50
:102A2000809149050F900F900F90DF91CF911F91EA
:102A300067CF1F93CF93DF931F92CDB7DEB7182FC9
:102A400083E099835DDF1093440599819093450558
:102A5000812F56DF809145050F90DF91CF911F9117
:102A60004FCFCF92DF92EF92FF920F931F93CF93AE
:102A7000DF93CDB7DEB727970FB6F894DEBF0FBE52
:102A8000CDBF082F86E090E00E941C06182F402F33
:102A900050E04E33510508F0AFC2FA01EE58FF4F37
:102AA0000C94625C8091370990913809009751F03D
:102AB0000E945A3C811791F0809137099091380912
:102AC0000E94EB558EE090E00E94EA557C01612F58
:102AD0000E944344F0923809E092370960E971E0BE
:102AE00080913709909138090E94BE446B017C01A6
:102AF0001BDF8091250504DFC701B60193C287E083
:102B000090E00E941C06082F86E499E00E945A3C3F
:102B1000811376C286E499E00E945D3C801370C206
:102B200086E499E00E94D4437DC289E299E00E9444
:102B30005A3C811761F0612F89E299E00E94BA3C0A
:102B400089E299E00E94E03C60E00E948F5189E2B6
:102B500099E00E94AE3C15C087E090E00E941C0600
:102B6000082F88E898E00E945A3C811729F0612FCD
:102B700088E898E00E94BA3C602F88E898E00E94BC
:102B80007534BC01882777FD8095982F0E94D55811
:102B900049C28091F6089091F7080097E1F04F96AE
:102BA0000E945A3C811731F1E090F608F090F70846
:102BB000E114F10481F08FE493E0F70191838083C5
:102BC000C70182599F4F0E94C356C7010E94134CF0
:102BD000C7010E94EB558BE790E00E94EA557C010B
:102BE000612F0E945233F092F708E092F608C70175
:102BF0000E9467338091F6089091F7080E94913304
:102C0000682F809321058FEF860F8E3F08F0F4C167
:102C100018C089E299E00E945A3C811761F0612F47
:102C200089E299E00E94BA3C89E299E00E94E03C86
:102C300060E00E948F5160E089E299E00E94713C5F
:102C4000682F70E080E090E00E94D358EBC189E2E9
:102C500099E00E945A3C811799F0612F89E299E02E
:102C60000E94BA3C89E299E00E94DD3C60E00E944B
:102C70008F5189E299E00E94E03C60E00E948F5110
:102C800060E089E299E00E94603C182F60E089E2F0
:102C900099E00E94713C612F70E0660F771F680F0A
:102CA000711D882777FD8095982F70CF87E090E081
:102CB0000E941C06082F89E299E00E945A3C811369
:102CC000A6C189E299E00E945D3C8013A0C189E21F
:102CD00099E0013061F40E94DD3C62E00E948F5176
:102CE00060E089E299E00E94603C8027A9CF0E94C1
:102CF000E03C62E00E948F5160E089E299E00E942E
:102D0000713C61E068279DCF8CE898E00E945A3CB6
:102D10008117A9F0612F8CE898E00E94BA3C8CE8FA
:102D200098E00E94E03C482F8CE898E04F830E9496
:102D3000DD3C4F81682F8CE898E00E9469228CE886
:102D400098E00E9471226EC187E090E00E941C060C
:102D5000082F89E797E00E945A3C811729F0612FDC
:102D600089E797E00E94BA3C89E797E00E947232B7
:102D7000602F89E797E00E944B33182FD5DD8091B3
:102D80002505BEDD812F36C183E797E00E945A3CBE
:102D90008117A9F0612F83E797E00E94BA3C83E78F
:102DA00097E00E94DD3C482F83E797E04F830E9425
:102DB000E03C4F81682F83E797E00E94AF2B83E7C9
:102DC00097E00E94BF2B1FC08DE697E00E945A3CFF
:102DD0008117A9F0612F8DE697E00E94BA3C8DE63D
:102DE00097E00E94DD3C482F8DE697E04F830E94DC
:102DF000E03C4F81682F8DE697E00E94C42B8DE662
:102E000097E00E94D42B15DE0EC187E090E00E946F
:102E10001C06682F1111F0C083EB98E06F830E94AD
:102E2000EC2B6F81883609F0E7C0F8C068E474E0E5
:102E3000CE0101960E945457CE01019686DDCE0147
:102E400001960E94C356EFC060E00E948F51812F0F
:102E50000E94FD5196CEE82FF0E0EE0FFF1FEC5ED2
:102E6000FD4F108160E0812F0E948F51812F0E94C1
:102E7000525087CE87E090E00E945A067C0160E0C5
:102E8000812F0E948F519701442737FD4095542F81
:102E900061E0812F0E942552A0C087E090E00E944F
:102EA0001C06082F61E0812F0E948F5160E0812F66
:102EB0000E94C85182E090E00E94E54F61E0812FBE
:102EC0000E94C8518AE090E00E94E54F60E0812FA7
:102ED0000E94C85160E0802F0E948F5120E335E7A7
:102EE00040E050E061E0802F0E9425526B017C01A0
:102EF00065E070E080E090E00E94C04F15DD8091B9
:102F00002505FEDCC701B60141CE609179047091C0
:102F10007A0480917B0490917C0484C087E697E0DA
:102F20000E945A3C811729F0612F87E697E00E94A2
:102F3000BA3C87E697E00E9441445CC080E597E098
:102F40000E945A3C811729F0612F80E597E00E948A
:102F5000BA3C10911E0587E090E00E941C0691E0AB
:102F6000181390E0892F46C081115DC087E090E082
:102F70000E941C06182F88E090E00E941C06113069
:102F800059F4813019F480ED96E025C0823009F0C3
:102F90004AC080ED96E027C0123059F4813019F410
:102FA00080E596E018C0823009F03DC080E596E0EB
:102FB0001AC0133051F4813019F480ED95E00BC044
:102FC000823089F580ED95E00EC0143061F58130D6
:102FD00031F480E595E00E94B62503DD24C08230FF
:102FE00011F580E595E00E94B5231CC08237D9F425
:102FF00080912405A3DC17C060E070E0CB0112C013
:10300000402F612F86E499E00E94C24389CD402F72
:10301000612F89E299E00E94CA3C59CE83EB98E087
:103020000E94812EB4DC27960FB6F894DEBF0FBE47
:10303000CDBFDF91CF911F910F91FF90EF90DF9067
:10304000CF900895CF92DF92EF92FF920F931F934C
:10305000CF93DF931092540483E090E00E941C060B
:10306000182F84E090E00E941C06C82F85E090E0B5
:103070000E941C06D82F10932505C230F9F018F4D1
:10308000C13039F043C1C430E1F0C53009F435C175
:103090003DC1813039F0873129F0843219F044DCA8
:1030A000812F2EDC8D2FDDDCDF91CF911F910F91D1
:1030B000FF90EF90DF90CF900C9447060E94D207CC
:1030C0001CC140E050E0BA0180ED96E00E949323DD
:1030D00040E050E0BA0180E596E00E94932340E092
:1030E00050E0BA0180ED95E00E94932340E050E06B
:1030F000BA0180E595E00E949323C12CD12CE12CEC
:10310000F12C00E010E020E231E440E050E0BA01B0
:1031100080ED96E00E94C82500E010E020E231E456
:1031200040E050E0BA0180E596E00E94C82500E04A
:1031300010E020E231E440E050E0BA0180ED95E09B
:103140000E94C82500E010E020E231E440E050E0B9
:10315000BA0180E595E00E94C82560E070E080ED4E
:1031600096E00E94CF2360E070E080E596E00E9448
:10317000CF2360E070E080ED95E00E94CF2360E017
:1031800070E080E595E00E94CF2360E070E080ED84
:1031900096E00E94712660E070E080E596E00E9473
:1031A000712660E070E080ED95E00E94712660E09D
:1031B00070E080E595E00E94712661E089E599E084
:1031C0000E94933A60E070E089E599E00E94B33A8A
:1031D00069E089E599E00E94933A60E070E089E552
:1031E00099E00E94B33A62E089E599E00E94933A3F
:1031F00060E070E089E599E00E94B33A6AE089E511
:1032000099E00E94933A60E070E089E599E00E94BD
:10321000B33A63E089E599E00E94933A60E070E098
:1032200089E599E00E94B33A6BE089E599E00E9454
:10323000933A60E070E089E599E00E94B33A64E077
:1032400089E599E00E94933A60E070E089E599E0B1
:103250000E94B33A6CE089E599E00E94933A60E0FD
:1032600070E089E599E00E94B33A40E050E0BA018D
:1032700084E897E00E94904040E050E0BA0185EC7D
:1032800097E00E94904040E050E0BA0186E098E06C
:103290000E94904040E050E0BA0187E498E00E942C
:1032A000904040E050E0BA0184E897E00E9420425C
:1032B00040E050E0BA0185EC97E00E94204240E0F7
:1032C00050E0BA0186E098E00E94204240E050E0E1
:1032D000BA0187E498E00E94204284E897E00E94C7
:1032E000AA4385EC97E00E94AA4386E098E00E94FA
:1032F000AA4387E498E00E94AA43DF91CF911F91EF
:103300000F91FF90EF90DF90CF9012CBDF91CF9194
:103310001F910F91FF90EF90DF90CF900895109242
:10332000530410921F058BEC9CE00E94515218161A
:10333000190644F481E08093530410921F058BEC2E
:103340009CE01FC088E69DE00E94515218161906A5
:103350004CF481E08093530482E080931F0588E65B
:103360009DE00FC085E09EE00E945152181619069C
:1033700064F481E08093530483E080931F0585E02B
:103380009EE00E946A5280931D050895C8DF8091D7
:103390005304882309F446C060911D0580915404AC
:1033A000653561F481110AC0809120058F3FD9F401
:1033B00081E0809323058093540415C06093200519
:1033C000882389F080912305823019F460932205C7
:1033D00007C0833028F090912205915090932205E8
:1033E00090E00E943206809123058F5F843318F4A9
:1033F0008093230504C010922305109254048091F9
:103400005404882369F080912205811109C08091BC
:103410002305843028F01092540414DE1092230502
:1034200081E008950895CF93DF93809137099091BB
:103430003809892B61F48EE090E00E94EA55EC0196
:1034400067E00E944344D0933809C093370986E966
:1034500090E090931302809312028091370990912B
:103460003809009709F469C060E971E00E94BE4420
:103470000E94A25870932B0560932A059B01255149
:10348000310923313105F8F46CE271E080E090E01D
:103490000E945C5670932905609328056F3B710567
:1034A0005CF080915104811107C081E08093520447
:1034B000DF91CF910C94B80581E080935104DF91A6
:1034C000CF910C94D105615071096331710568F594
:1034D0006CE271E080E090E00E945C5670932905F8
:1034E000609328056F3B710584F00E948205CCE251
:1034F000D1E04CDF811121C062E070E080E090E01B
:103500000E94C04F2197A9F718C00E949D05CCE2E8
:10351000D1E03CDF811111C062E070E080E090E01A
:103520000E94C04F2197A9F708C010925204109230
:103530005104DF91CF910C945C05DF91CF910895F8
:103540000F931F930E94914F0E94D35820E030E0C8
:103550004AE754E40E943A5820917D0430917E0459
:1035600040917F04509180040E946F5760937904CA
:1035700070937A0480937B0490937C0480E597E0B9
:1035800007D180931E050E94914F00915504109120
:1035900056042091570430915804601B710B820B24
:1035A000930B693E73408105910598F00E94914FFD
:1035B0006093550470935604809357049093580475
:1035C00060914E0481E0682760934E048DE00E9474
:1035D000C8518091F6089091F708892B11F00E944C
:1035E000441184E897E00E94B443019719F484E8F9
:1035F00097E01AC085EC97E00E94B443029719F453
:1036000085EC97E011C086E098E00E94B4430397F0
:1036100019F486E098E008C087E498E00E94B4437B
:10362000049721F487E498E00E94894380ED96E0B6
:103630000E94922B80E596E00E94922B80ED95E00F
:103640000E94922B80E595E00E94922B68DE11E0AB
:1036500080915304882309F445C060911D05809131
:103660005404653559F4811109C0809120058F3FBC
:10367000D1F4109323051093540415C060932005D2
:10368000882389F080912305823019F46093220504
:1036900007C0833028F09091220591509093220525
:1036A00090E00E943206809123058F5F843318F4E6
:1036B0008093230504C01092230510925404809136
:1036C0005404882369F080912205811109C08091FA
:1036D0002305843028F010925404B4DC10922305A2
:1036E0001EDEB6CF8CE898E00E945A3C882319F081
:1036F0008CE898E0F6D683EB98E00E94F72B609375
:1037000065047093660480936704909368048091C5
:103710002405811123C00E94914F009159041091FA
:103720005A0420915B0430915C04601B710B820B86
:10373000930B6B3071058105910528F10E94914F23
:103740006093590470935A0480935B0490935C04D3
:1037500083EB98E01F910F910C94AE2E813019F4F9
:103760001F910F9160CE823041F483EB98E00E946C
:10377000AE2E1F910F910C94B310843021F41F9141
:103780000F910C941B121F910F9108950C94413CC2
:10379000CF92DF92EF92FF920F931F93CF93DF931D
:1037A000EC010C891D890E94914FCC80DD80EE8058
:1037B000FF809B01AC012C193D094E095F0969018D
:1037C0007A0139E0C316D104E104F104E8F16C8315
:1037D0007D838E839F83CE010E94AE3C48855985B0
:1037E0006A857B85452B462B472B49F4AC01662720
:1037F00057FD6095762F488B598B6A8B7B8B488958
:1038000059896A897B89841B950B97FF03C0919521
:1038100081959109449764F44C855D856E857F851B
:103820004F5F5F4F6F4F7F4F4C875D876E877F87FE
:10383000488559856A857B854F5F5F4F6F4F7F4F06
:10384000488759876A877B8788859985AA85BB853C
:103850000597A105B105D1F4188619861A861B862D
:103860008C859D85AE85BF850397A105B10540F088
:1038700088899989AA89BB898C019D8B8C8B02C010
:103880000C891D891C861D861E861F86C80164E65C
:1038900070E00E94115C6830710528F4FB01EB5E5A
:1038A000FC4F808101C080E0DF91CF911F910F918B
:1038B000FF90EF90DF90CF9008950C94413C0F93D0
:1038C0001F93CF93DF93EC01062F18E060E088850B
:1038D0000E94C85100FF02C061E001C060E089851C
:1038E0000E94C851069561E088850E94C851115018
:1038F00069F760E088850E94C85161E089850E946F
:10390000C85161E088850E94C85160E089850E94A5
:103910008F5118EC89850E94FD51892B59F0115067
:10392000C9F761E089850E948F5160E089850E9416
:10393000C851EFCF61E08985DF91CF911F910F9141
:103940000C948F51CF93DF93EC0161E088850E9446
:10395000C85161E089850E94C85160E089850E9454
:10396000C85160E08885DF91CF910C94C851CF9306
:10397000DF93EC0160E088850E94C85160E0898592
:103980000E94C85161E088850E94C85161E0898524
:10399000DF91CF910C94C851CF92DF92FF920F9399
:1039A0001F93CF93DF931F92CDB7DEB76C01F62E36
:1039B0007983C8DF60E4C60182DFC601D8DFC601B3
:1039C000C1DFF6016581C6017ADF0F2D7981172FDE
:1039D00084E0F82EF80161918F01C60170DFFA943E
:1039E000C9F7C601C4DFC601ADDFF6016681C601B5
:1039F00066DFC6010F90DF91CF911F910F91FF906D
:103A0000DF90CF90B4CF4F925F926F927F928F9260
:103A10009F92AF92BF92CF92DF92EF92FF920F935D
:103A20001F93CF93DF9300D01F92CDB7DEB76A010B
:103A30007B01890137FD48C0B9016F5F7F4F88273F
:103A400077FD8095982F0E94D5589B01AC0160E0CE
:103A500070E080E291E40E94B05A4B015C019B014E
:103A6000AC01C701B6010E943A580E9410592B01BF
:103A70003C01B801882777FD8095982F0E94D55882
:103A80009B01AC0160E070E080E291E40E94B05ADA
:103A900069837A838B839C83A5019401C301B2015E
:103AA0000E944D5A9B01AC01C701B6010E946F579D
:103AB00029813A814B815C810E943A580E941059B9
:103AC0000E94A258CB011FC088249924821A930A0D
:103AD000A12CB12C20E030E040E251E4C701B60156
:103AE0000E944D5A6B017C018FEFA81AB80AA814E6
:103AF000B90484F3C701B6010E94A258CB016AE061
:103B000070E00E94115C0F900F900F900F90DF916A
:103B1000CF911F910F91FF90EF90DF90CF90BF90CA
:103B2000AF909F908F907F906F905F904F9008958F
:103B3000DB0180E090E22C91223208F09C93EC9122
:103B4000F0E0EA59FD4FE491ED938F5F843099F7EF
:103B50000895EF92FF920F931F93CF93DF9300D0BE
:103B60001F92CDB7DEB78C01DB01FE013196CE018D
:103B700005967F012D912193E817F907D9F7B70131
:103B8000C801D6DFB701C80107DF0F900F900F9073
:103B90000F90DF91CF911F910F91FF90EF900895BB
:103BA000CF93DF9300D01F92CDB7DEB720E22983F9
:103BB0002A832B832C83BE016F5F7F4FCADF0F9058
:103BC0000F900F900F90DF91CF910895CF93DF93D7
:103BD000EC016A83E62FF0E0EE0FFF1FE458FD4F83
:103BE00081818983908198838887998761E00E9489
:103BF0008F5161E089850E948F5180E48C8380EC35
:103C00008D838AE88E83CE01DF91CF91C9CF8F92C9
:103C10009F92AF92BF92CF92DF92EF92FF920F935B
:103C20001F93CF93DF9300D01F92CDB7DEB75C0117
:103C30006A017B0119821A821B821C8220E030E01B
:103C4000A901C701B6010E94365887FF09C0F7FADB
:103C5000F094F7F8F09481E289839924939401C059
:103C6000912C03E010E0812C9801B701A601C50159
:103C7000CADE181619062CF0002319F08820B9F0B6
:103C80000CC001110AC0E1E0F0E0EC0FFD1FE90DEE
:103C9000F11D20E1280F208307C0E1E0F0E0EC0FE8
:103CA000FD1FE90DF11D808393948824839483E0A4
:103CB000891530F0015011090C3F8FEF1807A1F65C
:103CC000BE016F5F7F4FC50144DF0F900F900F90D3
:103CD0000F90DF91CF911F910F91FF90EF90DF90A8
:103CE000CF90BF90AF909F908F9008950E94413CDD
:103CF00088E0809382090895CF93DF93EC0160E020
:103D00000E944A3C8EE18B871C82DF91CF910895FF
:103D1000AF92BF92CF92DF92EF92FF920F931F93D9
:103D2000CF93DF93CDB7DEB76A970FB6F894DEBFB7
:103D30000FBECDBF8C01CE0101967C01C12CD12CD0
:103D40005C01C6010E94295FF70181937F01FFEFAB
:103D5000CF1ADF0A8AE1C816D10499F72D813E8176
:103D60004F81588569817A818B819C810E9470572F
:103D700029853A854B855C850E9470572D853E8547
:103D80004F8558890E94705729893A894B895C89E7
:103D90000E9470572D893E894F89588D0E94705717
:103DA0006B017C01698D70E080E090E00E94D55845
:103DB0009B01AC01C701B6010E94705720E030E0C2
:103DC0004AE253E40E9470570E94A7588A8D6813F4
:103DD0000CC08AE1F501D8011D9601900D928A95DB
:103DE000E1F781E0F801848302C0F80114826A9649
:103DF0000FB6F894DEBF0FBECDBFDF91CF911F91FC
:103E00000F91FF90EF90DF90CF90BF90AF9008950B
:103E1000CF92DF92EF92FF920F931F93CF93DF9396
:103E20008C01EB012C813D814E815F81688179811C
:103E30008A819B810E947057288539854A855B85D8
:103E40000E9470572C853D854E855F850E94705776
:103E5000288939894A895B890E9470572C893D8954
:103E60004E895F890E9470576B017C01688D70E0FC
:103E700080E090E00E94D5589B01AC01C701B601DB
:103E80000E94705720E030E04AE253E40E947057ED
:103E90000E94A758698FE12CF12C6991C7010E94FB
:103EA000315F8FEFE81AF80AEAE1EE16F104A9F79C
:103EB00081E0F8018483DF91CF911F910F91FF90F2
:103EC000EF90DF90CF900895EF92FF921F93CF93E2
:103ED000DF931F92CDB7DEB7162F7A01FC01638501
:103EE0008EEA9BE029830E947948612F8EEA9BE04D
:103EF0000E9426482981813091F4422F50E0B70179
:103F00008EEA9BE00E94FA4761E08EEA9BE00F9008
:103F1000DF91CF911F91FF90EF900C9483488FEF2A
:103F20000F90DF91CF911F91FF90EF900895CF9365
:103F3000DF931F92CDB7DEB7498321E0AE014F5F1B
:103F40005F4FC2DF0F90DF91CF910895EF92FF9204
:103F50000F931F93CF93DF93EC01F62E8A01E22E8D
:103F60006B858EEA9BE00E9479486F2D8EEA9BE07C
:103F70000E942648813001F560E08EEA9BE00E94B5
:103F8000834881112EC081E090E00E94E54F21E03E
:103F90004E2D6B858EEA9BE00E946D48E80100E0A3
:103FA00010E0F12C8EEA9BE00E94CF47892B31F084
:103FB0000E151F0574F002C08FEF13C081E090E072
:103FC0000E94E54F81E00E151F0509F480E0819500
:103FD00008C00F5F1F4F8EEA9BE00E94D74789936E
:103FE000E1CFDF91CF911F910F91FF90EF90089556
:103FF000CF93DF93EC01AC014B5F5F4F23E06AE0AE
:10400000A5DF81110AC08D81883439F48E81843313
:1040100021F481E09F81933309F080E0DF91CF911B
:104020000895CF92DF92EF92FF920F931F93CF9359
:10403000DF93EC016B018A0179013BD0AE014B5F4C
:104040005F4F26E063E0CE0181DF882321F09927CE
:1040500087FD909525C08C85813029F441E062E090
:1040600070E0CE0164DF8D8190E0982F88272E814B
:10407000822BF60191838083898590E0982F882791
:104080002A85822BF801918380838F8190E0982F7D
:1040900088272885822BF7019183808380E090E038
:1040A000DF91CF911F910F91FF90EF90DF90CF9014
:1040B00008952F923F924F925F926F927F928F92CC
:1040C0009F92AF92BF92CF92DF92EF92FF920F93A7
:1040D0001F93CF93DF93CDB7DEB76C970FB6F894ED
:1040E000DEBF0FBECDBF8C0162E00E94603C81113B
:1040F000B5C16AE070E080E090E00E94C04F62E0ED
:10410000C8010E94603C8111A9C1C80171DF8823E8
:1041100009F4A4C10E94914F6B017C01712CBB2456
:10412000B39462E0C8010E94603C811116C00E94F5
:10413000914F6C197D098E099F09693C71058105B4
:10414000910578F3A8950E94914F6B017C017B2427
:10415000672DC8010E94923CE4CF64E670E080E0E5
:1041600090E00E94C04F0E94914F4B015C012FEFE5
:104170003FE7388B2F8740E050E85E874D878FEF11
:104180009FE79C878B87E0E0F0E8FA87E98738872C
:104190002F83212C50E8352E662463940E94914F82
:1041A0006C197D098E099F09693C7105810591058E
:1041B00050F0A8950E94914F6B017C017624672DE9
:1041C000C8010E94923C0E94914F681979098A099E
:1041D0009B096B30710581059105E0F1A8959E0161
:1041E0002F5F3F4FAE014D5F5F4FBE016B5F7F4F53
:1041F000C80117DF8D819E814F81588584179507EF
:104200002CF02816390624F41C0102C098878F83ED
:104210008B819C81EB85FC858E179F0744F0298557
:104220003A85281739072CF49A87898702C09C871A
:104230008B8789819A814F8558898417950744F027
:10424000ED85FE85E817F9072CF49E878D8702C05F
:10425000988B8F8762E0C8010E94603C81119ECFDD
:1042600060E0C8010E94923CB101882777FD8095EB
:10427000982F0E94D5586B017C012F813885B90198
:10428000882777FD8095982F0E94D558698B7A8B67
:104290008B8B9C8B9B01AC01C701B6010E947057B0
:1042A000905820E030E040E05FE30E944D5AF80172
:1042B000658776878787908B29853A85B901882716
:1042C00077FD8095982F0E94D5582B013C014B8596
:1042D0005C85BA01882777FD8095982F0E94D55874
:1042E0006D8B7E8B8F8B988F9B01AC01C301B201CC
:1042F0000E947057905820E030E040E05FE30E9459
:104300004D5AF801618B728B838B948B2D853E8582
:10431000B901882777FD8095982F0E94D5584B01C9
:104320005C014F855889BA01882777FD8095982FC1
:104330000E94D558698F7A8F8B8F9C8F9B01AC011F
:10434000C501B4010E947057905820E030E040E071
:104350005FE30E944D5AF801658B768B878B908FB7
:1043600080E090E0A0E8BFE3818F928FA38FB48FAD
:1043700029893A894B895C89C701B6010E946F5728
:104380006B017C012D893E894F89588DC301B20193
:104390000E946F57A70196010E943A58F801658F55
:1043A000768F878F90A3298D3A8D4B8D5C8DC501BB
:1043B000B4010E946F57A70196010E943A58F80174
:1043C00061A372A383A394A32F813885221A330A91
:1043D00037FE03C031942194310889859A854B8535
:1043E0005C85841B950B97FF03C09195819591097E
:1043F0002D853E85EF85F8892E1B3F0B37FF03C0C7
:10440000319521953109821593052CF0221533053C
:1044100014F081E009C0281639062CF02817390756
:1044200014F082E001C083E0F80185A3B801635F66
:104430007F4FC801EDDC61E0C8010E94923C62E060
:10444000C8010E94603C811102C0A895F8CFA895D0
:1044500064E670E080E090E00E94C04F6C960FB67A
:10446000F894DEBF0FBECDBFDF91CF911F910F91AA
:10447000FF90EF90DF90CF90BF90AF909F908F9084
:104480007F906F905F904F903F902F900895CF93C3
:10449000DF93EC018EEA9BE00E94644861E0CE016C
:1044A0000E94923C40E760E070E0CE0140DD40E2D7
:1044B00061E070E0CE013BDD81E08C8741E062E0AD
:1044C00070E0CE0134DDCE0123DCCE01DF91CF914F
:1044D000F0CD6093840940938309FC01608341839C
:1044E000D6CF2F923F924F925F926F927F928F9290
:1044F0009F92AF92BF92CF92DF92EF92FF920F9373
:104500001F93CF93DF93CDB7DEB762970FB6F894C2
:10451000DEBF0FBECDBF8C01CCDD9E012F5F3F4FB4
:10452000AE014D5F5F4FBE016B5F7F4FC80179DD0C
:10453000882349F0682F772767FD7095872F972F7D
:104540000E94D558C5C0F80184812D803E802B8102
:104550003C8138872F83882309F478C045845684AA
:1045600067847088818C928CA38CB48CB901882765
:1045700077FD8095982F0E94D558F80121893289BE
:10458000438954890E947057F801258D368D478DD7
:1045900050A10E944D5A0E94A2586F837887898744
:1045A0009A8769817A81882777FD8095982F0E9464
:1045B000D558F801258936894789508D0E94705752
:1045C000F80121A132A143A154A10E944D5A0E9499
:1045D000A2586B877C878D879E87F80115A11130C3
:1045E00041F42B853C85B901882777FD8095982F6C
:1045F00032C0B101882777FD8095982F0E94D55849
:10460000A30192010E947057A50194010E944D5A86
:104610000E94A2584B015C01123089F42B853C8525
:10462000B901882777FD8095982F0E94D5589B0166
:10463000AC01B401882777FD8095982F17C01330FF
:1046400019F5882777FD8095982F05C0B101882737
:1046500077FD8095982F0E94D5589B01AC01EF8182
:10466000F885BF01882777FD8095982F2F87388B95
:10467000498B5A8B0E94D5582F85388949895A8988
:104680000E94E3576B017C0120E030E0A901C701E3
:10469000B6010E94365887FF0DC02BED3FE049EC74
:1046A00050E4C701B6010E94705720E030E044E3B7
:1046B00053E406C020E030E044E353E4C701B60110
:1046C0000E944D5A2BED3FE049E450E40E943A58D5
:1046D00062960FB6F894DEBF0FBECDBFDF91CF91CB
:1046E0001F910F91FF90EF90DF90CF90BF90AF9010
:1046F0009F908F907F906F905F904F903F902F9002
:10470000089585E899E00C94453285E899E00C9489
:104710006E328E589F4FFC018081089582599F4FC1
:10472000FC0180810895FC0146A357A360A771A7EF
:104730000895FC0146A157A160A571A54F5F5F4F89
:104740006F4F7F4F46A357A360A771A70895FC0141
:1047500046A157A160A571A5415051096109710990
:1047600046A357A360A771A70895FC0162857385CE
:1047700084859585089522E0FC0120839B016F3F8D
:10478000710519F014F02FEF30E02130FFEF3F07F3
:1047900014F421E03FEFFC01378326830895EF9264
:1047A000FF920F931F93CF93DF93FC016F3F71052F
:1047B00019F014F06FEF70E0EB0161308FEF7807C4
:1047C00014F4C1E0DFEF808591858C179D0791F18E
:1047D000D187C087D583C483DF01A059BF4FCF01E4
:1047E0008F589F4F7C018F0101591F4FD7FF0EC07B
:1047F00060E08C910E94C85161E0F70180810E94C5
:10480000C851662777276C1B7D0B0AC061E08C912D
:104810000E94C85160E0F70180810E94C851BE012A
:10482000F8018081DF91CF911F910F91FF90EF9060
:104830000C947750DF91CF911F910F91FF90EF90E3
:1048400008959F92AF92BF92CF92DF92EF92FF9224
:104850000F931F93CF93DF93EC01DC01AD58BF4F53
:104860006C9385E0982E969EF0011124E25AFD4F3C
:1048700080818E0103591F4FD8018C935E01BEE6E3
:10488000AB0EB11C9181D5019C93119692819C93A2
:104890006E01B0E7CB0ED11C9381D6019C937E01B3
:1048A000B1E7EB0EF11C9481F701908362E00E9466
:1048B0008F5162E0D5018C910E948F5162E0F60128
:1048C00080810E948F5162E0D7018C910E948F51AC
:1048D0001EA21FA218A619A684EF91E099878887C7
:1048E000188289E090E09B838A8348E651E16DE17C
:1048F00072E44E8B5F8B688F798FF80180818231F3
:1049000019F4359690821AC0833111F484E003C003
:10491000843131F483E0FE01EE58FF4F80830EC0F6
:10492000853111F482E0F7CF833011F481E0F3CFC9
:10493000823021F4FE01EE58FF4F108260E070E0FB
:10494000CE012DDF1EA21FA218A619A60E94914F0C
:10495000CA58DF4F688379838A839B83DF91CF9125
:104960001F910F91FF90EF90DF90CF90BF90AF908D
:104970009F9008952F923F924F925F926F927F92F5
:104980008F929F92AF92BF92CF92DF92EF92FF925F
:104990000F931F93CF93DF9300D000D0CDB7DEB736
:1049A0009E838D830E94914F0D811E810A581F4F57
:1049B000F801C080D180E280F3806C197D098E09F6
:1049C0009F09653171058105910508F465C00E9454
:1049D000914F69837A838B839C83ED81FE81C6A08E
:1049E000D7A0E0A4F1A482A193A1A4A1B5A12280A3
:1049F000338046885788608C718CA7019601281BEC
:104A0000390B4A0B5B0BCA01B9010E94D5584B0107
:104A10005C01F8018081918169817A81681B790B41
:104A200080E090E00E94D3589B01AC0160E070E010
:104A30008AE794E40E943A589B01AC01C501B40195
:104A40000E944D5A20E030E040E752E40E944D5A67
:104A50004B015C01B101882777FD8095982F0E945A
:104A6000D558A30192010E944D5A9B01AC01C5018A
:104A7000B4010E943A58ED81FE8162877387848772
:104A80009587C2A2D3A2E4A2F5A20E94914FF80199
:104A9000608371838283938326960FB6F894DEBF7A
:104AA0000FBECDBFDF91CF911F910F91FF90EF907F
:104AB000DF90CF90BF90AF909F908F907F906F903E
:104AC0005F904F903F902F900895AF92BF92CF92FA
:104AD000DF92EF92FF920F931F93CF93DF9300D05B
:104AE0001F92CDB7DEB75C01FC0166A177A180A55E
:104AF00091A50281138126893789408D518D2983A3
:104B00003A834B835C830E94D5586B017C01B801CA
:104B1000882777FD8095982F0E94D55829813A8162
:104B20004B815C810E944D5A9B01AC01C701B601CB
:104B30000E943A5820E030E044EB53E40E944D5A82
:104B40000E94A258F501628F738F848F958F0F900A
:104B50000F900F900F90DF91CF911F910F91FF90C9
:104B6000EF90DF90CF90BF90AF900895FC01628DE1
:104B7000738D848D958D0895FC0181E08083818300
:104B800046875787608B718BE659FF4F10820895D7
:104B9000CF92DF92EF920F931F93FC010687178746
:104BA000208B318BDC01A459BF4FEC9212971C92E1
:104BB00081E080831182468F578F60A371A3549642
:104BC000CD92DC92468D578D60A171A1028D138D1F
:104BD000248D358D401B510B620B730BE559FF4F34
:104BE000141615061606170614F4808301C01082E9
:104BF0001F910F91EF90DF90CF9008958F929F9229
:104C0000AF92BF92CF92DF92EF92FF920F931F93DA
:104C1000FC01828C938CA48CB58C840E951EA61EF0
:104C2000B71E868E978EA0A2B1A2468D578D60A129
:104C300071A1AEDF1F910F91FF90EF90DF90CF90A9
:104C4000BF90AF909F908F900895CF92DF92EF9298
:104C5000FF920F931F93FC0142A753A764A775A768
:104C600006A717A720AB31ABC2AAD3AAE4AAF5AA1C
:104C70001F910F91FF90EF90DF90CF900895CF920A
:104C8000DF92EF92FF920F931F93FC01E65BFF4FC1
:104C9000408351836283738334960083118322831C
:104CA00033833496C082D182E282F3821F910F91C6
:104CB000FF90EF90DF90CF900895FC0173836283A3
:104CC0000895CF93DF93EC01882777FD8095982F87
:104CD0000E94D5586E8B7F8B888F998FDF91CF91F3
:104CE0000895FC01608308952F923F924F925F9246
:104CF0006F927F928F929F92AF92BF92CF92DF92EC
:104D0000EF92FF920F931F93CF93DF9300D01F92E8
:104D1000CDB7DEB71C01DC015E966D917D918D9162
:104D20009C9191975A960D911D912D913C915D9773
:104D3000601B710B820B930B0E94D5586B017C0199
:104D40005101BAE6AB0EB11CF501808181010C580E
:104D50001F4F8111ABC13196808120E030E0A90165
:104D6000882339F0C701B6010E94365887FF32C048
:104D700006C0C701B6010E94FD5918165CF5D101A5
:104D80001A962D913D914D915C911D97F101EE5A2E
:104D9000FF4F60817181828193810E944D5ADC01B5
:104DA000CB01B058F101E65AFF4F80839183A28373
:104DB000B38360817181828193810E94A258F8013E
:104DC0007183608321E0D5012C93F10175836483A5
:104DD000CB01B7C220E030E0A901C701B6010E94B3
:104DE000FD5926013701181624F077FA709477F8E8
:104DF0007094D1011E966D917D918D919C915197EA
:104E000020E030E040EC50E40E944D5A9B01AC01A0
:104E1000C301B2010E94FD5987FFE5C120E030E0E7
:104E2000A901C701B6010E94FD5918165CF420E0E3
:104E300030E040E251E4C701B6010E94FD59181666
:104E40005CF034C120E030E040E251ECC701B60133
:104E50000E94365887FF2AC1F10146845784608832
:104E6000718820E030E040E251E4C701B6010E94C1
:104E70006F574B015C0120E030E040EC50E4C3018F
:104E8000B2010E944D5AA50194010E944D5A20E0A2
:104E900030E0A9010E94FD59181694F4D1011E9624
:104EA0006D917D918D919C91519720E030E040EC87
:104EB00050E40E944D5AA50194010E944D5A10C021
:104EC000F101668577858089918920E030E040ECAA
:104ED00050E40E944D5AA50194010E944D5A9058E9
:104EE0000E94005B20E030E040EC50E40E943A5821
:104EF0002B013C01D1011A968D909D90AD90BC90F4
:104F00001D9720E030E0A901C701B6010E94FD59BC
:104F1000A701960118160CF05058B1016E5A7F4F38
:104F2000DB018D919D910D90BC91A02D89839A8379
:104F3000AB83BC83C701B6010E943A589B01AC0108
:104F4000C301B2010E944D5A9B01AC01C501B401DD
:104F50000E946F579B01AC0169817A818B819C8192
:104F60000E944D5A4B015C0120E030E040EA51ECD8
:104F70000E94365887FD11C020E030E040EA51E43D
:104F8000C501B4010E94FD5918166CF4812C912CB6
:104F900050EAA52E51E4B52E06C0812C912C40EA92
:104FA000A42E41ECB42EF80160817181882777FD31
:104FB0008095982F0E94D558FAE52F0E311CD1010B
:104FC0006D937D938D939C9313976D917D918D91AE
:104FD0009C91A50194010E946F57F1016083718338
:104FE0008283938320E030E0A901C701B6010E94CB
:104FF000FD59D10187FD23C06D917D918D919C91CB
:1050000020E030E048EC51E40E94365887FD12C0A1
:10501000F101608171818281938120E030E04FE76E
:1050200053E40E94FD5918161CF580E090E0AFE7AC
:10503000B3E42DC080E090E0A8ECB1E428C06D910D
:105040007D918D919C9120E030E04FE753EC0E94E0
:10505000365887FD13C0F10160817181828193818F
:1050600020E030E048EC51EC0E94FD5918165CF04D
:10507000F10180819181A281B38109C080E090E03B
:10508000AFE7B3EC04C080E090E0A8ECB1ECF10134
:1050900080839183A283B3836081718182819381B4
:1050A0000E94A258F8017183608399C081E0D50104
:1050B0008C93F101E258FF4F0190F081E02D309781
:1050C00049F0D101A459BF4F6C9170E017968C91B3
:1050D00090E01995F1012285338544855585EE5A76
:1050E000FF4F60817181828193810E944D5A4B01F3
:1050F0005C0120E030E040EA51EC0E94365887FD28
:1051000011C020E030E040EA51E4C501B4010E9442
:10511000FD5918166CF4812C912C30EAA32E31E441
:10512000B32E06C0812C912C20EAA22E21ECB22EA7
:10513000F101E65BFF4F2081318142815381C7013C
:10514000B6010E944D5AFAE52F0E311CD1016D9324
:105150007D938D939C9313976D917D918D919C91EF
:10516000A50194010E946F57F101608371838283CE
:105170009383608171818281938120E030E04FE7E9
:1051800053EC0E94365887FD13C0D1016D917D917B
:105190008D919C9120E030E04FE753E40E94FD594F
:1051A00018165CF0F10180819181A281B38109C060
:1051B00080E090E0AFE7B3EC04C080E090E0AFE7C0
:1051C000B3E4F10180839183A283B3836081718111
:1051D000828193810E94A258D8016D937C93F8013B
:1051E00080819181AEC0D1011A968D919D910D90D3
:1051F000BC91A02D89839A83AB83BC83F101868403
:105200009784A088B18820E030E0A901C701B601E9
:105210000E94FD59181624F0A7019601505802C0AB
:10522000A7019601F10142A453A464A475A4C70187
:10523000B6010E943A589B01AC01C501B4010E941D
:105240004D5A9B01AC0169817A818B819C810E94BE
:105250006F579B01AC01C301B2010E944D5A6B0113
:105260007C0120E030E048EC51EC0E94365887FD8C
:1052700011C020E030E048EC51E4C701B6010E94C3
:10528000FD5918166CF4C12CD12C78ECE72E71E482
:10529000F72E06C0C12CD12C68ECE62E61ECF62E60
:1052A000D8016D917C91882777FD8095982F0E9479
:1052B000D558F10162AF73AF84AF95AF62AD73ADF6
:1052C00084AD95ADA70196010E946F57D101DA9682
:1052D0006D937D938D939C93DD97DA966D917D917F
:1052E0008D919C91DD9720E030E04FE753EC0E94D8
:1052F000365887FD13C0F10162AD73AD84AD95AD35
:1053000020E030E04FE753E40E94FD5918165CF0AE
:10531000F10182AD93ADA4ADB5AD09C080E090E0E0
:10532000AFE7B3EC04C080E090E0AFE7B3E4F10195
:1053300082AF93AFA4AFB5AF62AD73AD84AD95ADA1
:1053400049CF0F900F900F900F90DF91CF911F9149
:105350000F91FF90EF90DF90CF90BF90AF909F9014
:105360008F907F906F905F904F903F902F90089517
:10537000AF92BF92CF92DF92EF92FF920F931F9363
:10538000CF93DF93EC016A857B858C859D852E8587
:105390003F8548895989CAA4DBA4ECA4FDA40E94D6
:1053A0006F579B01AC01C701B6010E944D5A6B01BA
:1053B0007C0120E030E048EC51EC0E94365887FD3B
:1053C00011C020E030E048EC51E4C701B6010E9472
:1053D000FD5918166CF4C12CD12CF8ECEF2EF1E429
:1053E000FF2E06C0C12CD12CE8ECEE2EE1ECFE2EF7
:1053F0008E010C581F4FF80160817181882777FD5D
:105400008095982F0E94D5586AAF7BAF8CAF9DAF27
:105410006AAD7BAD8CAD9DADA70196010E946F5723
:105420006AAF7BAF8CAF9DAF5E01FAE6AF0EB11CE9
:10543000F5018081882329F01AAE1BAE1CAE1DAE8B
:105440001EC06E857F858889998920E030E0A9019A
:105450000E943658811113C020E030E0A901C70135
:10546000B6010E94FD5918168CF520E030E040E7A7
:1054700051E4C701B6010E94365887FD31C06AADBC
:105480007BAD8CAD9DAD20E030E04FE753EC0E944A
:10549000365887FD11C06AAD7BAD8CAD9DAD20E067
:1054A00030E04FE753E40E94FD59181654F08AADDE
:1054B0009BADACADBDAD1CC080E090E0AFE7B3EC00
:1054C00017C080E090E0AFE7B3E412C020E030E026
:1054D00040E751ECC701B6010E94FD5918167CF651
:1054E0001AAE1BAE1CAE1DAE81E0F5018083C7CFA6
:1054F0008AAF9BAFACAFBDAF6AAD7BAD8CAD9DADA0
:105500000E94A258F80171836083CB01DF91CF9193
:105510001F910F91FF90EF90DF90CF90BF90AF90D1
:105520000895CF92DF92EF92FF920F931F93CF9344
:10553000DF93EC010E94914F8E0106581F4FF80136
:10554000C080D180E280F3806C197D098E099F09AB
:105550006932710581059105B8F00E94914FF801FB
:1055600060837183828393838981811103C0CE011B
:10557000BBDB08C08981813019F4CE01F9DE02C09D
:1055800080E090E09D838C83DF91CF911F910F91FC
:10559000FF90EF90DF90CF900895CF92DF92EF923F
:1055A000FF920F931F93CF93DF93EC010E94914FD3
:1055B0008E0106581F4FF801C080D180E280F38031
:1055C0006C197D098E099F09693271058105910564
:1055D00008F49FC00E94914FF80160837183828319
:1055E00093836C817D810E811F81882777FD809553
:1055F000982F0E94D5582DEC3CEC4CE45FE30E94C0
:105600004D5A6B017C01B801882777FD8095982F52
:105610000E94D5582DEC3CEC4CE45EE30E944D5AC0
:105620009B01AC01C701B6010E94705720E030E039
:10563000A9010E94FD596C817D810E811F8187FD2A
:1056400028C0882777FD8095982F0E94D5582DEC8B
:105650003CEC4CE45FE30E944D5A6B017C01B801C5
:10566000882777FD8095982F0E94D5582DEC3CEC2B
:105670004CE45EE30E944D5A9B01AC01C701B601A8
:105680000E94705720E030E040E05FE30E947057D6
:1056900027C0882777FD8095982F0E94D5582DEC3C
:1056A0003CEC4CE45FE30E944D5A6B017C01B80175
:1056B000882777FD8095982F0E94D5582DEC3CECDB
:1056C0004CE45EE30E944D5A9B01AC01C701B60158
:1056D0000E94705720E030E040E05FE30E946F5787
:1056E0000E94A2587D836C838C819D8118161906B7
:1056F0001CF48C819D8105C08C819D819195819543
:1057000091090B9734F48E819F81892B11F41D82AE
:105710001C82DF91CF911F910F91FF90EF90DF904E
:10572000CF900895CF93DF93EC01CFD9CE0122D94A
:105730008881813019F4CE01F4DE05C08881823081
:1057400041F4CE012ADF6C817D81CE01DF91CF91C2
:1057500026C8DF91CF91089560E00C944A3CCF9326
:10576000DF93EC016C834D838C8160E00E948F514C
:105770008D8188838C818983DF91CF9108950C94EA
:10578000A23C60E00C944A3CCF93DF93EC016C8325
:105790004D838C8160E00E948F518D8188838C8144
:1057A0008983DF91CF9108950C94A23C0F931F93AE
:1057B000CF93DF931F92CDB7DEB78C0149830E9450
:1057C0004A3CF801EE5BFF4F498140830F90DF9127
:1057D000CF911F910F9108958E5B9F4FFC018081A7
:1057E0000895FC0162857385848595850895FC0183
:1057F000628D738D848D958D0895EF92FF920F9336
:105800001F93CF93DF93F62E8A01E22EEC01CE5B3D
:10581000DF4F68818EEA9BE00E9479486F2D8EEA07
:105820009BE00E942648813001F560E08EEA9BE013
:105830000E94834881112EC081E090E00E94E54FD4
:1058400021E04E2D68818EEA9BE00E946D48E801C0
:1058500000E010E0F12C8EEA9BE00E94CF47892BFC
:1058600031F00E151F0574F002C08FEF13C081E0F8
:1058700090E00E94E54F81E00E151F0509F480E0DD
:10588000819508C00F5F1F4F8EEA9BE00E94D747AB
:105890008993E1CFDF91CF911F910F91FF90EF900E
:1058A00008952F923F924F925F926F927F928F92C4
:1058B0009F92AF92BF92CF92DF92EF92FF920F939F
:1058C0001F93CF93DF93CDB7DEB72C970FB6F89425
:1058D000DEBF0FBECDBF1C01AC014C5C5F4F2EE0A4
:1058E0006BE38BDF8111F4C1F101A4A8B12C1A2D57
:1058F000002785A9082B13A302A3E6A8F12CFE2CF0
:10590000EE2487A9E82AF5A2E4A280AC912C982C79
:10591000882481AD882A97A286A246805780608419
:10592000718464AD70E0762F662785AD682B88277B
:1059300077FD8095982F0E94D558F10120A531A5BB
:1059400042A553A50E946F57A30192010E943A58A5
:10595000F101668B778B808F918F66AD70E0762F2B
:10596000662787AD682B882777FD8095982F0E9442
:10597000D558F10124A535A546A557A50E946F5716
:10598000A30192010E943A58F101628F738F848FB4
:10599000958FE05CFF4F608170E0762F662731962F
:1059A0008081682B882777FD8095982F0E94D55895
:1059B000F10120A931A942A953A90E946F57A3015F
:1059C00092010E943A58F101668F778F80A391A3CC
:1059D000B701882777FD8095982F0E94D5586B01D5
:1059E0007C01B401882777FD8095982F0E94D558B7
:1059F0009B01AC010E944D5A4B015C01A70196012D
:105A0000C701B6010E944D5AA50194010E9470572A
:105A10000E94005B9B01AC01B801882777FD80954F
:105A2000982F29873A874B875C870E94D5582B018E
:105A30003C0129853A854B855C850E94E35720E02F
:105A400030E044E353E40E944D5A2AED3FE049E43C
:105A500050E40E943A5869837A838B839C83A30124
:105A60009201C301B2010E944D5AA50194010E9406
:105A700070570E94005B9B01AC01C701B6010E94F8
:105A8000E35720E030E044E353E40E944D5A2AED0E
:105A90003FE049E450E40E943A586D837E838F834F
:105AA00098870E94914FC090A40AD090A50AE090D8
:105AB000A60AF090A70A6C197D098E099F090E9419
:105AC000D35820E030E04AE754E40E943A586B0192
:105AD0007C010E94914F6093A40A7093A50A809361
