:100000000C94ED000C9415010C9415010C945D0EEC
:100010000C945D0E0C945D0E0C9415010C94AD14B3
:100020000C9415010C9415010C9415010C94701E80
:100030000C9415010C9415010C9415010C941501E8
:100040000C9473200C9415010C943C240C946E2495
:100050000C9415010C9415010C9415010C941501C8
:100060000C944D0C0C941501C30977089508AB0846
:10007000AB08C408770AAB08770A770A770A770AC9
:10008000770A770A770AD908770AF408770A770A8D
:10009000770A2509520A5F0978099A09770A770AC7
:1000A000770A770AD209DA09770A770A770A770A8C
:1000B000060AEF09770A770A770A770A770A770A32
:1000C000770A770A770A770A770A770A350A400AA1
:1000D00008000000BE922449123EABAAAA2ABECD57
:1000E000CCCC4C3E00000080BEABAAAAAA3E0000C9
:1000F0000000BF000000803F0000000000084178C1
:10010000D3BB4387D1133D190E3CC3BD4282AD2BF7
:100110003E68EC8276BED98FE1A93E4C80EFFFBEEF
:1001200001C4FF7F3F000000000007634236B79B19
:10013000D8A71A39685618AEBAAB558C1D3CB7CC47
:100140005763BD6DEDFD753EF6177231BF000000BF
:10015000803F3F065B4F666D7D077F6F777C395E22
:100160007971BF86DBCFE6EDFD87FFEFF7FCB9DEE7
:10017000F9F100400000000800020100000304073C
:100180000000000000000000010204081020408070
:1001900001020408102001020408102004040404D1
:1001A0000404040402020202020203030303030321
:1001B00000000000230026002900000000002500A8
:1001C00028002B0000000000240027002A00600700
:1001D000200C6E139E24B607721311241FBECFEF9E
:1001E000D8E0DEBFCDBF11E0A0E0B1E0E2E8FBE582
:1001F00002C005900D92A63EB107D9F727E0A6EE02
:10020000B1E001C01D92AE32B207E1F711E0C6EDD8
:10021000D1E004C02297FE010E94CC2ACE3CD10737
:10022000C9F70E9470260C94B42D0C940000CF9254
:10023000DF92EF92FF920F931F93E82FF92F05C0E3
:10024000015011092109310961F190819623941718
:10025000B9F305C0015011092109310911F190814B
:1002600096239413F7CFC12CD12CE12CF12C0AC08A
:100270008FEFC81AD80AE80AF80A0C151D052E05D2
:100280003F0579F080818623841791F36C2D7D2DB5
:100290008E2D9F2D1F910F91FF90EF90DF90CF90AB
:1002A000089560E070E080E090E01F910F91FF9072
:1002B000EF90DF90CF90089569E08DE293E00E9487
:1002C0002C1360910E0170910F0171956195710968
:1002D0008DE293E00E9438136AE08DE293E00E9481
:1002E0002C1360910E0170910F018DE293E00C943C
:1002F000381369E08DE293E00E942C1360910E01A7
:1003000070910F018DE293E00E9438136AE08DE254
:1003100093E00E942C1360910E0170910F01719572
:10032000619571098DE293E00C94381369E08DE2D8
:1003300093E00E942C1360910E0170910F0177FFE2
:1003400002C06F5F7F4F759567958DE293E00E94C5
:1003500038136AE08DE293E00E942C1360910E0145
:1003600070910F017195619571098DE293E00C9484
:10037000381369E08DE293E00E942C1360910E0126
:1003800070910F018DE293E00E9438136AE08DE2D4
:1003900093E00E942C1360910E0170910F0177FF82
:1003A00002C06F5F7F4F7595679571956195710973
:1003B0008DE293E00C94381369E08DE293E00E94A3
:1003C0002C1360910E0170910F018DE293E00E9459
:1003D00038136AE08DE293E00E942C1360910E01C5
:1003E00070910F018DE293E00C94381369E08DE277
:1003F00093E00E942C1360910E0170910F01719592
:10040000619571098DE293E00E9438136AE08DE2F4
:1004100093E00E942C1360910E0170910F01719571
:10042000619571098DE293E00C94381369E08DE2D7
:1004300093E00E942C1360E070E08DE293E00E9454
:1004400038136AE08DE293E00E942C1360E070E0C4
:100450008DE293E00C94381387E896E00C942F25F6
:10046000FC01EF5EFD4F8081809349028181809382
:100470004A028091490290914A020895ABE4B2E0A9
:10048000FC01EF5EFD4F80818C93818180934C0253
:10049000828180934D02838180934E026D917D9184
:1004A0008D919C910895FC01EF5EFD4F80818093BA
:1004B0004B02818180934C02828180934D02838123
:1004C00080934E0260914B0270914C0280914D02DC
:1004D00090914E020895E4EFF1E020E030E0419188
:1004E00051914817590791F0452B41F4F901EE0F4E
:1004F000FF1FEC50FE4F9183808308C02F5F3F4F5A
:100500002830310561F780E090E00895C901089531
:10051000AF92BF92CF92DF92EF92FF920F931F9311
:10052000CF93DF93CDB7DEB7E5970FB6F894DEBF74
:100530000FBECDBFF0901702AF2CB12C84319105C6
:1005400009F491C26CF58830910509F4E6C1FCF418
:100550008330910509F472C2059709F016C3109211
:10056000100186E090E00E9430028C0169E08DE28B
:1005700093E00E942C13B8018DE293E00E9438139F
:1005800088E090E00E9430028C016AE035C08A3039
:10059000910551F10CF439C20B9709F405C2F5C26B
:1005A0008232910509F48FC29CF48032910509F4DE
:1005B0007EC20CF0AAC24E9709F0E7C261E08F2D0F
:1005C0000E941122609118028F2D0E944A22DDC2E2
:1005D0008233910509F4BFC28C33910509F4CDC172
:1005E000889709F0D2C212C01092100187E090E003
:1005F0000E9430028C016F2D8DE293E00E942C133B
:10060000B8018DE293E00E943813BFC287E090E00A
:100610000E9430028C0189E090E00E9453026B013D
:100620007C0181E0A816B10409F0B8C061E0CE01F8
:1006300001960E94261A8B819C81AD81BE81809398
:10064000850290938602A0938702B09388028F81DF
:100650008093890288859985AA85BB8580938A02C3
:1006600090938B02A0938C02B0938D028C859D8514
:10067000AE85BF8580938E0290938F02A0939002E7
:10068000B093910288899989AA89BB898093920243
:1006900090939302A0939402B09395028C899D89C4
:1006A000AE89BF898093960290939702A093980297
:1006B000B0939902888D998DAA8DBB8D80939A02F3
:1006C00090939B02A0939C02B0939D028C8D9D8D74
:1006D000AE8DBF8D80939E0290939F02A093A00247
:1006E000B093A10288A199A1AAA1BBA18093A20263
:1006F0009093A302A093A402B093A5028CA19DA104
:10070000AEA1BFA18093A6029093A702A093A802D6
:10071000B093A90288A599A5AAA5BBA58093AA0212
:100720009093AB02A093AC02B093AD028CA59DA5B3
:10073000AEA5BFA58093AE029093AF02A093B00286
:10074000B093B10288A999A9AAA9BBA98093B202C2
:100750009093B302A093B402B093B5028CA9809396
:10076000B6028DA98093B702B701A60183E892E093
:100770000E942A1CB801882777FD8095982F0E9437
:1007800084276B017C01AB01BC0183E892E00E94ED
:10079000411CB701A60183E892E0BCC082E0A81624
:1007A000B10409F0F2C162E0CE0101960E94261A5E
:1007B0008B819C81AD81BE818093BA029093BB02F4
:1007C000A093BC02B093BD028F818093BE02888546
:1007D0009985AA85BB858093BF029093C002A093A0
:1007E000C102B093C2028C859D85AE85BF85809382
:1007F000C3029093C402A093C502B093C602888935
:100800009989AA89BB898093C7029093C802A09353
:10081000C902B093CA028C899D89AE89BF89809331
:10082000CB029093CC02A093CD02B093CE02888DE0
:10083000998DAA8DBB8D8093CF029093D002A09307
:10084000D102B093D2028C8D9D8DAE8DBF8D8093E1
:10085000D3029093D402A093D502B093D60288A17C
:1008600099A1AAA1BBA18093D7029093D802A0938B
:10087000D902B093DA028CA19DA1AEA1BFA1809351
:10088000DB029093DC02A093DD02B093DE0288A528
:1008900099A5AAA5BBA58093DF029093E002A0933F
:1008A000E102B093E2028CA59DA5AEA5BFA5809301
:1008B000E3029093E402A093E502B093E60288A9D4
:1008C00099A9AAA9BBA98093E7029093E802A093F3
:1008D000E902B093EA028CA98093EB028DA9809380
:1008E000EC02B701A60188EB92E00E942A1CB80135
:1008F000882777FD8095982F0E9484276B017C01C3
:10090000AB01BC0188EB92E00E94411CB701A6013B
:1009100088EB92E00E949C1C38C1C0901802D090D5
:10092000190210911A02E0901B0200911C028DE046
:1009300093E00E94461790E08A159B0509F01EC1BE
:100940008DE093E00E9449178C1118C1DD2049F019
:100950006FEF6D0D2E2D412F8DE093E00E94511809
:1009600007C0202F4E2D612F8DE093E00E94A2182A
:100970008DE093E00E94CF1808C110911A02809177
:100980001902803109F001C10E941602123038F4B8
:10099000812F90E09093050280930402F6C010929C
:1009A000050210920402F1C020911802C501880FBF
:1009B000991FFC01EF5DFE4F213011F4008101C051
:1009C000018110E0F0901902C8010E946B02FC0145
:1009D000EE0FFF1FE80FF91FE055FC4F208131811A
:1009E000428129833A834B8384EB8F1508F4CDC071
:1009F000CE0101960E946420811105C0B801CE018C
:100A000001960E94C61F6F2DA0C085EF92E00E9444
:100A10004617282F30E02A153B0529F06F2D85EF6A
:100A200092E00E941D1287E090E00E943E02AB011E
:100A3000BC0185EF92E00E943F12A7C081EF92E0D7
:100A40000E944617282F30E02A153B0529F06F2D0C
:100A500081EF92E00E94AA1761E080911802811153
:100A600018C060E016C081EF92E00E944617282F60
:100A700030E02A153B0529F06F2D81EF92E00E94AE
:100A8000AA1760911802862F90E08230910534F405
:100A9000617081EF92E00E946E1777C061E002976B
:100AA00009F460E081EF92E00E947E176EC061E081
:100AB0008F2D0E94112220911802622F70E08F2D3D
:100AC0000E94892162C061E08F2D0E94112287E07F
:100AD00090E00E9430027C0189E090E00E943002A8
:100AE0001816190664F48C01222717FD2095322F61
:100AF000A701B5018FE792E00E94B61246C0B5018A
:100B00008FE792E00E941E1340C010911802C501A9
:100B10000E946B02FC01EE0FFF1FE80FF91FE0556A
:100B2000FC4F80819181A28189839A83AB83153B9D
:100B300060F5CE0101960E946420811105C0B501C7
:100B4000CE0101960E94C61F612F70E0CE01019672
:100B50000E94FF1F1AC00E94BD200E94822720E031
:100B600030E04AE754E40E94E9266093F001709374
:100B7000F1018093F2019093F30107C04C2D6F2D8A
:100B80008DE093E00E94D317E1CEE5960FB6F8947E
:100B9000DEBF0FBECDBFDF91CF911F910F91FF90B0
:100BA000EF90DF90CF90BF90AF90089560E971E033
:100BB0008FEF92E00E94491E0E9451277093090214
:100BC0006093080282E10E946C21BC01882777FDB6
:100BD0008095982F0E9445258091080290910902E6
:100BE0009C012B5031092D313105D8F46CE271E0B4
:100BF00080E090E00E944D2570930702609306020A
:100C00006F3B71054CF080914502811105C081E078
:100C1000809346020C94DC0181E0809345020C94A1
:100C2000F6010A978CF46CE271E080E090E00E949B
:100C30004D2570930702609306026F3B710514F017
:100C40000C9496010C94B901109246021092450240
:100C50000C945C0185E393E00E94A71585E393E083
:100C60000E94A21580930B02843409F4ACC0209139
:100C7000040230910502232B09F0C8C08C3109F41D
:100C800073C030F5893009F453C090F4873009F40B
:100C900054C0883009F0B4C081E080931001809185
:100CA0000A0190910B01880F991F880F991F80C02E
:100CB000883109F474C08931B1F18C3009F0A0C0D9
:100CC00081E08093100180910A0190910B0170C026
:100CD0008A34C1F170F4803409F1823409F090C093
:100CE00081E08093100120910A0130910B0147E0CF
:100CF00043C08A3581F18E3509F444C0823509F04C
:100D00007FC081E08093100180910A0190910B01D6
:100D1000B3E0880F991FBA95E1F74AC081E080934C
:100D200010010C945C0181E0809310010C94790116
:100D300081E0809310010C94F60181E08093100112
:100D40000C94DC0181E08093100120910A01309124
:100D50000B0149E011C081E08093100120910A014C
:100D600030910B0146E008C081E080931001209192
:100D70000A0130910B0145E0429FC001439F900D55
:100D8000112416C081E08093100120910A01309156
:100D90000B01C901880F991F820F931F09C081E0C1
:100DA0008093100180910A0190910B01880F991F87
:100DB00020910C0130910D01820F931F90930F0130
:100DC00080930E0108950E94160285E393E00E942D
:100DD0008615882329F085E393E00E94A715F5CFB7
:100DE00080910402909105020196909305028093F0
:100DF0000402029759F41092050210920402089519
:100E000080911001813011F40C941602089561E074
:100E10008DE00E94112261E08DE00E944A226CE286
:100E200071E080E090E00E94EC2060E08DE00E94A4
:100E30004A2226E040E052EC61E070E087E896E06C
:100E40000E94B82364EF71E080E090E00E94EC2003
:100E500061E083E10E94112261E083E10E944A2265
:100E600064E670E080E090E00E94EC2061E083E1C5
:100E70000E94112260E083E10E944A2264EF71E047
:100E800080E090E00E94EC2080E00E946C21BC0198
:100E9000882777FD8095982F0E9445250E9416028D
:100EA00085E393E00E94771564E471E087E896E0BB
:100EB0000E942D2566EE71E087E896E00C943325BC
:100EC000CF93DF93C0EBD3E0CE010E942C1F23967B
:100ED00083E0C83CD807C1F766E085E393E00E9451
:100EE00062158DE293E00E9429138AE193E00E944B
:100EF000381D8DE093E00E94461863E08FEF92E08A
:100F00000E94CA1D85EF92E00E94871081EF92E057
:100F10000E942D178DEE92E00E94CC1583E892E09E
:100F20000E94181A88EB92E00E94181A8FE792E04C
:100F30000E94B01288E792E00E94CA1382E792E012
:100F40000E9476138CE692E00E948B1386E692E074
:100F50000E94C41D8FE492E00E94F00F6EE471E0E5
:100F600086EE91E0DF91CF910C94262686EE91E0FB
:100F70000E94B8258DE093E00E94E81882EB91E092
:100F8000909336038093350383EA93E00E94B8255B
:100F900085E393E00C94D70E682F87E896E00C94D5
:100FA00053238FEF0E94CC0785E50C94CC078FEF7D
:100FB0000E94CC0785E50E94CC070C942C02CF93AD
:100FC000C82F81E00E94CC078C2FCF910C94CC07C6
:100FD000EF92FF920F931F93CF93DF937C01FC015D
:100FE000C4810C2F158184E00E94CC078C2F0E94B5
:100FF000CC07C0E0D0E0C017D10744F4BE01C70160
:101000000E946D260E94CC072196F5CFDF91CF91EB
:101010001F910F91FF90EF900895FF920F931F93F0
:10102000CF93DF931F92CDB7DEB78B01F82E82E00E
:1010300099830E94CC07A8016F2D9981792F409345
:101040004B0250934C0260934D0270934E02802FDE
:101050000E94CC0780914C020E94CC0780914D02E7
:101060000E94CC0780914E020F90DF91CF911F918B
:101070000F91FF900C94CC07CF92DF92EF92FF92EA
:101080006B017C0183E00E94CC07C701B6010E947E
:101090005127862F262F372F30934A02209349025B
:1010A0000E94CC0780914A02FF90EF90DF90CF9092
:1010B0000C94CC07CF92DF92EF92FF920F931F9385
:1010C000CF93DF93CDB7DEB727970FB6F894DEBF87
:1010D0000FBECDBF10911702E12EF12C8433910584
:1010E00008F005C2FC01EC5CFF4F0C94CA2A8FEF9C
:1010F00092E00E94461790E08E159F0529F0612F1F
:101100008FEF92E00E94AA1760E971E08FEF92E002
:101110000E94491E6B017C010E94D10780910C0244
:101120000E94CC07C701B601A8C1009118028AE14C
:1011300093E00E94461790E08E159F0509F0C9C103
:101140008AE193E00E9449178013C3C18AE193E0CA
:101150000E94561D92C181EF92E00E94461790E0D6
:101160008E159F0561F0612F81EF92E00E94AA1712
:1011700081EF92E00E94D01760E00E94112281EF7F
:1011800092E00E949A1723C1009118028DEE92E01E
:101190000E94461790E08E159F0529F0612F8DEE75
:1011A00092E00E94AA17602F8DEE92E00E94CF1568
:1011B0000EC181EF92E00E94461790E08E159F05C8
:1011C00061F0612F81EF92E00E94AA1781EF92E017
:1011D0000E94D01760E00E94112260E081EF92E04F
:1011E0000E945D17682F65C081EF92E00E9446174C
:1011F00090E08E159F0599F0612F81EF92E00E949B
:10120000AA1781EF92E00E94CD1760E00E941122A0
:1012100081EF92E00E94D01760E00E94112260E00E
:1012200081EF92E00E944C17182F60E081EF92E06E
:101230000E945D17612F70E0660F771F680F711DA8
:10124000882777FD8095982FC7C000911802C02E7F
:10125000D12C81EF92E00E94461790E08E159F05F9
:1012600009F03EC181EF92E00E94491790E08C1591
:101270009D0509F035C1CA94CD2869F481EF92E04B
:101280000E94CD1762E00E94112260E081EF92E09F
:101290000E944C170CC081EF92E00E94D01762E0D0
:1012A0000E94112260E081EF92E00E945D1761E0F0
:1012B000682770E080E090E00E948227DEC0009105
:1012C000180288E792E00E94461790E08E159F056D
:1012D00029F0612F88E792E00E94AA1788E792E040
:1012E0000E94CD13602F88E792E00E94A614EEC002
:1012F00082E792E00E94461790E08E159F05A9F0C4
:10130000612F82E792E00E94AA1782E792E00E9492
:10131000CD17482F82E792E04F830E94D0174F816C
:10132000682F82E792E00E94791382E792E00E94A0
:10133000891321C08CE692E00E94461790E08E153A
:101340009F05A9F0612F8CE692E00E94AA178CE617
:1013500092E00E94CD17482F8CE692E04F830E94C6
:10136000D0174F81682F8CE692E00E948E138CE696
:1013700092E00E949E13BC01882777FD8095982FEC
:101380000E94842740C066EE71E0CE0101960E9463
:101390005326CE0101960E94E807CE0101960E94D5
:1013A000B825A5C060E0812F0E941122812F0E94E4
:1013B00080220DC0F701EE0FFF1FEF5EFE4F108180
:1013C00060E0812F0E941122812F0E946C21BC01BC
:1013D000882777FD8095982F0E9484274EC087E04C
:1013E00090E00E9430027C0160E0812F0E94112277
:1013F0009701442737FD4095542F61E0812F0E94CB
:10140000A9220E9482270E943C0871C0F090180215
:1014100061E0812F0E94112260E0812F0E944A2208
:1014200082E090E00E94262161E0812F0E944A2202
:101430008AE090E00E94262160E0812F0E944A22EB
:1014400060E08F2D0E94112220E335E740E050E05C
:1014500061E08F2D0E94A9220E94822720E030E0C7
:1014600048E652E40E94E92608C06091EC017091C0
:10147000ED018091EE019091EF010E940D0837C0BF
:1014800086E692E00E94461790E08E159F0529F0AF
:10149000612F86E692E00E94AA1786E692E00E94FB
:1014A000C71D14C08FE492E00E94461790E08E158D
:1014B0009F0529F0612F8FE492E00E94AA1781E036
:1014C00020910D0290911802291380E00E94DF07FD
:1014D0000EC0402F612F8AE193E00E94431D36CE5B
:1014E000402F612F81EF92E00E94BA17C4CE279659
:1014F0000FB6F894DEBF0FBECDBFDF91CF911F9125
:101500000F91FF90EF90DF90CF9008950F931F936E
:10151000CF93DF931F92CDB7DEB710924802809130
:10152000140280930C020091160210E090911502B3
:101530009230E9F018F4913039F050C09430D9F07D
:10154000953009F444C04AC00130110531F0898357
:101550000E94D10789810E94CC07C8010E945A08C5
:101560000F90DF91CF911F910F910C942C02C80125
:101570000E9488022CC069E08DE293E00E942C1347
:1015800060E070E08DE293E00E9438136AE08DE243
:1015900093E00E942C1360E070E08DE293E00E94E3
:1015A000381361E08DE293E00E942C1360E070E05C
:1015B0008DE293E00E94381362E08DE293E00E9496
:1015C0002C1360E070E08DE293E00E9438130F90DE
:1015D000DF91CF911F910F910C94D7070F90DF915E
:1015E000CF911F910F9108951092470287E896E0DE
:1015F0000E94D522181619064CF481E08093470208
:1016000087E896E00E94EE228093100208958FE40E
:1016100092E00E94F20F80930D020E94BD200E9472
:10162000822720E030E04AE754E40E94E926209136
:10163000F0013091F1014091F2015091F3010E94CB
:1016400080266093EC017093ED018093EE019093FE
:10165000EF010E94F40A83E892E00E94161D88EBD5
:1016600092E00E94161D80914702882309F446C02B
:101670008091100290914802853561F491110AC061
:1016800080910A028F3FE1F481E080930F02809302
:10169000480216C080930A02992391F0E0910F024C
:1016A000E23019F480930E0207C0E33028F09091E5
:1016B0000E02915090930E02F0E0EF5EFD4F80839A
:1016C00080910F028F5F843318F480930F0204C05F
:1016D00010920F021092480280914802882371F004
:1016E00080910E0281110AC080910F02843030F087
:1016F000109248020E94860A10920F020E942A0647
:101700008091040290910502019711F40C94D60582
:1017100008958091F70390E02091F803821B9109CE
:1017200008952091F8038091F703281750F4E22FD1
:10173000F0E0E750FC4F808190E02F5F2093F803AA
:1017400008958FEF9FEF0895E091F8038091F703DC
:10175000E81730F4F0E0E750FC4F808190E0089506
:101760008FEF9FEF08950895CF92DF92EF92FF924F
:101770000F931F93CF93DF937C01CB018A012091BC
:10178000D403222389F0EB016B01C40ED51ECC15C6
:10179000DD0569F06991D701ED91FC910190F0812F
:1017A000E02DC7010995F3CF642F0E94240CC801D6
:1017B000DF91CF911F910F91FF90EF90DF90CF902D
:1017C0000895CF93DF931F92CDB7DEB76983209141
:1017D000D4032223D1F02091D503203240F021E020
:1017E00030E0FC013383228380E090E015C08091DB
:1017F000D603E82FF0E0E952FC4F998190838F5F88
:101800008093D6038093D50305C061E0CE01019695
:101810000E94240C81E090E00F90DF91CF91089519
:10182000FC011382128248EE53E060E070E04483D2
:101830005583668377838CE591E091838083089557
:1018400088EC93E00C94100C613298F4209186049B
:10185000243089F460933B04FC018DE394E0DC01C7
:101860002A2F281B261718F421912D93F9CF80E0F9
:10187000089581E0089582E0089585ED8093BC008D
:101880008091BC0084FDFCCF10928604089585EC05
:101890008093BC001092860408951F920F920FB699
:1018A0000F9211242F933F934F935F936F937F93E6
:1018B0008F939F93AF93BF93EF93FF938091B90062
:1018C000887F803609F49EC078F5883209F45DC0BF
:1018D00090F4803109F456C038F4882309F4F5C037
:1018E000883009F44FC0F5C0883109F44EC0803209
:1018F00009F45FC0EEC0803409F46AC058F4803344
:1019000009F457C0883309F0E4C0809319040E9499
:10191000470CDFC0803509F44FC0883509F45DC03D
:10192000883409F0D6C0D3C0883909F4C4C0A8F4FB
:10193000883709F467C038F4883609F463C0803703
:1019400009F460C0C6C0883809F4B5C0803909F40C
:101950005FC0803809F0BDC05BC0803B09F483C024
:1019600038F4803A09F466C0883A09F47CC0B1C002
:10197000803C09F4A4C0883C09F4A1C0883B09F468
:1019800087C0A7C08091850410C090915E048091AB
:101990005D04981770F5E0915E0481E08E0F8093EE
:1019A0005E04F0E0E15AFB4F80818093BB0085EC40
:1019B00083C0809319048BC0E0915E0481E08E0F98
:1019C00080935E048091BB00F0E0E15AFB4F80837E
:1019D00090915E0480915D046BC0E0915E0481E0B3
:1019E0008E0F80935E048091BB00F0E0E15AFB4FC4
:1019F00080838091840481116AC081E08093830494
:101A000084EA5EC083E08093860410921A04CFCFEC
:101A100080911A04803208F04EC0E0911A0481E0EF
:101A20008E0F80931A048091BB00F0E0E55EFB4FBF
:101A30008083BDCF0E94470C80911A04803230F41D
:101A4000E0911A04F0E0E55EFB4F108260911A0409
:101A500070E0E0917F04F09180048BE194E00995BF
:101A600010921A0436C084E08093860410923C04DD
:101A700010923B04E0918104F091820409958091D9
:101A80003B04811105C081E080933B0410923D042A
:101A9000E0913C0481E08E0F80933C04F0E0E35C35
:101AA000FB4F80818093BB0090913C0480913B046C
:101AB000981708F47CCF85E88093BC000AC085ECB9
:101AC0008093BC001092860404C0109219040E94F6
:101AD0003D0CFF91EF91BF91AF919F918F917F91BD
:101AE0006F915F914F913F912F910F900FBE0F908B
:101AF0001F9018952091C9043091CA0428173907FE
:101B0000B9F49091870480918804981789F0E09146
:101B10008704F0E0E757FB4F80812091870430E095
:101B20002F5F3F4F2F7333272093870490E0089552
:101B30008FEF9FEF08951F93CF93DF93DC015C96A7
:101B40008D919C915D97009749F481E090E0139608
:101B50009C938E93129780E090E03BC05196ED915C
:101B6000FC91529750962C915097322F30951FB779
:101B70005E964C915E9741FB772770F941FD609529
:101B8000F8944081772311F0422B01C04323408316
:101B9000EC012197F1F748E0508160FF02C0522B21
:101BA00001C053235083EC012197F1F76695415012
:101BB00099F78081772311F0832301C0822B8083E2
:101BC0001FBF5C968D919C915D970197F1F781E025
:101BD00090E0DF91CF911F91089508952091C9045D
:101BE0003091CA042817390771F4909187048091C5
:101BF0008804981741F0E0918704F0E0E757FB4F25
:101C0000808190E008958FEF9FEF08952091C9049F
:101C10003091CA042817390771F480918804209103
:101C2000870490E0805C9F4F821B910960E470E024
:101C30000E94752A089580E090E00895E091C9041B
:101C4000F091CA04E817F90769F4A389B4899C9153
:101C50008589809589238C931092CA041092C904B7
:101C600081E0089580E00895CF93DF93EC018A8DA1
:101C70009B8D892BF1F08091C9049091CA048C1737
:101C80009D07B9F0009711F00E941E0E8E8D8E7F79
:101C90008E8F1092880410928704D093CA04C09348
:101CA000C904EB89FC8980819D89892B808381E02F
:101CB00001C080E0DF91CF9108951F920F920FB67F
:101CC0000F9211242F933F934F935F936F937F93C2
:101CD0008F939F93AF93BF93EF93FF93E091C904CA
:101CE000F091CA04309709F451C0868DA685B78556
:101CF000958581FF04C08C91892329F447C08C917C
:101D0000892309F043C0A389B4899C918589809572
:101D100089238C93868997890197F1F7208D318DDE
:101D2000A685B785758558E040E0C9010197F1F7B0
:101D3000842F90E095958795482F6C91672309F043
:101D40004068515091F7868D81FD409580918804BF
:101D500090E001968F73992720918704281749F006
:101D6000A0918804B0E0A757BB4F4C9380938804A0
:101D700003C0868D8160868F828D938D0197F1F7E8
:101D8000A389B4898C919589892B8C93FF91EF91CC
:101D9000BF91AF919F918F917F916F915F914F9183
:101DA0003F912F910F900FBE0F901F9018952CE62A
:101DB00031E0FC01318320830C941E0E1F93CF93DE
:101DC000DF93EC01162F6E8D6695617081E06827B8
:101DD000812F0E944A2261E0812F0E941122812FCF
:101DE00090E0FC01E857FE4FE491E88BFC01E456DB
:101DF000FE4FE491F0E0EE0FFF1FE654FE4F859199
:101E000094919A8B898BDF91CF911F9108951F93A5
:101E1000CF93DF93EC01162F60E0812F0E941122F7
:101E20008E8D81FD04C061E0812F0E944A221C87B3
:101E3000812F90E0FC01E857FE4FE491ED87FC0113
:101E4000E456FE4FE491F0E0EE0FFF1FE055FE4F29
:101E5000859194919F878E87DF91CF911F910895EF
:101E6000FF920F931F93CF93DF93EC01F62E522F27
:101E70001B821A8208EE13E020E030E00C831D8301
:101E80002E833F838CE691E0998388831F8A1E8A84
:101E9000198E188E1B8E1A8E1D8E1C8E8E8D8E7F27
:101EA00050FB81F98E8F642FCE010E94DE0E6F2DC4
:101EB000CE01DF91CF911F910F91FF900C94070FEE
:101EC000CF93DF93EC019A01AB011B8E1A8E198E12
:101ED000188E1F8A1E8A60E079E08DE390E00E94F0
:101EE000AB2AC9012430310520F0B90163507109D2
:101EF00002C061E070E07D8F6C8FEC85E63108F008
:101F000068C0B901769567956431710518F0635121
:101F1000710902C061E070E07F8B6E8B069718F04C
:101F2000C901059702C081E090E0998F888FC901AF
:101F3000880F991F820F931F969587959695879581
:101F40008D30910510F00C9702C081E090E09B8FDE
:101F50008A8F20916800E83050F091E0EE3008F46C
:101F600090E081E001C0880F9A95EAF701C084E013
:101F7000822B809368002C85283038F02E3040F07A
:101F8000263148F48CE690E008C08DE690E005C06C
:101F90008BE690E002C080E090E09C8B8B8B283039
:101FA00030F481E001C0880F2A95EAF70DC0822F36
:101FB00090E02E3010F4089701C00E9791E001C018
:101FC000990F8A95EAF7892F8D8B8C8D9D8D0197BE
:101FD000F1F7CE01DF91CF910C94340E0C941E0ECC
:101FE0000C942D17CF92DF92EF92FF920F931F93D5
:101FF000CF93DF93EC010C891D890E94BD20CC801A
:10200000DD80EE80FF809B01AC012C193D094E095B
:102010005F0969017A0139E0C316D104E104F104D2
:10202000E8F16C837D838E839F83CE010E949A1793
:10203000488559856A857B85452B462B472B49F476
:10204000AC01662757FD6095762F488B598B6A8BBC
:102050007B8B488959896A897B89841B950B97FFFB
:1020600003C0919581959109449764F44C855D85F1
:102070006E857F854F5F5F4F6F4F7F4F4C875D87CA
:102080006E877F87488559856A857B854F5F5F4F5F
:102090006F4F7F4F488759876A877B8788859985E7
:1020A000AA85BB850597A105B105D1F418861986C7
:1020B0001A861B868C859D85AE85BF850397A105F5
:1020C000B10540F088899989AA89BB898C019D8BCB
:1020D0008C8B02C00C891D891C861D861E861F865E
:1020E000C80164E670E00E94752A6830710528F422
:1020F000FB01E858FE4F808101C080E0DF91CF9165
:102100001F910F91FF90EF90DF90CF9008950C9466
:102110002D170F931F93CF93DF93EC01062F18E039
:1021200060E088850E944A2200FF02C061E001C091
:1021300060E089850E944A22069561E088850E94B8
:102140004A22115069F760E088850E944A2261E0C6
:1021500089850E944A2261E088850E944A2260E0C7
:1021600089850E94112218EC89850E948022892B82
:1021700059F01150C9F761E089850E94112260E091
:1021800089850E944A22EFCF61E08985DF91CF9156
:102190001F910F910C941122CF93DF93EC0161E01A
:1021A00088850E944A2261E089850E944A2260E077
:1021B00089850E944A2260E08885DF91CF910C9446
:1021C0004A22CF93DF93EC0160E088850E944A2287
:1021D00060E089850E944A2261E088850E944A2247
:1021E00061E08985DF91CF910C944A22CF92DF92F2
:1021F000FF920F931F93CF93DF931F92CDB7DEB75C
:102200006C01F62E79830E94CC1060E4C6010E9416
:102210008910C6010E94E110C6010E94CC10F6018F
:102220006581C6010E9489100F2D7981172F84E0E6
:10223000F82EF80161918F01C6010E948910FA946D
:10224000C1F7C6010E94E110C6010E94CC10F60140
:102250006681C6010E948910C6010F90DF91CF915F
:102260001F910F91FF90DF90CF900C94E1104F924F
:102270005F926F927F928F929F92AF92BF92CF9216
:10228000DF92EF92FF920F931F93CF93DF9300D0D3
:1022900000D0CDB7DEB76A017B01890137FD48C0A8
:1022A000B9016F5F7F4F882777FD8095982F0E9437
:1022B00084279B01AC0160E070E080E291E40E9421
:1022C0005F294B015C019B01AC01C701B6010E9473
:1022D000E9260E94BF272B013C01B801882777FD22
:1022E0008095982F0E9484279B01AC0160E070E0EC
:1022F00080E291E40E945F2969837A838B839C83C7
:10230000A5019401C301B2010E94FC289B01AC010C
:10231000C701B6010E94802629813A814B815C81E8
:102320000E94E9260E94BF270E945127CB011FC0AF
:1023300088249924821A930AA12CB12C20E030E041
:1023400040E251E4C701B6010E94FC286B017C0108
:102350008FEFA81AB80AA814B90484F3C701B6010C
:102360000E945127CB016AE070E00E94752A0F900D
:102370000F900F900F90DF91CF911F910F91FF90D1
:10238000EF90DF90CF90BF90AF909F908F907F9015
:102390006F905F904F900895DB0180E090E22C9168
:1023A000223208F09C93EC91F0E0EE5AFE4FE4915B
:1023B000ED938F5F843099F70895EF92FF920F931A
:1023C0001F93CF93DF9300D000D0CDB7DEB78C0141
:1023D000DB01FE013196CE0105967F012D912193FF
:1023E000E817F907D9F7B701C8010E94CC11B70166
:1023F000C8010E94F6100F900F900F900F90DF9180
:10240000CF911F910F91FF90EF900895CF93DF939D
:1024100000D000D0CDB7DEB720E229832A832B83FA
:102420002C83BE016F5F7F4F0E94DD110F900F90D4
:102430000F900F90DF91CF910895CF93DF93EC0130
:102440006A83E62FF0E0EE0FFF1FEF5DFE4F818104
:102450008983908198838887998761E00E941122FF
:1024600061E089850E94112280E48C8380EC8D8359
:102470008AE88E83CE01DF91CF910C9406128F9261
:102480009F92AF92BF92CF92DF92EF92FF920F9303
:102490001F93CF93DF9300D000D0CDB7DEB75C01A0
:1024A0006A017B0119821A821B821C8220E030E0C3
:1024B000A901C701B6010E94E52687FF09C0F7FA06
:1024C000F094F7F8F09481E289839924939401C001
:1024D000912C03E010E0812C9801B701A601C50101
:1024E0000E943711181619062CF0002319F08820C5
:1024F000B9F00CC001110AC0E1E0F0E0EC0FFD1FE3
:10250000E90DF11D20E1280F208307C0E1E0F0E094
:10251000EC0FFD1FE90DF11D8083939488248394B3
:1025200083E0891530F0015011090C3F8FEF180737
:1025300099F6BE016F5F7F4FC5010E94DD110F90BC
:102540000F900F900F90DF91CF911F910F91FF90FF
:10255000EF90DF90CF90BF90AF909F908F900895B5
:102560000E942D1788E08093CB0408954F925F92CC
:102570006F927F928F929F92AF92BF92CF92DF9293
:10258000EF92FF920F931F93CF93DF93762E680104
:1025900079016093CB049A0140E050E060E472E47A
:1025A0008FE090E00E94AB2AE901590137FF03C098
:1025B0008FEFA81AB80A85011595079561E0872D58
:1025C0000E941122A8EEB3E0A70196010E94DF2A23
:1025D0002B013C01C12CD12C76014E01AA2497FC81
:1025E000A094BA2CC414D504E604F704B0F461E056
:1025F0008091CB040E944A22C8010E94262160E0FB
:102600008091CB040E944A22C8010E942621A895ED
:10261000C80CD91CEA1CFB1CE5CFDF91CF911F91A0
:102620000F91FF90EF90DF90CF90BF90AF909F9071
:102630008F907F906F905F904F900895862F60935A
:10264000CB0461E00E94112260E08091CB040C94E5
:102650004A2260E00C943617CF93DF93EC010E947E
:10266000AA1784EF91E09F838E83DF91CF91089525
:102670000F931F93CF93DF938C016F3F710519F078
:1026800014F06FEF70E0EB0161308FEF780714F416
:10269000C1E0DFEFF801868197818C179D07C9F0B3
:1026A000D783C683D7FD06C061E0C8010E947E17AC
:1026B000BE0108C060E0C8010E947E176627772728
:1026C0006C1B7D0BC801DF91CF911F910F910C9472
:1026D000A617DF91CF911F910F9108958CEC94E094
:1026E0000C94A0138CEC94E00C94C91360E00C944F
:1026F0003617CF93DF93EC016C834D838C8160E0C0
:102700000E9411228D8188838C818983DF91CF91F2
:1027100008950C948E1760E00C943617CF93DF93D6
:10272000EC016C834D838C8160E00E9411228D81CD
:1027300088838C818983DF91CF9108950C948E17C3
:1027400021E030E0FC0131832083EE5FFE4F1082F8
:1027500011821282138234961082118212821382A5
:102760003496108231961082319610821182128234
:102770001382349611821082329610823196108222
:102780001182128213823496108211821282138275
:102790000895089560E00C9436174F925F926F92FF
:1027A0007F928F929F92AF92BF92CF92DF92EF92E1
:1027B000FF920F931F93CF93DF9300D000D01F920F
:1027C000CDB7DEB78C01CE0101966C0185E0F60134
:1027D00011928A95E9F760E0C8010E947E1764E1D2
:1027E00070E080E090E00E94EC2061E0C8010E946F
:1027F0007E1788E290E00E94262160E0C8010E94D6
:102800007E170E94BD204B015C0160E0C8010E9460
:102810005D1781110EC00E94BD20681979098A09CF
:102820009B09633071058105910578F3F8011482E5
:1028300015820E94BD204B015C0160E0C8010E942E
:102840005D17882359F00E94BD20681979098A090B
:102850009B09633071058105910578F3E12CF12C1A
:102860000E94BD204B015C0160E0C8010E945D1721
:1028700081110BC00E94BD20681979098A099B0942
:10288000633071058105910578F30E94C9204B01E1
:102890005C010E94BD202B013C0160E0C8010E9448
:1028A0005D17882359F00E94BD20641975098609B7
:1028B0009709633071058105910578F30E94C9205D
:1028C000681979098A099B09F70123E0F595E795CD
:1028D0002A95E1F7693271058105910530F0EC0D1B
:1028E000FD1D8081880F816004C0EC0DFD1D80817D
:1028F000880F8083FFEFEF1AFF0A88E2E816F104E1
:1029000009F0AECF59814B81842F90E0850F911D46
:102910002D8130E08217930719F4F8015483458321
:102920000F900F900F900F900F90DF91CF911F910C
:102930000F91FF90EF90DF90CF90BF90AF909F905E
:102940008F907F906F905F904F900895FC01611180
:1029500002C084810895858108951F920F920FB659
:102960000F9211240F931F932F933F934F935F93D5
:102970006F937F938F939F93AF93BF93CF93EF9377
:10298000FF9382E00E948022C82F2091ED053091B4
:10299000EE052F5F3F4F3093EE052093ED058091BC
:1029A0005306843618F085E08093E8059091E80599
:1029B000933079F018F4923039F070C0943011F1FE
:1029C000953009F44AC06AC0C11168C0109253061C
:1029D00029C0C13009F062C0E091530681E08E0F3A
:1029E00080935306F0E08091ED059091EE05E9515A
:1029F000FA4F80871092EE051092ED0584E08093E7
:102A0000E8054CC0C11114C0E091530681E08E0F5F
:102A100080935306F0E08091ED059091EE05E95129
:102A2000FA4F80871092EE051092ED0583E0E7CF14
:102A30008091ED059091EE058536910578F185E060
:102A40008093E8050E94BD206093E9057093EA0534
:102A50008093EB059093EC0521C00E94BD2000916E
:102A6000E9051091EA052091EB053091EC05601B1A
:102A7000710B820B930B693C71058105910540F048
:102A8000109253061092EE051092ED0582E0B7CF3A
:102A9000C11104C01092EE051092ED05FF91EF9167
:102AA000CF91BF91AF919F918F917F916F915F91E6
:102AB0004F913F912F911F910F910F900FBE0F904B
:102AC0001F901895CF93DF93EC010E94F41884E8CF
:102AD00091E09983888388A1FE01E858FF4F8083A5
:102AE0008F8DC758DF4F8883DF91CF910895CF93A3
:102AF000DF93EC0140E855E260E070E00E9441198C
:102B000060E08F8DDF91CF910C9411221F93CF93B2
:102B1000DF93EC018BA1882319F0CE010E946F197D
:102B200060E0CE014F960E944C17182F8BA188238E
:102B300019F0CE010E94771581E08127DF91CF91B6
:102B40001F91089586589F4FFC0180810895CF936F
:102B5000DF93EC010E9486158823A1F0CE010E942C
:102B6000DC19181619068CF4E881F9810680F781C2
:102B7000E02DCE0109958F3F91053CF4C658DF4FFB
:102B8000888303C0C658DF4F1882DF91CF91089524
:102B90000E94C2199927089560E00C94361761309D
:102BA00049F40E948E178A5E91402091560630911A
:102BB00057060AC0623059F40E949A178A5E914003
:102BC0002091540630915506820F931F089580E09E
:102BD00090E00895089570E0FB01E857FE4FE491FE
:102BE000DC01EC93FB01E456FE4FE491F0E0EE0FC4
:102BF000FF1FE055FE4F25913491FC013283218364
:102C000008951F93CF93DF93FC011081C181D2817E
:102C10009981812F8095892389838A81812B8A8359
:102C20008AE090E00E9426219881912381E009F4B6
:102C300080E0DF91CF911F910895FF920F931F9332
:102C4000CF93DF93FC011081C181D281F8948981F7
:102C5000F12EF0948F2189838A81812B8A83789445
:102C60000DE7015041F182E090E00E942621888129
:102C70008123B9F3F8948A818F218A838981812BFA
:102C80008983789480EE91E00E942621F8948981CE
:102C90008F2189838A81812B8A8386E490E00E9438
:102CA00026218881812301E009F000E078948AE9F7
:102CB00091E00E942621802FDF91CF911F910F91EB
:102CC000FF9008951F93CF93DF93FC011081C18182
:102CD000D281912F909560FF12C0F8948A81892348
:102CE0008A838981812B89838AE090E00E94262152
:102CF0008A81812B8A83789487E390E011C0F894CD
:102D00008A8189238A838981812B898381E490E068
:102D10000E9426218A81812B8A83789485E090E025
:102D2000DF91CF911F910C9426210F931F93CF9386
:102D3000DF93FC011081C181D281F8948981812BBC
:102D400089838A81012F009580238A8383E090E024
:102D50000E9426218981802389838A81812B8A830D
:102D60008AE090E00E942621C881789485E390E073
:102D70000E9426211C2381E009F480E0DF91CF919D
:102D80001F910F910895CF92DF92EF92FF920F93D0
:102D90001F93CF93DF931F92CDB7DEB76C01E62E62
:102DA00008E010E0FF24F39461E09F2D9E2109F4D8
:102DB00060E0C60149830E946216FF0C01501109B0
:102DC00049810115110581F741111DC0F894D60103
:102DD0001196ED91FC91129791818C9180958923A8
:102DE00081831196ED91FC91129782819C91892BA0
:102DF00082831196ED91FC91129792818C9180952E
:102E00008923828378940F90DF91CF911F910F9146
:102E1000FF90EF90DF90CF900895EF92FF920F9385
:102E20001F93CF93DF938C01C8E0D0E0F12CEE2408
:102E3000E394C8010E9495168111FE28EE0C21979B
:102E4000C1F78F2DDF91CF911F910F91FF90EF90E0
:102E5000089540E06CEC0C94C316FC0180912101B4
:102E6000808380912201818312820895DC01E62F04
:102E7000F0E0EE0FFF1FEF5DFE4F80818C938181AC
:102E800011968C93119712966C930895FC01828190
:102E90000895FC0183810895CF93DF93EC0188812D
:102EA0000E94112288810E94802221E0892B09F44E
:102EB00020E0822FDF91CF910895CF93DF93EC0133
:102EC00089810E94112289810E94802221E0892B20
:102ED00009F420E0822FDF91CF9108951F93CF93C3
:102EE000DF93EC01162F61E088810E941122612F8F
:102EF0008881DF91CF911F910C944A221F93CF9329
:102F0000DF93EC01162F61E089810E941122612F6D
:102F10008981DF91CF911F910C944A22CF93DF9347
:102F2000EC0160E088810E9411228881DF91CF91BD
:102F30000C946C21CF93DF93EC0160E089810E94B7
:102F400011228981DF91CF910C946C21FC01808149
:102F50000C948921DC01E62FF0E0EE0FFF1FEF5DFE
:102F6000FE4F80818C93818111968C9311971296DC
:102F70006C930895DC01E62FF0E0EE0FFF1FEF5D8C
:102F8000FE4F80818C93818111968C9311971296BC
:102F90006C93129713964C930895FC0180810895C9
:102FA000FC0181810895DC0112966C931297E62F43
:102FB000F0E0EE0FFF1FEF5DFE4F918111969C93A5
:102FC000119780818C934230D9F4292F30E0F90198
:102FD000E857FE4FE4911C96EC931C97F901E456D8
:102FE000FE4FE491F0E0EE0FFF1FE654FE4F2591F7
:102FF000349119963C932E93189761E0892F19C04C
:10300000282F30E0F901E857FE4FE4911C96EC932D
:103010001C97F901E456FE4FE491F0E0EE0FFF1F1C
:10302000E654FE4F2591349119963C932E931897B0
:1030300061E00C941122CF93DF93EC01262F30E056
:103040003D832C8323E0629FC00111240E94F22A59
:103050009F838E83892B21F480E991E00E94502D7B
:1030600080E090E04C815D819A01220F331F240F94
:10307000351F8217930738F4EE81FF81E80FF91F9F
:1030800010820196EFCFDF91CF910895CF93DF9318
:10309000EC010E942D1760E2CE01DF91CF910C94DC
:1030A0001B180F93FC01A62FB0E084819581A8170F
:1030B000B907B8F4862F880F860F90E0A681B781F4
:1030C000A80FB91F2C93A681B781A80FB91F11961D
:1030D0004C930680F781E02DE80FF91F028381E011
:1030E00001C080E00F910895CF92DF92EF92FF929E
:1030F0000F931F93CF93DF937C01142FD22EC02EFA
:10310000611113C0C0E0D0E0F70184819581C81738
:10311000D90748F40C2D2D2D412F6C2FC7010E948B
:1031200051182196F1CF81E004C061500E945118DE
:1031300080E0DF91CF911F910F91FF90EF90DF9092
:10314000CF9008950F93022F242F462F60E00E9406
:1031500074180F9108950F931F93D8013FB7F894F7
:103160009C91822F80958923292BFB01460F571FA5
:10317000E417F50781F0919168E02C9300C097FF68
:103180008C93990F00C000C000C008F48C9300C05D
:103190006A9599F7EDCF3FBF1F910F9108950F9357
:1031A0001F93FC010085118524813581A901440FFD
:1031B000551F420F531F6681778124850E94AB18EB
:1031C00061E070E080E090E01F910F910C94EC20A2
:1031D000CF93DF93EC018E819F810E948A2B1F8207
:1031E0001E82DF91CF910895FF920F931F93CF938B
:1031F000DF93EC01F62E8C01015E1F4FC8010E9487
:103200003617EF2DF0E0EE0FFF1FEF5DFE4F20E0D1
:1032100040816181CE010E94300F82EB91E0998361
:10322000888366ED71E0CE0182599F4F0E94262669
:103230001DA21BA21CA288A1FE01EA58FF4F808399
:103240008F8D31968083C8010E944617853021F406
:1032500080912B01813059F0C8010E9446178730B8
:1032600041F481E090912F01913019F403C081E085
:1032700001C080E08BA3DF91CF911F910F91FF9050
:103280000895CF92DF92EF92FF92CF93DF93EC01FC
:103290006A017B0160E472E48FE090E0A70196018F
:1032A0000E94AB2A3FA32EA38BA1882369F026E0BE
:1032B000B701A60187E896E0DF91CF91FF90EF90EC
:1032C000DF90CF900C94B823B701A601CE01DF9117
:1032D000CF91FF90EF90DF90CF900C94600FFC01A6
:1032E00023A1222321F087E896E00C941A240C9461
:1032F000EE0FCF92DF92EF92FF920F931F93CF9337
:10330000DF93FC01C6A1D7A123976C01F6E7CF0E8E
:10331000D11CF60180810E948022892BF1F400E00B
:1033200010E0E12CF12CCE010E942621F6018081D3
:103330000E948022002E02C0880F991F0A94E2F793
:10334000E82AF92A0F5F1F4F0830110561F7CE01F7
:103350000E942621C701992702C08FEF9FEFDF91BE
:10336000CF911F910F91FF90EF90DF90CF90089534
:10337000FC0123A1222321F087E896E00C9453233B
:103380000C949B0DFC0124A1222351F020A531A512
:103390004FEF5FEF51A740A737FF0CC00C9479198E
:1033A000FC0123A1222321F087E896E00C94EE2271
:1033B0000C947A0DC9010895CF93DF93EC018CA191
:1033C000882371F0CE010E94791988A799A7892FC7
:1033D0008095881F8827881F90E0DF91CF910895FE
:1033E0008BA1882331F087E896E0DF91CF910C9490
:1033F000D522CE01DF91CF910C94060ECF93DF93AF
:10340000EC018E81813011F460E001C061E08A81BD
:103410000E944A2261E08B810E944A2281E090E072
:103420000E94262160E08B81DF91CF910C944A228B
:10343000CF93DF93EC0160E002960E94361782EC96
:1034400091E099838883DF91CF910895CF93DF93A3
:10345000EC0102960E94361782EC91E099838883F2
:103460001F82188619861A861B861C861D861E8654
:103470001F8A188E198E1A8E0E94C9206F8F78A30A
:1034800089A39AA31F86188A198A1A8A81E08E83D3
:103490001F82188619861A861B861C861D861E8624
:1034A0001BA21CA21DA21EA21B8E1C8E1D8E1E8E78
:1034B00061E08A810E94112261E08B81DF91CF91CE
:1034C0000C9411220F931F93CF93DF93EC014B8D3C
:1034D0005C8D6D8D7E8D452B462B472B11F480E046
:1034E00035C00E94C9200F8D18A129A13AA1601BE7
:1034F000710B820B930B0B8D1C8D2D8D3E8D061742
:1035000017072807390758F78E814F815885698535
:103510007A85813029F44F5F5F4F6F4F7F4F04C032
:1035200041505109610971094F83588769877A872A
:10353000E881F9810190F081E02DCE0109950E948A
:10354000C9206F8F78A389A39AA381E0DF91CF91DF
:103550001F910F9108952F923F924F925F926F9219
:103560007F928F929F92AF92BF92CF92DF92EF9213
:10357000FF920F931F93CF93DF9300D000D000D022
:10358000CDB7DEB79E838D83FC01C384D484E584EC
:10359000F68487819085A185B285C81AD90AEA0A7E
:1035A000FB0A67857089818992899B01AC010E9421
:1035B000FC284B015C01ED81FE816789708D818D56
:1035C000928D9B01AC010E9481269B01AC01C5013B
:1035D000B4010E94E9260E945127C114D104E104DC
:1035E000F104A9F462307105810591050CF082C0E7
:1035F000ED81FE81138E148E158E168E1786108A1D
:10360000118A128A13A214A215A216A20AC1ED8170
:10361000FE8103A114A125A136A11C141D041E04C2
:103620001F040CF510161106120613064CF46C1547
:103630007D058E059F056CF5268121115BC029C093
:10364000011511052105310509F454C06C157D05DE
:103650008E059F050CF04EC0ED81FE818681813084
:1036600009F048C03CC010161106120613060CF5EE
:103670000027112798010C191D092E093F09601711
:103680007107820793072CF4ED81FE81268121309A
:1036900089F59B01AC0188279927DC01821B930BDC
:1036A000A40BB50BED81FE8183A394A3A5A3B6A3C0
:1036B00021C00115110521053105E1F08824992467
:1036C00054018C189D08AE08BF08681579058A0555
:1036D0009B0584F4ED81FE81868181110BC03095BC
:1036E0002095109501951F4F2F4F3F4F03A314A313
:1036F00025A336A3ED81FE8183A094A0A5A0B6A04A
:1037000081149104A104B10499F487A190A5A1A505
:10371000B2A583A794A7A5A7B6A781E01C141D0492
:103720001E041F040CF080E0ED81FE81868342C000
:10373000ED81FE81C3A4D4A4E5A4F6A4A70196015B
:10374000C701B6010E9481262B013C01C501B401CD
:103750000E94842720E030E040E850E40E94FC28EA
:1037600020E030E040E85FE30E9481269B01AC014D
:10377000C301B2010E94E9269B01AC01C701B60159
:103780000E9480261B012C01ED81FE8167A470A898
:1037900001A912A99301A8010E94AC28181614F4DB
:1037A00031018201A301B801ED81FE8143A754A735
:1037B00065A776A7FFEF8F1A9F0AAF0ABF0AED81B0
:1037C000FE8183A294A2A5A2B6A223A534A545A5F5
:1037D00056A5CA01B90129833A834B835C830E94B1
:1037E0005627ED81FE81638F748F858F968F298197
:1037F0003A814B815C8160E074E284E799E40E9445
:10380000E926ED81FE816787708B818B928B268103
:10381000211107C0DC01CB01B0588787908BA18BA9
:10382000B28B26960FB6F894DEBF0FBECDBFDF91E8
:10383000CF911F910F91FF90EF90DF90CF90BF90AD
:10384000AF909F908F907F906F905F904F903F9040
:103850002F9008950F931F93FC01038514852585F0
:103860003685041715072607370741F04387548725
:10387000658776871F910F910C94AB1A1F910F915A
:103880000895CF92DF92EF92FF92CF93DF93EC01F6
:103890006A017B019A01AB016B897C898D899E89C4
:1038A0000E94E526882309F440C0CB8ADC8AED8A91
:1038B000FE8AA701960160E074E284E799E40E9421
:1038C000E9266FA778AB89AB9AAB8BA19CA1ADA180
:1038D000BEA1181619061A061B063CF56F857889D5
:1038E00089899A899B01AC010E94FC286B017C01AB
:1038F0006F89788D898D9A8D9B01AC010E948126FC
:103900009B01AC01C701B6010E94E9260E94512724
:103910006BA37CA38DA39EA3CE01DF91CF91FF90DB
:10392000EF90DF90CF900C94AB1ADF91CF91FF9086
:10393000EF90DF90CF9008956F927F928F929F9239
:10394000AF92BF92CF92DF92EF92FF920F931F93AD
:10395000CF93DF93EC013A018B012F853889498998
:103960005A89B301C8010E94E526882309F44FC093
:10397000CB88DC88ED88FE8846015701B7FAB09401
:10398000B7F8B094A5019401B301C8010E94E526DF
:1039900087FD0BC0A7019601B301C8010E94AC28A6
:1039A00018162CF43601870102C03401850120E08D
:1039B00030E0A901B301C8010E94E526811105C0CC
:1039C0001B8E1C8E1D8E1E8E1CC09301A80160E0F4
:1039D00074E284E799E40E94E9269F770E945627C3
:1039E0006B8F7C8F8D8F9E8FFF24F39420E030E0CF
:1039F000A901B301C8010E94AC2818160CF0F12CE3
:103A0000FE82C301D8018F87988BA98BBA8BDF9177
:103A1000CF911F910F91FF90EF90DF90CF90BF90CB
:103A2000AF909F908F907F906F9008950F931F930A
:103A3000FC01038514852585368547815085618580
:103A40007285041715072607370771F040175107CD
:103A5000620773071CF421E0268302C0FC01168272
:103A60001F910F910C94621A80E01F910F9108959D
:103A7000CF93DF93EC010E942D17CE010496DF91C6
:103A8000CF910C94EA151F93CF93DF93EC01142F81
:103A90000E94BA17123011F4698101C06881CE0109
:103AA0000496DF91CF911F910C94EB15CF92DF928A
:103AB000EF92FF920F931F93CF93DF93CDB7DEB7B3
:103AC0002C970FB6F894DEBF0FBECDBF8C010C5FF4
:103AD0001F4FC8010E941D16C8010E94291740E00F
:103AE00064E4C8010E94C3160E94BD206B017C01E2
:103AF000C8010E94011681110BC00E94BD206C19E3
:103B00007D098E099F096E3E72408105910580F303
:103B1000C8010E941D16C8010E94291740E06EEBE3
:103B2000C8010E94C316CE0101967C016E0196E089
:103B3000C90ED11CC8010E940D17F70181937F01A6
:103B4000EC15FD05B9F76A8170E0762F662789814B
:103B5000682B882777FD8095982F0E94842720E086
:103B600030E040E85DE30E94FC282C960FB6F89404
:103B7000DEBF0FBECDBFDF91CF911F910F91FF90A0
:103B8000EF90DF90CF90089560E00C94361760E0DE
:103B90000C945D170C943617CF92DF92EF92FF9240
:103BA0000F931F93CF93DF9300D000D0CDB7DEB734
:103BB0008C019A01AB0129833A834B835C830E9479
:103BC000BD20F801C680D780E084F1846C197D099E
:103BD0008E099F0929813A814B815C816831710589
:103BE0008105910510F081E08583F80185818823A6
:103BF000C1F129833A834B835C830E94BD20F80185
:103C00006683778380879187158260E0C8010E9470
:103C10007E1782E090E00E94262161E0C8010E94A8
:103C20007E178AE090E00E94262160E0C8010E9491
:103C30007E1760E0F80181810E94112229813A817A
:103C40004B815C8161E0F80181810E94A9226B01B6
:103C50007C010E948427F801628773878487958797
:103C600009C0F80162857385848595850E94512776
:103C70006B017C01C701B6010F900F900F900F9060
:103C8000DF91CF911F910F91FF90EF90DF90CF9038
:103C90000895CF93DF93EB0127E3269FA001279F91
:103CA000500D112448535F4F60E070E00E94CC1D1E
:103CB000611571058105910541F48AE38C9FB0017E
:103CC0008D9F700D112480E090E00E94842720E0F9
:103CD00030E048E652E40E94E926DF91CF91089552
:103CE0001F920F920FB60F9211242F933F934F9371
:103CF0005F936F937F938F939F93AF93BF93EF9354
:103D0000FF938091590687FF05C01092850010929D
:103D100084001AC020915906332727FD30958091E1
:103D2000580690E0281739077CF4809159069927A6
:103D300087FD9095FC01EE0FFF1FE80FF91FE65A73
:103D4000F94F808187FD15C0809159068F5F809360
:103D5000590620915906332727FD30958091580642
:103D600090E028173907BCF4809159068C305CF13B
:103D700012C080915906992787FD9095FC01EE0F9E
:103D8000FF1FE80FF91FE65AF94F808160E08F7737
:103D90000E944A22D9CF8091840090918500049698
:103DA00080349C4918F480E49CE905C0809184002B
:103DB00090918500049690938900809388008FEFFE
:103DC0008093590638C020918400309185008091FD
:103DD0005906992787FD9095FC01EE0FFF1FE80F0C
:103DE000F91FE65AF94F81819281820F931F9093B8
:103DF00089008093880080915906992787FD9095C6
:103E0000FC01EE0FFF1FE80FF91FE65AF94F808102
:103E100087FF11C080915906992787FD9095FC0175
:103E2000EE0FFF1FE80FF91FE65AF94F808161E09E
:103E30008F770E944A22FF91EF91BF91AF919F919E
:103E40008F917F916F915F914F913F912F910F9043
:103E50000FBE0F901F901895209158062C30A0F49B
:103E600031E0320F30935806FC012083822F90E01E
:103E7000FC01EE0FFF1FE80FF91FE65AF94F88EB20
:103E80009BE09283818308952FEFFC0120830895A6
:103E9000DF92EF92FF920F931F93CF93DF93EC018A
:103EA000D62E7A01890188818C3008F066C061E0E5
:103EB0008D2D0E9411228881A82FB0E0FD01EE0F08
:103EC000FF1FEA0FFB1FE65AF94F2D2D2F77908128
:103ED0009078922B908360E272E06E197F0977FFF1
:103EE00002C06D5F7F4F759567957595679569837E
:103EF00040E659E0401B510B57FF02C04D5F5F4F3A
:103F000055954795559547954A836CE00E94552AEB
:103F10009CE0899FB001112420E030E0A901460F08
:103F2000571FFA01EE0FFF1FE40FF51FE65AF94F76
:103F3000908197FD16C02F5F3F4F2C30310571F7F0
:103F400081110FC01092800082E080938100109256
:103F5000850010928400B19A80916F0082608093F6
:103F60006F00888190E0FC01EE0FFF1FE80FF91F42
:103F7000E65AF94F8081806880838881DF91CF91F4
:103F80001F910F91FF90EF90DF90089520E639E0A8
:103F900040E252E00C94481FFC0180818C3070F5A7
:103FA000918128E830E0291B310997FD3395220FD4
:103FB000331F220F331F621773077CF0928128E5AD
:103FC00032E0291B310997FD3395220F331F220F51
:103FD000331F621773070CF49B0122503109220F23
:103FE000331F4FB7F89490E0FC01EE0FFF1FE80F6E
:103FF000F91FE65AF94F328321834FBF08954F923C
:104000005F926F927F92AF92BF92CF92DF92EF92C8
:10401000FF920F931F93CF93DF93EC01603282E006
:1040200078070CF040C077FD06C0653B71052CF0A9
:1040300064EB70E002C060E070E0898128E830E065
:10404000281B310987FD3395220F331F220F331FA1
:104050005901CC24B7FCC094DC2C882777FD8095CF
:10406000982F2A8148E552E0421B510927FD5395BC
:10407000440F551F440F551F2A01662457FC6094B6
:10408000762C7F926F925F924F9214EBE12EF12C7F
:1040900000E010E020E030E0A9010E9471250F90BF
:1040A0000F900F900F90CE01DF91CF911F910F9144
:1040B000FF90EF90DF90CF90BF90AF907F906F9088
:1040C0005F904F900C94CC1FFC01808190E0FC012C
:1040D000EE0FFF1FE80FF91FE65AF94F808187FBAB
:1040E000882780F908951F920F920FB60F9211241E
:1040F0002F933F938F939F93AF93BF9380917F06AE
:1041000090918006A0918106B091820630917E0642
:1041100023E0230F2D3720F40196A11DB11D05C00A
:1041200026E8230F0296A11DB11D20937E068093E1
:104130007F0690938006A0938106B09382068091BB
:10414000830690918406A0918506B091860601961B
:10415000A11DB11D8093830690938406A0938506CC
:10416000B0938606BF91AF919F918F913F912F9110
:104170000F900FBE0F901F9018952FB7F894609175
:104180007F067091800680918106909182062FBFF4
:1041900008953FB7F8948091830690918406A0918A
:1041A0008506B091860626B5A89B05C02F3F19F05D
:1041B0000196A11DB11D3FBF6627782F892F9A2F29
:1041C000620F711D811D911D42E0660F771F881FD0
:1041D000991F4A95D1F708958F929F92AF92BF92FF
:1041E000CF92DF92EF92FF926B017C010E94C92077
:1041F0004B015C01C114D104E104F104F1F00E940F
:104200007F260E94C920681979098A099B09683E9E
:1042100073408105910570F321E0C21AD108E108CD
:10422000F10888EE880E83E0981EA11CB11CC11411
:10423000D104E104F10429F7DDCFFF90EF90DF9086
:10424000CF90BF90AF909F908F900895823091054E
:1042500038F0880F991F880F991F05970197F1F77C
:104260000895789484B5826084BD84B5816084BDEE
:1042700085B5826085BD85B5816085BDEEE6F0E0DF
:10428000808181608083E1E8F0E01082808182603B
:104290008083808181608083E0E8F0E080818160BC
:1042A0008083E1EBF0E0808184608083E0EBF0E0EC
:1042B000808181608083EAE7F0E080818460808390
:1042C000808182608083808181608083808180683A
:1042D00080831092C10008958E3008F08E50877050
:1042E0002091430190E4299F90011124822B809317
:1042F0007C0080917A00806480937A0080917A00BB
:1043000086FDFCCF809178002091790090E0922B7F
:1043100008951F93CF93DF93182FEB0161E00E9464
:104320001122209711F460E004C0CF3FD10539F489
:1043300061E0812FDF91CF911F910C944A22E12FF0
:10434000F0E0EC58FE4FE491E330F9F048F4E1304E
:10435000B9F0E230A1F584B5806284BDC8BD34C037
:10436000E730E9F0E83019F1E43049F58091800058
:10437000806280938000D0938B00C0938A0024C019
:1043800084B5806884BDC7BD1FC0809180008068EF
:1043900080938000D0938900C093880015C08091DD
:1043A000B00080688093B000C093B3000DC08091CE
:1043B000B00080628093B000C093B40005C0C038E4
:1043C000D1050CF0B5CFAFCFDF91CF911F910895FC
:1043D000833081F028F4813099F08230A1F0089583
:1043E0008730A9F08830B9F08430D1F48091800012
:1043F0008F7D03C0809180008F7780938000089527
:1044000084B58F7702C084B58F7D84BD0895809177
:10441000B0008F7703C08091B0008F7D8093B00093
:104420000895CF93DF9390E0FC01E857FE4F24916D
:10443000FC01E456FE4F8491882349F190E0880FF7
:10444000991FFC01EC53FE4FA591B49186549E4FE9
:10445000FC01C591D4919FB7611108C0F8948C916B
:10446000209582238C93888182230AC0623051F484
:10447000F8948C91322F309583238C938881822BF2
:10448000888304C0F8948C91822B8C939FBFDF911A
:10449000CF9108950F931F93CF93DF931F92CDB7C2
:1044A000DEB7282F30E0F901EC58FE4F8491F90176
:1044B000E857FE4F1491F901E456FE4F0491002392
:1044C000C9F0882321F069830E94E8216981E02FE7
:1044D000F0E0EE0FFF1FE654FE4FA591B4919FB799
:1044E000F8948C91611103C01095812301C0812B38
:1044F0008C939FBF0F90DF91CF911F910F910895E3
:10450000CF93DF93282F30E0F901EC58FE4F8491D0
:10451000F901E857FE4FD491F901E456FE4FC491DA
:10452000CC2391F081110E94E821EC2FF0E0EE0FF6
:10453000FF1FE055FE4FA591B4912C912D2381E0F2
:1045400090E021F480E002C080E090E0DF91CF9124
:1045500008950F931F93762F90E0FC01E857FE4FCC
:104560006491FC01E456FE4FE4917111762FF0E066
:10457000EE0FFF1FE055FE4F8591949189019A013E
:104580003F70472F0E941701611571058105910544
:1045900031F06F5F7F4F8F4F9F4F9F7003C060E080
:1045A00070E0CB011F910F910895FC01818D228D48
:1045B00090E0805C9F4F821B91098F73992708952B
:1045C000FC01918D828D981731F0828DE80FF11DDD
:1045D000858D90E008958FEF9FEF0895FC01918DF8
:1045E000828D981761F0828DDF01A80FB11D5D9655
:1045F0008C91928D9F5F9F73928F90E008958FEFC3
:104600009FEF089584E994E2892B49F080E090E0DF
:10461000892B29F00E94942481110C9400000895A4
:10462000FC01848DDF01A80FB11DA35ABF4F2C914F
:10463000848D90E001968F739927848FA689B7891E
:104640002C93A089B1898C9180648C93938D848DF7
:10465000981306C00288F389E02D80818F7D8083C6
:104660000895CF93DF93EC01888D8823C9F0EA8900
:10467000FB89808185FD05C0A889B9898C9186FD5B
:104680000FC00FB607FCF5CF808185FFF2CFA88958
:10469000B9898C9185FFEDCFCE010E941023E7CF21
:1046A000DF91CF910895CF92DF92FF920F931F93E6
:1046B000CF93DF931F92CDB7DEB76C0181E0D601B7
:1046C00058968C9358975B969C915B975C968C91CF
:1046D0005C97981307C05096ED91FC91519780819B
:1046E00085FD2EC0F601038D10E00F5F1F4F0F7385
:1046F0001127F02EF601848DF81211C00FB607FCB9
:10470000F9CFD6015096ED91FC915197808185FFAC
:10471000F1CFC60169830E9410236981EBCF838D9D
:10472000E80FF11DE35AFF4F6083D6015B960C93AF
:104730005B975296ED91FC915397808180620CC0FB
:10474000D6015696ED91FC91579760835096ED9166
:10475000FC91519780818064808381E090E00F908C
:10476000DF91CF911F910F91FF90DF90CF9008952F
:10477000BF92CF92DF92EF92FF92CF93DF93EC0143
:104780006A017B01B22EE889F98982E080834115B4
:1047900081EE580761057105A1F060E079E08DE3D5
:1047A00090E0A70196010E94892A21503109410910
:1047B00051095695479537952795211580E138077A
:1047C00098F0E889F989108260E874E88EE190E059
:1047D000A70196010E94892A2150310941095109F6
:1047E0005695479537952795EC85FD853083EE8561
:1047F000FF852083188EEC89FD89B082EA89FB89C8
:10480000808180618083EA89FB89808188608083E0
:10481000EA89FB89808180688083EA89FB898081BD
:104820008F7D8083DF91CF91FF90EF90DF90CF90CD
:10483000BF900895CF93DF93EC01E881F981028462
:10484000F385E02D0995EA89FB8980818F7E80833D
:10485000EA89FB898081877F8083EA89FB8980815F
:104860008F778083EA89FB8980818F7D80838A8D21
:10487000898FDF91CF9108951F920F920FB60F92FB
:1048800011242F938F939F93EF93FF93E0919706BB
:10489000F09198068081E0919D06F0919E0682FD40
:1048A00012C090818091A0068F5F8F732091A10626
:1048B000821751F0E091A006F0E0E957F94F958F8B
:1048C0008093A00601C08081FF91EF919F918F910D
:1048D0002F910F900FBE0F901F9018951F920F925F
:1048E0000FB60F9211242F933F934F935F936F93C3
:1048F0007F938F939F93AF93BF93EF93FF9387E83B
:1049000096E00E941023FF91EF91BF91AF919F918C
:104910008F917F916F915F914F913F912F910F9068
:104920000FBE0F901F90189587E896E00E94D52241
:1049300021E0892B09F420E0822F089510928A0645
:104940001092890688EE93E0A0E0B0E080938B0699
:1049500090938C06A0938D06B0938E0688EC91E020
:10496000909388068093870685EC90E09093940658
:104970008093930684EC90E090939606809395063E
:1049800080EC90E0909398068093970681EC90E0FD
:1049900090939A068093990682EC90E090939C06FF
:1049A00080939B0686EC90E090939E0680939D06F4
:1049B0001092A0061092A1061092A2061092A306D1
:1049C0000895CF92DF92EF92FF920F931F93CF93B0
:1049D000DF937C016A01EB0100E010E00C151D057E
:1049E00071F06991D701ED91FC910190F081E02D7A
:1049F000C7010995892B19F00F5F1F4FEFCFC80131
:104A0000DF91CF911F910F91FF90EF90DF90CF90AA
:104A100008956115710581F0DB010D900020E9F723
:104A2000AD0141505109461B570BDC01ED91FC9142
:104A30000280F381E02D099480E090E00895DC018C
:104A4000ED91FC91DB0114964D915C9115976D9160
:104A50007C910280F381E02D09940C94092564ED8A
:104A600071E00C9409250F931F93CF93DF93EC0112
:104A70000E941F258C01CE010E942F25800F911FBF
:104A8000DF91CF911F910F910895611571058105F7
:104A9000910511F00C946D2C0895CF93DF9300D005
:104AA00000D0CDB7DEB79B01AC0161157105810562
:104AB000910569F069833A834B835C830E94682C7B
:104AC00029813A814B815C810E94AB2A03C060E05E
:104AD00070E0CB010F900F900F900F90DF91CF916E
:104AE00008954F925F926F927F92AF92BF92CF9252
:104AF000DF92EF92FF920F931F93CF93DF93CDB787
:104B0000DEB729013A01621B730B840B950B2989CF
:104B10003A894B895C892A193B094C095D09298B23
:104B20003A8B4B8B5C8B9B01AC0169897A898B89B1
:104B30009C890E94452AE418F50806091709A8016E
:104B400097010E94AB2A2A0D3B1D4C1D5D1DCA0119
:104B5000B901DF91CF911F910F91FF90EF90DF90FE
:104B6000CF90BF90AF907F906F905F904F900895DF
:104B7000FC01808191810C948A2BCF93DF93EC010F
:104B800088819981009711F00E948A2B19821882DE
:104B90001D821C821B821A82DF91CF9108950F9390
:104BA0001F93CF93DF93EC018B016F5F7F4F888161
:104BB00099810E94762C009731F0998388831B831A
:104BC0000A8381E001C080E0DF91CF911F910F91B6
:104BD0000895CF93DF93EC0188819981892B29F087
:104BE0008A819B818617970760F4CE010E94CF25AA
:104BF000882341F08C819D81892B19F4E881F9810A
:104C0000108281E0DF91CF910895EF92FF920F9390
:104C10001F93CF93DF93EC017B018A01BA010E94BD
:104C2000E925811104C0CE010E94BD2507C01D8366
:104C30000C83B701888199810E94492DCE01DF91B3
:104C4000CF911F910F91FF90EF900895FC01118279
:104C5000108213821282158214826115710559F037
:104C6000FB0101900020E9F7AF0141505109461BBB
:104C7000570B0C9405260895CF93DF93EC01FB01AD
:104C80008617970761F0608171816115710529F0C0
:104C9000448155810E94052602C00E94BD25CE0197
:104CA000DF91CF910895FC0111821082138212824C
:104CB000158214820C943C26FC01248135816217F4
:104CC000730748F480819181009729F0FC01E60F79
:104CD000F71F8081089580E008950C945C26089564
:104CE0000E9431210E946F260E940707C2E0D3E292
:104CF0000E94070B2097E1F30E940223F9CF089549
:104D00005058BB27AA270ED0D6C1C7D130F0CCD17E
:104D100020F031F49F3F11F41EF497C10EF4E0959A
:104D2000E7FB64C1E92FD8D180F3BA176207730794
:104D30008407950718F071F49EF507C20EF4E0950C
:104D40000B2EBA2FA02D0B01B90190010C01CA0145
:104D5000A0011124FF27591B99F0593F50F4503EF0
:104D600068F11A16F040A22F232F342F4427585FE2
:104D7000F3CF469537952795A795F0405395C9F7FA
:104D80007EF41F16BA0B620B730B840BBAF09150B2
:104D9000A1F0FF0FBB1F661F771F881FC2F70EC051
:104DA000BA0F621F731F841F48F487957795679524
:104DB000B795F7959E3F08F0B3CF9395880F08F00D
:104DC0009927EE0F979587950895ECD008F481E028
:104DD00008950CD070C168D140F05FD130F021F45B
:104DE0005F3F19F003C15111B1C12FC175D198F3C3
:104DF0009923C9F35523B1F3951B550BBB27AA275C
:104E000062177307840738F09F5F5F4F220F331FCD
:104E1000441FAA1FA9F333D00E2E3AF0E0E830D099
:104E200091505040E695001CCAF729D0FE2F27D09C
:104E3000660F771F881FBB1F261737074807AB076A
:104E4000B0E809F0BB0B802DBF01FF2793585F4FDF
:104E50002AF09E3F510568F0C9C078C15F3FECF36E
:104E6000983EDCF3869577956795B795F7959F5FA4
:104E7000C9F7880F911D9695879597F90895E1E0F8
:104E8000660F771F881FBB1F621773078407BA0757
:104E900020F0621B730B840BBA0BEE1F88F7E095B2
:104EA000089504D06894B11151C108951DD188F0BE
:104EB0009F5790F0B92F9927B751A0F0D1F0660F06
:104EC000771F881F991F1AF0BA95C9F712C0B13021
:104ED00081F03BD1B1E0089538C1672F782F882742
:104EE000B85F39F0B93FCCF3869577956795B39560
:104EF000D9F73EF490958095709561957F4F8F4FCF
:104F00009F4F0895E89409C097FB3EF490958095D3
:104F1000709561957F4F8F4F9F4F9923A9F0F92F7F
:104F200096E9BB279395F695879577956795B795FD
:104F3000F111F8CFFAF4BB0F11F460FF1BC06F5FE3
:104F40007F4F8F4F9F4F16C0882311F096E911C0F5
:104F5000772321F09EE8872F762F05C0662371F016
:104F600096E8862F70E060E02AF09A95660F771F2A
:104F7000881FDAF7880F9695879597F90895CED010
:104F800080F09F3740F491110EF0E0C060E070E0D7
:104F900080E89FEB089526F41B16611D711D811D8D
:104FA0002BC045C0990F0008550FAA0BE0E8FEEF93
:104FB00016161706E807F907C0F012161306E407DD
:104FC000F50798F0621B730B840B950B39F40A26D6
:104FD00061F0232B242B252B21F408950A2609F4B4
:104FE000A140A6958FEF811D811D089597F99F67B8
:104FF00080E870E060E00895882371F4772321F061
:105000009850872B762F07C0662311F499270DC07F
:105010009051862B70E060E02AF09A95660F771F1A
:10502000881FDAF7880F9695879597F908959F3F1F
:1050300031F0915020F4879577956795B795880F53
:10504000911D9695879597F908959FEF80EC0895A7
:10505000DF93CF931F930F93FF92EF92DF927B0129
:105060008C01689405C0DA2EEF01D2D0FE01E894DD
:10507000A5912591359145915591AEF3EF0152DE01
:10508000FE019701A801DA9479F7DF90EF90FF9085
:105090000F911F91CF91DF91089500240A94161665
:1050A000170618060906089500240A941216130616
:1050B000140605060895092E0394000C11F48823A4
:1050C00052F0BB0F40F4BF2B11F460FF04C06F5FC0
:1050D0007F4F8F4F9F4F089557FD9058440F551F96
:1050E00059F05F3F71F04795880F97FB991F61F06A
:1050F0009F3F79F087950895121613061406551FE1
:10510000F2CF4695F1DF08C0161617061806991F4C
:10511000F1CF86957105610508940895E5DFA0F04B
:10512000BEE7B91788F4BB279F3860F41616B11D87
:10513000672F782F8827985FF7CF869577956795A3
:10514000B11D93959639C8F30895E894BB27662757
:105150007727CB0197F9089525DF08F48FEF08959D
:105160009B01AC0160E070E080E89FE332CE0EF07E
:105170005ECF6BCF68943ACFB7DFC8F39923D1F3F2
:10518000C6F3DF93CF931F930F93FF92C92FDD27B1
:1051900088232AF02197660F771F881FDAF720E00F
:1051A00030E040E85FEB9FE3883920F0803E30F04C
:1051B00021968F77A6DDE0EDF0E003C0A2DDEDEFF4
:1051C000F0E046DF8B01BE01EC01FB2E6F57710949
:1051D0007595771F880B990B97DE28E132E741E33D
:1051E0005FE316D0AF2D9801AE01FF900F911F9194
:1051F000CF91DF9197DD5FCF0BD05DCF4EDF28F0F1
:1052000053DF18F0952309F0F1CE1FCF11249ECF64
:1052100063DFA0F3959FD1F3950F50E0551F629F78
:10522000F001729FBB27F00DB11D639FAA27F00DFF
:10523000B11DAA1F649F6627B00DA11D661F829F26
:105240002227B00DA11D621F739FB00DA11D621F0B
:10525000839FA00D611D221F749F3327A00D611D28
:10526000231F849F600D211D822F762F6A2F11240A
:105270009F5750408AF0E1F088234AF0EE0FFF1F5D
:10528000BB1F661F771F881F91505040A9F79E3F94
:10529000510570F0ABCE5ACF5F3FECF3983EDCF394
:1052A000869577956795B795F795E7959F5FC1F7D1
:1052B000FE2B880F911D9695879597F90895FA0111
:1052C000EE0FFF1F30962105310599F1611571052B
:1052D00061F48038BFE39B0749F1689490388105F9
:1052E00061F08038BFEF9B0741F0992342F5FF3F03
:1052F000E1053105210511F1E8940894E795D901FC
:10530000AA2329F4AB2FBE2FF85FD0F310C0FF5FA4
:1053100070F4A695E0F7F73950F019F0FF3A38F439
:105320009F779F930CD00F9007FC905808953EF004
:105330008CCE60E070E080E89FE308954FE79F77B0
:105340005F934F933F932F9317DF2F913F914F918F
:105350005F9152DF05C019F40EF048CEF6CE75CE3F
:10536000C3DEC8F39638C0F707F80F92E8942BE332
:105370003AEA48EB5FE74EDF0F920F920F924DB77C
:105380005EB70F924FD0EAE2F1E062DE4F915F919B
:10539000EF91FF91E595EE1FFF1F49F0FE57E06882
:1053A0004427EE0F441FFA95E1F74195550B06D0BF
:1053B0000F9007FED5CE089519CE39CE95DEE8F3CD
:1053C0009923D9F3940F511DBBF39150504094F0A1
:1053D00059F0882332F0660F771F881F9150504094
:1053E000C1F79E3F510544F7880F911D969587950B
:1053F00097F908955F3FACF0983E9CF0BB278695E7
:1054000077956795B79508F4B1609395C1F7BB0F91
:1054100058F711F460FFE8CF6F5F7F4F8F4F9F4FBA
:10542000E3CF94CEFA01DC01AA0FBB1F9B01AC01B4
:10543000BF5728F422273327442750781FC0B7517D
:1054400088F4AB2F0024469537952795011CA3952A
:10545000D2F3002069F0220F331F441FB395DAF313
:105460000DD04ECC61307105A0E88A07B94630F402
:105470009B01AC016627772788279078309621F02A
:1054800020833183428353830895DB018F939F935D
:105490000E94DF2ABF91AF91A29F800D911DA39F13
:1054A000900DB29F900D11240895991B79E004C0CE
:1054B000991F961708F0961B881F7A95C9F7809553
:1054C0000895AA1BBB1B51E107C0AA1FBB1FA6174B
:1054D000B70710F0A61BB70B881F991F5A95A9F79D
:1054E00080959095BC01CD01089597FB072E16F489
:1054F000009407D077FD09D00E94612A07FC05D0EF
:105500003EF4909581959F4F0895709561957F4FDA
:105510000895A1E21A2EAA1BBB1BFD010DC0AA1FF4
:10552000BB1FEE1FFF1FA217B307E407F50720F00C
:10553000A21BB30BE40BF50B661F771F881F991F87
:105540001A9469F760957095809590959B01AC01D0
:10555000BD01CF010895052E97FB1EF400940E9413
:10556000C22A57FD07D00E94892A07FC03D04EF4B7
:105570000C94C22A50954095309521953F4F4F4F3E
:105580005F4F089590958095709561957F4F8F4FEF
:105590009F4F0895EE0FFF1F0590F491E02D0994A1
:1055A000A29FB001B39FC001A39F700D811D112464
:1055B000911DB29F700D811D1124911D08950E94AF
:1055C000D02AA59F900DB49F900DA49F800D911D92
:1055D00011240895B7FF0C94DF2A0E94DF2A821B52
:1055E000930B0895CF93DF938230910510F482E0FE
:1055F00090E0E0912607F091270720E030E0A0E05E
:10560000B0E0309739F14081518148175907B8F01F
:105610004817590771F482819381109729F01396E6
:105620009C938E9312972CC0909327078093260704
:1056300027C02115310531F04217530718F0A90191
:10564000DB0101C0EF019A01BD01DF010280F3819E
:10565000E02DD7CF21153105F9F0281B390B243067
:10566000310580F48A819B816115710521F0FB0170
:105670009383828304C09093270780932607FE01BB
:10568000329644C0FE01E20FF31F819391932250A2
:105690003109398328833AC02091240730912507A6
:1056A000232B41F42091020130910301309325070F
:1056B000209324072091000130910101211531052B
:1056C00041F42DB73EB74091040150910501241BD0
:1056D000350BE0912407F0912507E217F307A0F4BA
:1056E0002E1B3F0B2817390778F0AC014E5F5F4F38
:1056F0002417350748F04E0F5F1F5093250740933E
:1057000024078193919302C0E0E0F0E0CF01DF91A4
:10571000CF910895CF93DF93009709F487C0FC01E0
:10572000329713821282C0912607D09127072097C3
:1057300081F420813181280F391F809124079091B5
:1057400025078217930779F5F0932507E09324073F
:105750006DC0DE0120E030E0AE17BF0750F41296B6
:105760004D915C9113979D014115510509F1DA01A5
:10577000F3CFB383A28340815181840F951F8A1791
:105780009B0771F48D919C911197840F951F029640
:105790009183808312968D919C911397938382833A
:1057A0002115310529F4F0932707E09326073EC021
:1057B000D9011396FC93EE9312974D915D91A40F2E
:1057C000B51FEA17FB0779F480819181840F951F3B
:1057D0000296D90111969C938E93828193811396A0
:1057E0009C938E931297E0E0F0E08A819B81009772
:1057F00019F0FE01EC01F9CFCE0102962881398122
:10580000820F931F2091240730912507281739070D
:1058100069F4309729F4109227071092260702C0E6
:1058200013821282D0932507C0932407DF91CF9172
:1058300008958F929F92AF92BF92CF92DF92EF9294
:10584000FF92CF93DF93EC01688179818A819B81FC
:10585000611571058105910521F464E279ED8BE50F
:1058600097E02DE133EF41E050E00E94AB2A49017F
:105870005A019B01AC01A7EAB1E40E94DF2A6B0147
:105880007C01ACEEB4EFA50194010E94ED2AC60E96
:10589000D71EE81EF91EF7FE06C081E0C81AD1081F
:1058A000E10880E8F80AC882D982EA82FB82C7014F
:1058B000B6019F77DF91CF91FF90EF90DF90CF906F
:1058C000BF90AF909F908F9008950E94192C0895DB
:1058D00086E091E00E94192C089560930601709370
:1058E000070180930801909309010895A0E0B0E0BA
:1058F000ECE7FCE20C94812DEC01CB01209719F42C
:105900000E94F22AB8C0FE01E60FF71F9E01225046
:105910003109E217F30708F4ACC0D9010D911C91CD
:10592000119706171707B8F00530110508F49FC046
:10593000A801445051094617570708F498C002506F
:105940001109061B170B019311936D937C93CF01E3
:105950000E948A2B8CC05B01A01AB10A4E01800EF6
:10596000911EA0912607B0912707612C712C60E051
:1059700070E0109709F449C0A815B905C9F5ED9074
:10598000FC901197670142E0C40ED11CCA14DB04DD
:1059900078F147018A189B08640142E0C40ED11CCB
:1059A0001296BC9012971396AC91B5E0CB16D10429
:1059B00040F0B282A38391828082D9018D939C931F
:1059C00009C00E5F1F4F0E0D1F1DF90111830083CB
:1059D000EB2DFA2F6115710531F0DB011396FC9365
:1059E000EE93129744C0F0932707E09326073FC039
:1059F0006D917C9111976616770608F43B01BD0105
:105A000012960D90BC91A02DB4CF60912407709197
:105A1000250768157905E9F468167906D0F44091F0
:105A20000001509101014115510541F44DB75EB798
:105A30006091040170910501461B570BE417F507AF
:105A4000C0F4F0932507E0932407F9019183808344
:105A50000EC00E94F22A7C01009759F0A801BE01F5
:105A60000E94402DCE010E948A2BC70104C0CE01A6
:105A700002C080E090E0CDB7DEB7EEE00C949D2D43
:105A8000FB01DC0102C001900D9241505040D8F75B
:105A90000895FB01DC0101900D920020E1F70895CB
:105AA0000F931F93CF93DF93E0912A07F0912B0779
:105AB000238121FF1BC0EC0100E010E0899160917F
:105AC0002A0770912B07DB011896ED91FC9119972D
:105AD000882331F00995892B89F30FEF1FEFEECF63
