:100000000C9404010C942C010C942C010C94B60E4D
:100010000C94B60E0C94B60E0C942C010C94B91ED4
:100020000C942C010C942C010C942C010C94F427AE
:100030000C942C010C942C010C942C010C942C018C
:100040000C94F7290C942C010C94A82D0C94DA2D07
:100050000C942C010C942C010C942C010C942C016C
:100060000C94960C0C942C010809420760077A073F
:100070007A079307E2087A07C209C209C209C209CE
:10008000C209C209C209F107AC070C08C209C209BA
:10009000C2093D089A097A089708B908C209C20935
:1000A000C209C20917091F09C209C209C209C20946
:1000B0004B093409C209C209C209C209C209C209ED
:1000C000C209C209C209C209C209C2097D09880957
:1000D000084AD73B3BCE016E84BCBFFDC12F3D6CAF
:1000E00074319ABD56833DDA3D00C77F11BED9E415
:1000F000BB4C3E916BAAAABE000000803F080000E6
:1001000000BE922449123EABAAAA2ABECDCCCC4C4A
:100110003E00000080BEABAAAAAA3E00000000BFBD
:10012000000000803F0000000000084178D3BB437E
:1001300087D1133D190E3CC3BD4282AD2B3E68EC06
:100140008276BED98FE1A93E4C80EFFFBE01C4FF8D
:100150007F3F000000000007634236B79BD8A71A14
:1001600039685618AEBAAB558C1D3CB7CC5763BD39
:100170006DEDFD753EF6177231BF000000803F0047
:100180003F065B4F666D7D077F6F777C395E7971C7
:10019000BF86DBCFE6EDFD87FFEFF7FCB9DEF9F1B7
:1001A00000400000000800020100000304070000F6
:1001B000000000000000010204081020408001023D
:1001C000040810200102040810200404040404049C
:1001D00004040202020202020303030303030000F9
:1001E0000000230026002900000000002500280050
:1001F0002B0000000000240027002A002E06B40B6C
:100200006C140A2E8A06701411241FBECFEFD8E09A
:10021000DEBFCDBF11E0A0E0B1E0ECE9FEE602C038
:1002200005900D92AE3DB107D9F727E0AEEDB1E0F4
:1002300001C01D92A633B207E1F711E0C4E0D2E09D
:1002400004C02297FE010E94BE34CC3FD107C9F7FB
:100250000E944E2E0C9441370C940000CF92DF92F6
:10026000EF92FF920F931F93E82FF92F05C00150D3
:1002700011092109310961F1908196239417B9F38D
:1002800005C0015011092109310911F1908196230E
:100290009413F7CFC12CD12CE12CF12C0AC08FEF95
:1002A000C81AD80AE80AF80A0C151D052E053F05DC
:1002B00079F080818623841791F36C2D7D2D8E2D0E
:1002C0009F2D1F910F91FF90EF90DF90CF90089599
:1002D00060E070E080E090E01F910F91FF90EF9060
:1002E000DF90CF900895CF93DF93CDB7DEB72A97F5
:1002F0000FB6F894DEBF0FBECDBF61E08DE00E9467
:10030000832B61E08DE00E94BC2B6CE271E080E009
:1003100090E00E94702A60E08DE00E94BC2B26E0F5
:1003200040E052EC61E070E08FE896E00E942A2DF8
:1003300064EF71E080E090E00E94702A61E083E168
:100340000E94832B61E083E10E94BC2B64E670E095
:1003500080E090E00E94702A61E083E10E94832B9C
:1003600060E083E10E94BC2B61E0CE0101960E9417
:1003700050148AE0FE013196AEE6B2E001900D9293
:100380008A95E1F762E0CE0101960E9450148AE05E
:10039000FE013196A8E7B2E001900D928A95E1F74F
:1003A0008EE692E00E94311588E792E00E943115B6
:1003B00064EF71E080E090E00E94702A40E050E03D
:1003C000BA018EE692E00E943D1540E050E0BA018D
:1003D00088E792E00E943D158AE293E00E94571A56
:1003E0006DE371E08FE896E00E94AD2E68E672E062
:1003F0008FE896E00E94B32E2A960FB6F894DEBFDF
:100400000FBECDBFDF91CF91089520916602FC0110
:10041000222319F0E250FE4F02C0EE5CFD4F8081B6
:10042000089520916602FC01222319F0E250FE4F4C
:1004300002C0EE5CFD4F608308958FE896E00C9457
:10044000AF2ECF93DF93EC010E94050280938202CE
:10045000CE0101960E940502809383028091820260
:1004600090918302DF91CF9108950F931F93CF93C3
:10047000DF93EC010E94050204E812E0F80180839A
:10048000CE0101960E94050280938502CE0102965C
:100490000E94050280938602CE0103960E94050207
:1004A00080938702F8016081718182819381DF915D
:1004B000CF911F910F910895CF93DF93EC010E948C
:1004C000050280938402CE0101960E94050280936A
:1004D0008502CE0102960E94050280938602CE011B
:1004E00003960E94050280938702609184027091B6
:1004F00085028091860290918702DF91CF910895C5
:10050000E9EEF1E020E030E04191519148175907C0
:1005100091F0452B41F4F901EE0FFF1FE751FE4F1B
:100520009183808308C02F5F3F4F2830310561F7EA
:1005300080E090E00895C9010895AF92BF92CF92F4
:10054000DF92EF92FF920F931F93CF93DF93CDB77C
:10055000DEB7E5970FB6F894DEBF0FBECDBF8C01B6
:1005600086E090E00E940502F82EA82EB12C0C30F7
:10057000110509F4DFC14CF50830110509F412C268
:10058000F4F40330110509F49CC20530110509F09B
:1005900054C386E090E00E9421028C0169E08BEA5E
:1005A00093E00E948513B8018BEA93E00E949113B7
:1005B00088E090E00E9421028C016AE02AC00A30A3
:1005C000110509F10CF464C22DC20132110509F4C0
:1005D000F1C26CF40E31110509F4B2C200321105FA
:1005E00009F4BAC20431110509F027C381C20832E7
:1005F0001105C9F00233110509F405C302321105D2
:1006000009F01BC3B6C287E090E00E9421028C0172
:100610006F2D8BEA93E00E948513B8018BEA93E07B
:100620000E9491130AC387E090E00E9421028C018E
:1006300089E090E00E945C026B017C0181E0A816D9
:10064000B10409F0B8C061E0CE0101960E94A9236F
:100650008B819C81AD81BE818093BE029093BF024D
:10066000A093C002B093C1028F818093C20288859B
:100670009985AA85BB858093C3029093C402A093F9
:10068000C502B093C6028C859D85AE85BF858093DB
:10069000C7029093C802A093C902B093CA02888986
:1006A0009989AA89BB898093CB029093CC02A093AD
:1006B000CD02B093CE028C899D89AE89BF8980938B
:1006C000CF029093D002A093D102B093D202888D32
:1006D000998DAA8DBB8D8093D3029093D402A09361
:1006E000D502B093D6028C8D9D8DAE8DBF8D80933B
:1006F000D7029093D802A093D902B093DA0288A1CE
:1007000099A1AAA1BBA18093DB029093DC02A093E4
:10071000DD02B093DE028CA19DA1AEA1BFA18093AA
:10072000DF029093E002A093E102B093E20288A579
:1007300099A5AAA5BBA58093E3029093E402A09398
:10074000E502B093E6028CA59DA5AEA5BFA580935A
:10075000E7029093E802A093E902B093EA0288A925
:1007600099A9AAA9BBA98093EB029093EC02A0934C
:10077000ED02B093EE028CA98093EF028DA98093D5
:10078000F002B701A6018CEB92E00E94AD25B80102
:10079000882777FD8095982F0E942A316B017C0174
:1007A000AB01BC018CEB92E00E94C425B701A6010D
:1007B0008CEB92E0BCC082E0A816B10409F03DC207
:1007C00062E0CE0101960E94A9238B819C81AD81BC
:1007D000BE818093F3029093F402A093F502B0934C
:1007E000F6028F818093F70288859985AA85BB855B
:1007F0008093F8029093F902A093FA02B093FB025F
:100800008C859D85AE85BF858093FC029093FD020B
:10081000A093FE02B093FF0288899989AA89BB89B7
:100820008093000390930103A0930203B09303030A
:100830008C899D89AE89BF898093040390930503B9
:10084000A0930603B0930703888D998DAA8DBB8D65
:100850008093080390930903A0930A03B0930B03BA
:100860008C8D9D8DAE8DBF8D80930C0390930D0369
:10087000A0930E03B0930F0388A199A1AAA1BBA1D5
:100880008093100390931103A0931203B09313036A
:100890008CA19DA1AEA1BFA18093140390931503D9
:1008A000A0931603B093170388A599A5AAA5BBA585
:1008B0008093180390931903A0931A03B0931B031A
:1008C0008CA59DA5AEA5BFA580931C0390931D0389
:1008D000A0931E03B0931F0388A999A9AAA9BBA935
:1008E0008093200390932103A0932203B0932303CA
:1008F0008CA9809324038DA980932503B701A601B9
:1009000081EF92E00E94AD25B801882777FD8095A0
:10091000982F0E942A316B017C01AB01BC0181EF51
:1009200092E00E94C425B701A60181EF92E00E94E7
:100930001F2683C187E090E00E940502A82EB12CFB
:1009400088E090E00E9421028C018AE090E00E9401
:1009500035026B017C0181E0A816B10471F4B80185
:10096000882777FD8095982F0E942A318B019C0162
:10097000B701A6018EE692E012C082E0A816B1048B
:1009800009F05BC1B801882777FD8095982F0E94F8
:100990002A318B019C01B701A60188E792E00E94F1
:1009A000D2154BC187E090E00E940502C82E88E076
:1009B00090E00E940502D82E89E090E00E94050296
:1009C000182F8AE090E00E940502E82E8BE090E06C
:1009D0000E940502082F8BE893E00E94E820E82F90
:1009E000F0E0EA15FB0509F021C18BE893E00E94D5
:1009F000EB208C111BC1DD2049F06FEF6D0D2E2D0A
:100A0000412F8BE893E00E94AB2107C0202F4E2D91
:100A1000612F8BE893E00E9435228BE893E00E94DF
:100A200062220BC187E090E00E9405029501220F2F
:100A3000331FF901E65EFE4F813011F4008101C0E1
:100A4000018110E088E090E00E940502F82EC801C4
:100A50000E948002FC01EE0FFF1FE80FF91FED540A
:100A6000FC4F20813181428129833A834B8384EB7F
:100A70008F1508F4E2C0CE0101960E94E829811189
:100A800005C0B801CE0101960E944A296F2DB5C05C
:100A900083E793E00E94E820282F30E02A153B05E9
:100AA00029F06F2D83E793E00E94761287E090E0B3
:100AB0000E943502AB01BC0183E793E00E949812CB
:100AC000BCC08FE693E00E94E820282F30E02A1572
:100AD0003B0529F06F2D8FE693E00E944C2187E0C3
:100AE00090E00E94050261E081111BC060E019C026
:100AF0008FE693E00E94E820282F30E02A153B057E
:100B000029F06F2D8FE693E00E944C2187E090E062
:100B10000E940502282F30E0223031053CF4682F76
:100B200061708FE693E00E94102187C061E022305F
:100B3000310509F460E08FE693E00E9420217DC03A
:100B400061E00E94832B87E090E00E940502682FFD
:100B50008F2D0E94BC2B71C061E00E94832B87E027
:100B600090E00E940502682F70E08F2D0E94FB2A02
:100B700064C061E00E94832B87E090E00E94210224
:100B80007C0189E090E00E9421021816190664F4A5
:100B90008C01222717FD2095322FA701B50188EB84
:100BA00092E00E940F1349C0B50188EB92E00E94C9
:100BB000771343C087E090E00E940502182FC5011B
:100BC0000E948002FC01EE0FFF1FE80FF91FED5499
:100BD000FC4F20813181428129833A834B83153B2D
:100BE00060F5CE0101960E94E829811105C0B5018A
:100BF000CE0101960E944A29612F70E0CE01019634
:100C00000E9483291AC00E94412A0E94283120E0B4
:100C100030E04AE754E40E948F306093E40170931F
:100C2000E5018093E6019093E70107C04C2D6F2DFD
:100C30008BE893E00E94FC21DECEE5960FB6F89497
:100C4000DEBF0FBECDBFDF91CF911F910F91FF90FF
:100C5000EF90DF90CF90BF90AF900895CF93DF9348
:100C6000C3EBD3E0CE010E94B028239683E0CB3CB7
:100C7000D807C1F78BEA93E00E94821388E993E0DA
:100C80000E94BB268BE893E00E94A0218DE793E0B1
:100C90000E944D2783E793E00E94E0108FE693E0E7
:100CA0000E94CF208AE293E00E94BF1686E293E082
:100CB0000E946E1F8CEB92E00E949B2381EF92E0DA
:100CC0000E949B2388EB92E00E94091381EB92E043
:100CD0000E946C1D8BEA92E00E94951685EA92E0D4
:100CE0000E94AA168FE992E00E94472788E892E0C6
:100CF0000E9449108EE692E00E94601488E792E01C
:100D00000E94601467E471E088E692E0DF91CF9181
:100D10000C947A2F88E692E00E940C2F8BE893E0E7
:100D20000C947B22682F8FE896E00C94C52C8FEFF3
:100D30000E94920685E50C9492068FEF0E9492061F
:100D400085E50E9492060C941D02CF93C82F81E086
:100D50000E9492068C2FCF910C949206EF92FF92F4
:100D60000F931F93CF93DF937C01FC01C4810C2F61
:100D7000158184E00E9492068C2F0E949206C0E0AA
:100D8000D0E0C017D10744F4BE01C7010E94C12FB3
:100D90000E9492062196F5CFDF91CF911F910F917E
:100DA000FF90EF900895FF920F931F93CF93DF93DF
:100DB0001F92CDB7DEB78B01F82E82E099830E9497
:100DC0009206A8016F2D9981792F40938402509348
:100DD00085026093860270938702802F0E9492069C
:100DE000809185020E949206809186020E9492065E
:100DF000809187020F90DF91CF911F910F91FF900B
:100E00000C949206CF92DF92EF92FF926B017C01DD
:100E100083E00E949206C701B6010E94F730862F38
:100E2000262F372F30938302209382020E9492064E
:100E300080918302FF90EF90DF90CF900C94920608
:100E4000CF92DF92EF92FF920F931F93CF93DF9396
:100E5000CDB7DEB727970FB6F894DEBF0FBECDBF74
:100E60006C0186E090E00E940502182FE82EF12C1C
:100E700084E3C816D10408F085C2F601EC5CFF4F8C
:100E80000C94BC348DE793E00E94E82090E08E152E
:100E90009F0529F0612F8DE793E00E944C2160E9C6
:100EA00071E08DE793E00E94CD276B017C010E94E9
:100EB00097068091DE010E949206C701B60125C205
:100EC00087E090E00E940502082F88E993E00E94E5
:100ED000E820282F30E02E153F0509F045C288E9AB
:100EE00093E00E94EB2080133FC288E993E00E94C8
:100EF000D9260BC28FE693E00E94E82090E08E1581
:100F00009F0561F0612F8FE693E00E944C218FE6F0
:100F100093E00E94722160E00E94832B8FE693E0B1
:100F20000E943C2199C187E090E00E940502082FB1
:100F300086E293E00E94E820282F30E02E153F053E
:100F400029F0612F86E293E00E944C21602F86E217
:100F500093E00E94711F80C180916D0390916E0398
:100F60000097F1F04F960E94E82090E08E159F05C3
:100F700031F1E0906D03F0906E03E114F10481F023
:100F80008BEA91E0F70191838083C70182599F4FDB
:100F90000E940C2FC7010E94300FC7010E945F2ED4
:100FA0008BE790E00E945D2E7C01612F0E944F1E16
:100FB000F0926E03E0926D03C7010E94641E80915F
:100FC0006D0390916E030E948F1E682F8093FA012B
:100FD0008FEF860F8E3F08F487C060E070E0CB0192
:100FE00094C18FE693E00E94E82090E08E159F0563
:100FF00061F0612F8FE693E00E944C218FE693E031
:101000000E94722160E00E94832B60E08FE693E0F3
:101010000E94FF20682F68C08FE693E00E94E820BE
:1010200090E08E159F0599F0612F8FE693E00E9466
:101030004C218FE693E00E946F2160E00E94832B99
:101040008FE693E00E94722160E00E94832B60E0B3
:101050008FE693E00E94EE20182F60E08FE693E089
:101060000E94FF20612F70E0660F771F680F711DCF
:10107000882777FD8095982FF4C087E090E00E9444
:101080000502082FC82ED12C8FE693E00E94E8209D
:10109000282F30E02E153F0509F06DC18FE693E053
:1010A0000E94EB20282F30E02C153D0509F063C18C
:1010B0008FE693E0CA94CD2859F40E946F2162E034
:1010C0000E94832B60E08FE693E00E94EE200AC02E
:1010D0000E94722162E00E94832B60E08FE693E021
:1010E0000E94FF2061E0682770E080E090E00E94AD
:1010F00028310BC187E090E00E940502082F81EBA8
:1011000092E00E94E820282F30E02E153F0529F0BC
:10111000612F81EB92E00E944C2181EB92E00E94D2
:101120006F1D602F81EB92E00E94481E1AC18BEA6E
:1011300092E00E94E82090E08E159F05A9F0612FB3
:101140008BEA92E00E944C218BEA92E00E946F2190
:10115000482F8BEA92E04F830E9472214F81682FC3
:101160008BEA92E00E9498168BEA92E00E94A81601
:1011700021C085EA92E00E94E82090E08E159F054C
:10118000A9F0612F85EA92E00E944C2185EA92E065
:101190000E946F21482F85EA92E04F830E947221BE
:1011A0004F81682F85EA92E00E94AD1685EA92E0B1
:1011B0000E94BD16BC01882777FD8095982F0E945C
:1011C0002A3166C087E090E00E940502E82EF12CEB
:1011D0008AE293E00E94321781E0E816F10429F4D4
:1011E0008AE293E00E94CC1690C0E2E0EE16F10491
:1011F00029F48AE293E00E94D21687C0F3E0EF164A
:10120000F10409F0BFC08AE293E00E94D8167DC0C5
:1012100068E672E0CE0101960E94A72FCE010196EA
:101220000E94AE06CE0101960E940C2FABC060E07A
:10123000812F0E94832B812F0E94F22B0DC0F7017A
:10124000EE0FFF1FE65FFE4F108160E0812F0E94CE
:10125000832B812F0E94DE2ABC01882777FD809591
:10126000982F0E942A3151C087E090E00E9421020D
:101270007C0160E0812F0E94832B9701442737FD7A
:101280004095542F61E0812F0E941B2C0E94283131
:101290000E94020777C087E090E00E940502F82EC6
:1012A00061E0812F0E94832B60E0812F0E94BC2B84
:1012B00082E090E00E94982A61E0812F0E94BC2B7E
:1012C0008AE090E00E94982A60E0812F0E94BC2B67
:1012D00060E08F2D0E94832B20E335E740E050E053
:1012E00061E08F2D0E941B2C0E94283120E030E00D
:1012F00048E652E40E948F3008C06091E00170918E
:10130000E1018091E2019091E3010E94D3063AC08D
:101310008FE992E00E94E82090E08E159F0529F069
:10132000612F8FE992E00E944C218FE992E00E94A8
:101330004A2717C088E892E00E94E82090E08E15C6
:101340009F0529F0612F88E892E00E944C211091BE
:10135000DF0187E090E00E94050291E0181390E021
:10136000892F0E94A5060EC0402F612F88E993E0C7
:101370000E94C626BACD402F612F8FE693E00E94CF
:101380005C2196CE27960FB6F894DEBF0FBECDBF78
:10139000DF91CF911F910F91FF90EF90DF90CF9051
:1013A00008950F931F93CF93DF931092FB0183E077
:1013B00090E00E940502082F8093DE0184E090E017
:1013C0000E940502182F85E090E00E940502C82FB8
:1013D000D0E01230D9F018F4113039F05BC014307D
:1013E000C9F0153009F450C055C0C130D10529F0FD
:1013F0000E949706802F0E949206CE010E9420072D
:10140000DF91CF911F910F910C941D02CE010E948C
:101410009D023AC069E08BEA93E00E94851360E088
:1014200070E08BEA93E00E9491136AE08BEA93E00C
:101430000E94851360E070E08BEA93E00E949113B4
:1014400061E08BEA93E00E94851360E070E08BEA34
:1014500093E00E94911362E08BEA93E00E9485136F
:1014600060E070E08BEA93E00E94911340E050E06E
:10147000BA018EE692E00E943D1540E050E0BA01CC
:1014800088E792E00E943D15DF91CF911F910F9167
:101490000C949D06DF91CF911F910F9108951092AA
:1014A00067028FE896E00E94472C181619065CF434
:1014B00081E080936702109266028FE896E00E94B6
:1014C000602C8093F901089588E892E00E944B1007
:1014D0008093DF010E94412A0E94283120E030E001
:1014E0004AE754E40E948F302091E4013091E501F5
:1014F0004091E6015091E7010E94C42F6093E00102
:101500007093E1018093E2019093E30180916D0378
:1015100090916E03009711F00E94941E0E944F0A52
:101520008CEB92E00E94992681EF92E00E9499262E
:1015300080916702882309F445C06091F901809188
:10154000FB01653561F481110AC08091E8018F3F8C
:10155000D9F481E08093FD018093FB0115C0609375
:10156000E801882389F08091FD01823019F46093AD
:10157000FC0107C0833028F09091FC0191509093BA
:10158000FC0190E00E9411028091FD018F5F843385
:1015900018F48093FD0104C01092FD011092FB012C
:1015A0008091FB01882371F08091FC0181110AC0B8
:1015B0008091FD01843030F01092FB010E94D1092E
:1015C0001092FD0108958091FB0390E02091FC03AF
:1015D000821B910908952091FC038091FB03281739
:1015E00050F4E22FF0E0E350FC4F808190E02F5F59
:1015F0002093FC0308958FEF9FEF0895E091FC0383
:101600008091FB03E81730F4F0E0E350FC4F808159
:1016100090E008958FEF9FEF08950895CF92DF92A5
:10162000EF92FF920F931F93CF93DF937C01CB0137
:101630008A012091D703222389F0EB016B01C40EAC
:10164000D51ECC15DD0569F06991D701ED91FC91AE
:101650000190F081E02DC7010995F3CF642F0E941E
:101660006D0CC801DF91CF911F910F91FF90EF900A
:10167000DF90CF900895CF93DF931F92CDB7DEB761
:1016800069832091D7032223D1F02091D8032032FF
:1016900040F021E030E0FC013383228380E090E0E1
:1016A00015C08091D903E82FF0E0E652FC4F9981F4
:1016B00090838F5F8093D9038093D80305C061E046
:1016C000CE0101960E946D0C81E090E00F90DF91B9
:1016D000CF910895FC011382128248EE53E060E03E
:1016E00070E0448355836683778385E591E0918339
:1016F000808308951092FC031092FB031092D9038B
:101700001092D8030C94B80B862F413208F040E2B7
:101710006DEF73E00E94D60B1092FC038093FB03E5
:10172000089521E00C94840B81E08093D7036093AB
:10173000FA031092D9031092D80308950F93062F3D
:1017400021E04091D8036AED73E08091FA030E9492
:101750001A0C1092D9031092D8031092D7030F914C
:10176000089561E00C949E0B8BEC93E00C946A0B53
:1017700010928A0481E0809388041092870461E0CB
:1017800082E10E94BC2B61E083E10E94BC2BE9EB6B
:10179000F0E080818E7F808380818D7F808388E4EC
:1017A0008093B80085E48093BC000895413208F02E
:1017B0003FC090918A049111FCCF91E090938A04EC
:1017C000209388042FEF20931D0410926204240FAD
:1017D000209361049093890490918904880F892B48
:1017E0008093890480918704813041F410928704AA
:1017F000809189048093BB0085EC01C085EE8093C5
:10180000BC0080918A048130E1F3809162048417E6
:1018100010F44091620423E634E0FB01D9018A2FE1
:10182000821B841718F48D918193F9CF842F08952A
:1018300080E008950F93413208F046C090918A04E9
:101840009111FCCF92E090938A04009388049FEF5B
:1018500090931D041092620440936104FB0163E6BF
:1018600074E0DB019A2F961B941718F491919D93C5
:10187000F9CF1092890490918904880F892B809365
:10188000890480918704813041F41092870480910B
:1018900089048093BB0085EC01C085EE8093BC0079
:1018A000222321F080918A048230E1F380911D048B
:1018B0008F3F61F080911D04803251F080911D04B2
:1018C000803341F483E007C081E005C080E003C0BD
:1018D00082E001C084E00F910895613298F4209174
:1018E0008A04243089F460933F04FC0181E494E08D
:1018F000DC012A2F281B261718F421912D93F9CFEC
:1019000080E0089581E0089582E0089585ED809358
:10191000BC008091BC0084FDFCCF10928A04089525
:1019200085EC8093BC0010928A0408951F920F9258
:101930000FB60F9211242F933F934F935F936F93A2
:101940007F938F939F93AF93BF93EF93FF93809178
:10195000B900887F803609F49CC068F5883209F4A4
:101960005BC090F4803109F454C038F4882309F442
:10197000F5C0883009F44DC0F5C0883109F44CC079
:10198000803209F45DC0EEC0803409F468C048F4C8
:10199000803309F455C0883309F0E4C080931D04F6
:1019A000A8C0803509F44FC0883509F45DC088347B
:1019B00009F0D8C0D5C0883909F4C6C0A8F4883762
:1019C00009F467C038F4883609F463C0803709F435
:1019D00060C0C8C0883809F4B7C0803909F45FC056
:1019E000803809F0BFC05BC0803B09F485C038F483
:1019F000803A09F466C0883A09F47EC0B3C0803CDE
:101A000009F4A6C0883C09F4A3C0883B09F489C046
:101A1000A9C08091890410C09091620480916104F2
:101A2000981770F5E091620481E08E0F8093620454
:101A3000F0E0ED59FB4F80818093BB0085EC85C0C1
:101A400080931D048DC0E091620481E08E0F80932D
:101A500062048091BB00F0E0ED59FB4F80839091D0
:101A60006204809161046DC0E091620481E08E0F98
:101A7000809362048091BB00F0E0ED59FB4F8083BE
:101A80008091880481116CC081E08093870484EA8E
:101A900060C083E080938A0410921E04CFCF8091AF
:101AA0001E04803208F050C0E0911E0481E08E0FC9
:101AB00080931E048091BB00F0E0E15EFB4F8083C9
:101AC000BDCF80911E04803230F4E0911E04F0E01E
:101AD000E15EFB4F10820E94860C60911E0470E054
:101AE000E0918304F09184048FE194E009951092D1
:101AF0001E040E94900C36C084E080938A041092E9
:101B0000400410923F04E0918504F0918604099509
:101B100080913F04811105C081E080933F041092C1
:101B20004104E091400481E08E0F80934004F0E096
:101B3000EF5BFB4F80818093BB00909140048091CC
:101B40003F04981708F47ACF85E88093BC000AC058
:101B500085EC8093BC0010928A0404C010921D048E
:101B60000E94860CFF91EF91BF91AF919F918F9151
:101B70007F916F915F914F913F912F910F900FBE89
:101B80000F901F9018952091CD043091CE04281706
:101B90003907B9F490918B0480918C04981789F0DF
:101BA000E0918B04F0E0E357FB4F808120918B04A0
:101BB00030E02F5F3F4F2F73332720938B0490E04B
:101BC00008958FEF9FEF08951F93CF93DF93DC016C
:101BD0005C968D919C915D97009749F481E090E02F
:101BE00013969C938E93129780E090E03BC05196A1
:101BF000ED91FC91529750962C915097322F309541
:101C00001FB75E964C915E9741FB772770F941FDB7
:101C10006095F8944081772311F0422B01C0432353
:101C20004083EC012197F1F748E0508160FF02C04A
:101C3000522B01C053235083EC012197F1F7669595
:101C4000415099F78081772311F0832301C0822BC3
:101C500080831FBF5C968D919C915D970197F1F7F2
:101C600081E090E0DF91CF911F9108952091CD0404
:101C70003091CE042817390781F490918B0480911C
:101C80008C04981751F0E0918B04F0E0E357FB4F80
:101C90008081992787FD909508958FEF9FEF089594
:101CA0002091CD043091CE042817390771F480912A
:101CB0008C0420918B0490E0805C9F4F821B9109E3
:101CC00060E470E00E946734089580E090E0089539
:101CD0002091CD043091CE042817390739F48FB7FD
:101CE000F89410928C0410928B048FBF0895E091A9
:101CF000CD04F091CE04E817F90769F4A389B489FB
:101D00009C918589809589238C931092CE041092A2
:101D1000CD0481E0089580E00895CF93DF93EC0136
:101D20008A8D9B8D892BF1F08091CD049091CE040A
:101D30008C179D07B9F0009711F00E94770E8E8DD9
:101D40008E7F8E8F10928C0410928B04D093CE04D1
:101D5000C093CD04EB89FC8980819D89892B808388
:101D600081E001C080E0DF91CF9108951F920F9232
:101D70000FB60F9211242F933F934F935F936F935E
:101D80007F938F939F93AF93BF93EF93FF93E091D4
:101D9000CD04F091CE04309709F451C0868DA6850C
:101DA000B785958581FF04C08C91892329F447C0AC
:101DB0008C91892309F043C0A389B4899C918589BA
:101DC000809589238C93868997890197F1F7208DD7
:101DD000318DA685B785758558E040E0C90101972A
:101DE000F1F7842F90E095958795482F6C916723A4
:101DF00009F04068515091F7868D81FD40958091A2
:101E00008C0490E001968F73992720918B042817FA
:101E100049F0A0918C04B0E0A357BB4F4C93809342
:101E20008C0403C0868D8160868F828D938D01978F
:101E3000F1F7A389B4898C919589892B8C93FF91B3
:101E4000EF91BF91AF919F918F917F916F915F9132
:101E50004F913F912F910F900FBE0F901F901895AB
:101E600025E631E0FC01318320830C94770E1F932B
:101E7000CF93DF93EC01162F6E8D6695617081E034
:101E80006827812F0E94BC2B61E0812F0E94832B49
:101E9000812F90E0FC01EA54FE4FE491E88BFC01B5
:101EA000E653FE4FE491F0E0EE0FFF1FE851FE4FC6
:101EB000859194919A8B898BDF91CF911F91089591
:101EC0001F93CF93DF93EC01162F60E0812F0E94C8
:101ED000832B8E8D81FD04C061E0812F0E94BC2B7D
:101EE0001C87812F90E0FC01EA54FE4FE491ED87BE
:101EF000FC01E653FE4FE491F0E0EE0FFF1FE252CB
:101F0000FE4F859194919F878E87DF91CF911F918E
:101F10000895FF920F931F93CF93DF93EC01F62E5A
:101F2000522F1B821A8208EE13E020E030E00C836F
:101F30001D832E833F8385E691E0998388831F8AE2
:101F40001E8A198E188E1B8E1A8E1D8E1C8E8E8DDB
:101F50008E7F50FB81F98E8F642FCE010E94370F48
:101F60006F2DCE01DF91CF911F910F91FF900C94B7
:101F7000600FCF93DF93EC019A01AB011B8E1A8E99
:101F8000198E188E1F8A1E8A60E079E08DE390E03A
:101F90000E949D34C9012430310520F0B9016350FD
:101FA000710902C061E070E07D8F6C8FEC85E631D5
:101FB00008F068C0B901769567956431710518F02D
:101FC0006351710902C061E070E07F8B6E8B0697F0
:101FD00018F0C901059702C081E090E0998F888FC1
:101FE000C901880F991F820F931F96958795969523
:101FF00087958D30910510F00C9702C081E090E03C
:102000009B8F8A8F20916800E83050F091E0EE308D
:1020100008F490E081E001C0880F9A95EAF701C0CA
:1020200084E0822B809368002C85283038F02E3095
:1020300040F0263148F48CE690E008C08DE690E050
:1020400005C08BE690E002C080E090E09C8B8B8B1B
:10205000283030F481E001C0880F2A95EAF70DC0DE
:10206000822F90E02E3010F4089701C00E9791E077
:1020700001C0990F8A95EAF7892F8D8B8C8D9D8DE4
:102080000197F1F7CE01DF91CF910C948D0E0C9456
:10209000770E0C94CF20CF92DF92EF92FF920F93A6
:1020A0001F93CF93DF93EC010C891D890E94412A75
:1020B000CC80DD80EE80FF809B01AC012C193D09B6
:1020C0004E095F0969017A0139E0C316D104E104C0
:1020D000F104E8F16C837D838E839F83CE010E949F
:1020E0003C21488559856A857B85452B462B472BA6
:1020F00049F4AC01662757FD6095762F488B598BC4
:102100006A8B7B8B488959896A897B89841B950BEB
:1021100097FF03C0919581959109449764F44C858C
:102120005D856E857F854F5F5F4F6F4F7F4F4C871B
:102130005D876E877F87488559856A857B854F5F78
:102140005F4F6F4F7F4F488759876A877B878885A6
:102150009985AA85BB850597A105B105D1F4188697
:1021600019861A861B868C859D85AE85BF8503974B
:10217000A105B10540F088899989AA89BB898C019C
:102180009D8B8C8B02C00C891D891C861D861E862A
:102190001F86C80164E670E00E94673468307105EC
:1021A00028F4FB01EF58FE4F808101C080E0DF91F1
:1021B000CF911F910F91FF90EF90DF90CF900895F6
:1021C0000C94CF200F931F93CF93DF93EC01062F36
:1021D00018E060E088850E94BC2B00FF02C061E02F
:1021E00001C060E089850E94BC2B069561E088856E
:1021F0000E94BC2B115069F760E088850E94BC2BBF
:1022000061E089850E94BC2B61E088850E94BC2B1F
:1022100060E089850E94832B18EC89850E94F22B4F
:10222000892B59F01150C9F761E089850E94832BF1
:1022300060E089850E94BC2BEFCF61E08985DF914A
:10224000CF911F910F910C94832BCF93DF93EC01CF
:1022500061E088850E94BC2B61E089850E94BC2BCF
:1022600060E089850E94BC2B60E08885DF91CF917A
:102270000C94BC2BCF93DF93EC0160E088850E9427
:10228000BC2B60E089850E94BC2B61E088850E94A0
:10229000BC2B61E08985DF91CF910C94BC2BCF9250
:1022A000DF92FF920F931F93CF93DF931F92CDB7CF
:1022B000DEB76C01F62E79830E94251160E4C60119
:1022C0000E94E210C6010E943A11C6010E94251127
:1022D000F6016581C6010E94E2100F2D7981172F4A
:1022E00084E0F82EF80161918F01C6010E94E2108E
:1022F000FA94C1F7C6010E943A11C6010E94251145
:10230000F6016681C6010E94E210C6010F90DF91BE
:10231000CF911F910F91FF90DF90CF900C943A11C5
:102320004F925F926F927F928F929F92AF92BF92E5
:10233000CF92DF92EF92FF920F931F93CF93DF9391
:1023400000D000D0CDB7DEB76A017B01890137FD2F
:1023500048C0B9016F5F7F4F882777FD8095982F20
:102360000E942A319B01AC0160E070E080E291E4C0
:102370000E9405334B015C019B01AC01C701B60112
:102380000E948F300E9465312B013C01B8018827E3
:1023900077FD8095982F0E942A319B01AC0160E067
:1023A00070E080E291E40E94053369837A838B8335
:1023B0009C83A5019401C301B2010E94A2329B013A
:1023C000AC01C701B6010E94C42F29813A814B811B
:1023D0005C810E948F300E9465310E94F730CB01F2
:1023E0001FC088249924821A930AA12CB12C20E0C2
:1023F00030E040E251E4C701B6010E94A2326B0115
:102400007C018FEFA81AB80AA814B90484F3C70195
:10241000B6010E94F730CB016AE070E00E94673499
:102420000F900F900F900F90DF91CF911F910F9110
:10243000FF90EF90DF90CF90BF90AF909F908F90E4
:102440007F906F905F904F900895DB0180E090E265
:102450002C91223208F09C93EC91F0E0E058FE4F72
:10246000E491ED938F5F843099F70895EF92FF9296
:102470000F931F93CF93DF9300D000D0CDB7DEB77B
:102480008C01DB01FE013196CE0105967F012D9175
:102490002193E817F907D9F7B701C8010E9425125F
:1024A000B701C8010E944F110F900F900F900F902D
:1024B000DF91CF911F910F91FF90EF900895CF93EF
:1024C000DF9300D000D0CDB7DEB720E229832A8386
:1024D0002B832C83BE016F5F7F4F0E9436120F90BB
:1024E0000F900F900F90DF91CF910895CF93DF93CE
:1024F000EC016A83E62FF0E0EE0FFF1FE65EFE4F71
:1025000081818983908198838887998761E00E947F
:10251000832B61E089850E94832B80E48C8380EC8F
:102520008D838AE88E83CE01DF91CF910C945F1268
:102530008F929F92AF92BF92CF92DF92EF92FF92D3
:102540000F931F93CF93DF9300D000D0CDB7DEB7AA
:102550005C016A017B0119821A821B821C8220E0C5
:1025600030E0A901C701B6010E948B3087FF09C086
:10257000F7FAF094F7F8F09481E289839924939420
:1025800001C0912C03E010E0812C9801B701A60155
:10259000C5010E949011181619062CF0002319F09D
:1025A0008820B9F00CC001110AC0E1E0F0E0EC0FA6
:1025B000FD1FE90DF11D20E1280F208307C0E1E098
:1025C000F0E0EC0FFD1FE90DF11D8083939488244A
:1025D000839483E0891530F0015011090C3F8FEF8F
:1025E000180799F6BE016F5F7F4FC5010E94361232
:1025F0000F900F900F900F90DF91CF911F910F913F
:10260000FF90EF90DF90CF90BF90AF909F908F9012
:1026100008950E94CF2088E08093CF0408954F92C0
:102620005F926F927F928F929F92AF92BF92CF9262
:10263000DF92EF92FF920F931F93CF93DF93762E4B
:10264000680179016093CF049A0140E050E060E4B2
:1026500072E48FE090E00E949D34E901590137FF58
:1026600003C08FEFA81AB80A85011595079561E098
:10267000872D0E94832BA8EEB3E0A70196010E944C
:10268000D1342B013C01C12CD12C76014E01AA245E
:1026900097FCA094BA2CC414D504E604F704B0F453
:1026A00061E08091CF040E94BC2BC8010E94982A4F
:1026B00060E08091CF040E94BC2BC8010E94982A40
:1026C000A895C80CD91CEA1CFB1CE5CFDF91CF9163
:1026D0001F910F91FF90EF90DF90CF90BF90AF9040
:1026E0009F908F907F906F905F904F900895862F6E
:1026F0006093CF0461E00E94832B60E08091CF045F
:102700000C94BC2B60E00C94D820CF93DF93EC01A9
:102710000E944C2184EF91E09F838E83DF91CF91C3
:1027200008950F931F93CF93DF938C016F3F710533
:1027300019F014F06FEF70E0EB0161308FEF780764
:1027400014F4C1E0DFEFF801868197818C179D07B3
:10275000C9F0D783C683D7FD06C061E0C8010E94D7
:102760002021BE0108C060E0C8010E942021662728
:1027700077276C1B7D0BC801DF91CF911F910F91C3
:102780000C944821DF91CF911F910F9108954F92A2
:102790005F926F927F928F929F92AF92BF92CF92F1
:1027A000DF92EF92FF920F931F93CF93DF9300D0AE
:1027B00000D0CDB7DEB7FC01C982DA82EB82FC82A1
:1027C00095EA90832183C2828A8183838B8184836B
:1027D0008C81858346015701CF0106963801C12CB3
:1027E000D12C7601C814D904EA04FB0461F0D301AA
:1027F0002D913D01DC012D93CD01BFEFCB1ADB0AFA
:10280000EB0AFB0AEFCF2401350126E0420E511CF2
:10281000611C711CD801C12CD12C760180E0C81438
:10282000D904EA04FB0441F09D9189279FEFC91A5E
:10283000D90AE90AF90AF3CFDF01A40DB51D8C937B
:1028400097018601085F1F4F2F4F3F4FA7E0CA0E29
:10285000D11CE11CF11CEC0DFD1D8AE580834017A5
:1028600051076207730728F460E070E080E090E0B1
:1028700002C0B801C9010F900F900F900F90DF9127
:10288000CF911F910F91FF90EF90DF90CF90BF906D
:10289000AF909F908F907F906F905F904F90089532
:1028A0001F93CF93DF93EC01162F60E00E94D82096
:1028B00011501C8389E08D83DF91CF911F91089582
:1028C000CF93DF93EC0160E00E94D8201C8289E066
:1028D0008D83DF91CF91089580ED94E00C94AD1A33
:1028E00080ED94E00C94D61AAF92BF92CF92DF9213
:1028F000EF92FF920F931F93CF93DF93EC016B0145
:102900007A0159016D818BEC93E00E94940BA50133
:10291000B6018BEC93E00E940E0B8BEC93E00E94CF
:10292000B10B82E090E00E94982A6D8170E0A801CE
:102930008BEC93E00E94910B82E090E00E94982A39
:10294000C0E08BEC93E00E94E30A892B51F08BEC02
:1029500093E00E94EB0AF701EC0FF11D8083CF5F3B
:10296000F0CFDF91CF911F910F91FF90EF90DF900B
:10297000CF90BF90AF9008956F927F928F929F9269
:10298000AF92BF92CF92DF92EF92FF920F931F937D
:10299000CF93DF93CDB7DEB768970FB6F894DEBF5D
:1029A0000FBECDBF3C018AE04E012BE0820E911C90
:1029B000F401282F11922A95E9F7FE0131965F0163
:1029C00011928A95E9F7F30184818F8B87E0888FD4
:1029D00082E0C82ED12CE12CF12C8E01095E1F4F14
:1029E00021E04AE050E060E070E0C4010E94C713BB
:1029F0000AE010E02AE030E0A501B401C3010E9422
:102A000074142AE030E040E050E0B50180ED94E03D
:102A10000E940F1B1E8A1D8A22E030E040E050E039
:102A2000BE016B5E7F4F80ED94E00E94221D81E02D
:102A30009E89911101C080E068960FB6F894DEBFC0
:102A40000FBECDBFDF91CF911F910F91FF90EF90FF
:102A5000DF90CF90BF90AF909F908F907F906F90BE
:102A60000895CF93DF93EC018BEC93E00E947A0BF7
:102A7000CE01DF91CF910C94BC146F927F928F9214
:102A80009F92AF92BF92CF92DF92EF92FF920F93FD
:102A90001F93CF93DF93CDB7DEB76E970FB6F89441
:102AA000DEBF0FBECDBF3C016A017B0120E030E0FC
:102AB00048E453E4C701B6010E94523218168CF064
:102AC00020E030E048E453ECC701B6010E948B30AF
:102AD00087FF0DC0C12CD12C58E4E52E53ECF52E08
:102AE00006C0C12CD12C68E4E62E63E4F62ECE019C
:102AF00001964C018EE0F40111928A95E9F75E018E
:102B0000FFE0AF0EB11C8AE0F50111928A95E9F75A
:102B10008E01075E1F4F86E0F80111928A95E9F752
:102B2000F3018481898F85E08A8FCB8EDC8EED8ED8
:102B3000FE8E46E0C42ED12CE12CF12C21E04EE09B
:102B400050E060E070E0C4010E94C7130AE010E0AA
:102B50002EE030E0A501B401C3010E9474142AE004
:102B600030E040E050E0B50180ED94E00E940F1BA2
:102B700080ED94E00E94B31B80E06E960FB6F8944F
:102B8000DEBF0FBECDBFDF91CF911F910F91FF90A0
:102B9000EF90DF90CF90BF90AF909F908F907F90FD
:102BA0006F9008952F923F924F925F926F927F9213
:102BB0008F929F92AF92BF92CF92DF92EF92FF924D
:102BC0000F931F93CF93DF93CDB7DEB7A8970FB6C0
:102BD000F894DEBF0FBECDBF4C011A012B01680176
:102BE000790120E030E048E453E4C701B6010E94D7
:102BF000523218168CF020E030E048E453ECC70164
:102C0000B6010E948B3087FF0DC0C12CD12CE8E4A7
:102C1000EE2EE3ECFE2E06C0C12CD12CF8E4EF2EF4
:102C2000F3E4FF2E20E030E0A901C201B1010E94CF
:102C30008B30811106C0B701A601C4010E943D1569
:102C40005BC0CE0101963C0182E1F30111928A95AD
:102C5000E9F78AE05E01FDE1AF0EB11CF501982FA6
:102C600011929A95E9F78E010D5E1F4FF8011192AE
:102C70008A95E9F7F40184818B8B81E18C8B2D8A15
:102C80003E8A4F8A588EC98EDA8EEB8EFC8E7AE0A1
:102C9000C72ED12CE12CF12C21E042E150E060E084
:102CA00070E0C3010E94C7130AE010E022E130E0A7
:102CB000A501B301C4010E9474142AE030E040E091
:102CC00050E0B50180ED94E00E940F1B80ED94E090
:102CD0000E94B31B18A61FA222E030E040E050E0A3
:102CE000BE01695D7F4F80ED94E00E94221D81E06E
:102CF00098A5911101C080E0A8960FB6F894DEBFA8
:102D00000FBECDBFDF91CF911F910F91FF90EF903C
:102D1000DF90CF90BF90AF909F908F907F906F90FB
:102D20005F904F903F902F90089560E00C94D820D2
:102D3000CF93DF93EC016C834D838C8160E00E9424
:102D4000832B8D8188838C818983DF91CF91089536
:102D50000C94302160E00C94D820CF93DF93EC01E9
:102D60006C834D838C8160E00E94832B8D818883EE
:102D70008C818983DF91CF9108950C943021CF937A
:102D8000DF93EC0160E00E94D820CE5BDF4F88E645
:102D90008883DF91CF910895FC01628573858485D6
:102DA00095850895FC0166857785808991890895C8
:102DB000FC0162897389848995890895EF92FF9255
:102DC0000F931F93CF93DF93F62E8A01E22EEC012F
:102DD000CE5BDF4F68818BEC93E00E94940B6F2DEC
:102DE0008BEC93E00E943B0B813001F560E08BECB3
:102DF00093E00E949E0B81112EC081E090E00E9422
:102E0000982A21E04E2D68818BEC93E00E94840B80
:102E1000E80100E010E0F12C8BEC93E00E94E30A63
:102E2000892B31F00E151F0574F002C08FEF13C00F
:102E300081E090E00E94982A81E00E151F0509F4B8
:102E400080E0819508C00F5F1F4F8BEC93E00E94DC
:102E5000EB0A8993E1CFDF91CF911F910F91FF9002
:102E6000EF9008952F923F924F925F926F927F92D0
:102E70008F929F92AF92BF92CF92DF92EF92FF928A
:102E80000F931F93CF93DF93CDB7DEB72C970FB679
:102E9000F894DEBF0FBECDBF1C01AC014C5C5F4F90
:102EA0002EE06BE30E94DE168111F4C1F101A4A8AB
:102EB000B12C1A2D002785A9082B13A302A3E6A87D
:102EC000F12CFE2CEE2487A9E82AF5A2E4A280AC1E
:102ED000912C982C882481AD882A97A286A24680BE
:102EE00057806084718464AD70E0762F662785AD6D
:102EF000682B882777FD8095982F0E942A31F10151
:102F000020A531A542A553A50E94C42FA30192017B
:102F10000E948F30F101668B778B808F918F66AD29
:102F200070E0762F662787AD682B882777FD809520
:102F3000982F0E942A31F10124A535A546A557A551
:102F40000E94C42FA30192010E948F30F101628F71
:102F5000738F848F958FE05CFF4F608170E0762FD8
:102F6000662731968081682B882777FD8095982F7A
:102F70000E942A31F10120A931A942A953A90E9436
:102F8000C42FA30192010E948F30F101668F778FC9
:102F900080A391A3B701882777FD8095982F0E9481
:102FA0002A316B017C01B401882777FD8095982F29
:102FB0000E942A319B01AC010E94A2324B015C01AC
:102FC000A7019601C701B6010E94A232A501940192
:102FD0000E94C52F0E9455339B01AC01B801882780
:102FE00077FD8095982F29873A874B875C870E94C9
:102FF0002A312B013C0129853A854B855C850E944D
:10300000383020E030E044E353E40E94A2322AED5D
:103010003FE049E450E40E948F3069837A838B83D8
:103020009C83A3019201C301B2010E94A232A501B7
:1030300094010E94C52F0E9455339B01AC01C7012A
:10304000B6010E94383020E030E044E353E40E94AF
:10305000A2322AED3FE049E450E40E948F306D83B4
:103060007E838F8398870E94412AC090EB05D09081
:10307000EC05E090ED05F090EE056C197D098E09E8
:103080009F090E94283120E030E04AE754E40E9482
:103090008F306B017C010E94412A6093EB05709395
:1030A000EC058093ED059093EE05F10186A197A1C3
:1030B0001816190644F5228D338D448D558DC701A0
:1030C000B6010E94A2329B01AC01F10162857385B9
:1030D000848595850E94C42FF10162877387848758
:1030E000958726893789408D518DC701B6010E9489
:1030F000A2329B01AC01F1016685778580899189B7
:103100000E94C52F28C0F101228D338D448D558D2D
:10311000C701B6010E94A2329B01AC01F101628598
:103120007385848595850E94C52FF1016287738719
:103130008487958726893789408D518DC701B601CF
:103140000E94A2329B01AC01F101668577858089DE
:1031500091890E94C42FF10166877787808B918BBC
:10316000F101268D378D40A151A1C701B6010E9402
:10317000A232F10122893389448955890E94C52FE1
:103180002B013C0120E030E044EB53E40E948F30FF
:103190000E94653120E030E044EB53E40E94A2320B
:1031A0009B01AC01C301B2010E94C42F2B013C0161
:1031B00020E030E044E353E40E945232181634F029
:1031C000F101428A538A648A758A0DC020E030E09A
:1031D00044EB53E4C301B2010E94C42FF101628B9E
:1031E000738B848B958B20E030E040E05FE3C70178
:1031F000B6010E94C52F9B01AC0160E070E080E049
:103200009FE30E948F306B017C019B01AC0160E069
:1032100070E080E89FE30E94C42F4B015C01F10144
:103220002285338544855585C701B6010E94A232A7
:103230002B013C01A501940169817A818B819C81DC
:103240000E94A2329B01AC01C301B2010E94C52FB2
:10325000F101628773878487958726853785408942
:103260005189C701B6010E94A2326B017C01A50100
:1032700094016D817E818F8198850E94A2329B018D
:10328000AC01C701B6010E94C52FF101668777879F
:10329000808B918B2C960FB6F894DEBF0FBECDBFFE
:1032A000DF91CF911F910F91FF90EF90DF90CF9022
:1032B000BF90AF909F908F907F906F905F904F9056
:1032C0003F902F9008952F923F924F925F926F926E
:1032D0007F928F929F92AF92BF92CF92DF92EF92A6
:1032E000FF920F931F93CF93DF9300D000D0CDB701
:1032F000DEB71C0104EF11E0812C912C5401412C0C
:10330000512C320119821A821B821C827C0124E317
:10331000E20EF11C26E0A70163E4C1010E94DE1663
:10332000F10184A990E0982F882725A9822BAA274C
:1033300097FDA095BA2F29813A814B815C81280F96
:10334000391F4A1F5B1F29833A834B835C8386A9FD
:1033500090E0982F882727A9822BAA2797FDA09570
:10336000BA2F480E591E6A1E7B1E80AD90E0982F22
:10337000882721AD822BAA2797FDA095BA2F880E0A
:10338000991EAA1EBB1E0150110921F624EFC22E60
:10339000DD24D394E12CF12C69817A818B819C818D
:1033A000A70196010E949D34CA01B9010E942A31E9
:1033B000F10160A771A782A793A7C301B201A7017A
:1033C00096010E949D34CA01B9010E942A31F1017F
:1033D00064A775A786A797A7C501B401A7019601A1
:1033E0000E949D34CA01B9010E942A31F10160ABEB
:1033F00071AB82AB93AB0F900F900F900F90DF915A
:10340000CF911F910F91FF90EF90DF90CF90BF90E1
:10341000AF909F908F907F906F905F904F903F9074
:103420002F900895EF92FF921F93CF93DF931F92F7
:10343000CDB7DEB7162F7A018E5B9F4FFC016081FE
:103440008BEC93E029830E94940B612F8BEC93E02B
:103450000E943B0B2981813091F4422F50E0B7014B
:103460008BEC93E00E940E0B61E08BEC93E00F90ED
:10347000DF91CF911F91FF90EF900C949E0B8FEFF7
:103480000F90DF91CF911F91FF90EF900895CF9310
:10349000DF931F92CDB7DEB7498321E0AE014F5FC6
:1034A0005F4F0E94121A0F90DF91CF910895CF9332
:1034B000DF93EC0140E050E063E872E44E835F8309
:1034C000688779871A861B861C861D861E861F863E
:1034D000188A198A1A8A1B8A1C8A1D8A1E8A1F8AC0
:1034E000188E198E1A8E1B8E1C8E1D8E1E8E1F8E90
:1034F00018A219A21BA21AA21DA21CA21FA21EA2E0
:1035000018A619A61AA61BA61CA61DA61EA61FA6AF
:1035100018AA19AA1AAA1BAA8BEC93E00E947A0B8C
:1035200060E273E080E090E00E94702A40E06BE689
:1035300070E0CE010E94471A41E06AE170E0CE01DE
:103540000E94471A48E06BE170E0CE010E94471AE2
:10355000CE01DF91CF910C94631921E030E0FC01A2
:1035600031832083EE5FFE4F10821182128213821C
:103570003496108211821282138234961082319610
:103580001082319610821182128213823496118237
:10359000108232961082319610821182128213822A
:1035A0003496108211821282138208950895CF9268
:1035B000DF92EF92FF920F931F93CF93C62FFC01E0
:1035C000EE5FFE4F0081118122813381B901A80194
:1035D0004F5F5F4F6F4F7F4F552766277727DC017F
:1035E000AA5FBE4FCD90DD90ED90FC904C155D052F
:1035F0006E057F0559F0DC01A00FB11F1296CC9328
:10360000408351836283738381E001C080E0CF9166
:103610001F910F91FF90EF90DF90CF900895AF92A0
:10362000BF92CF92DF92EF92FF920F931F93CF93AF
:10363000DF9300D000D0CDB7DEB75C01FC01EE5FB8
:10364000FE4FC080D180E280F3808FEFC80ED11C86
:10365000E11CF11C349680819181A281B381C81A4A
:10366000D90AEA0AFB0ADD24EE24FF24C216D30697
:10367000E406F50628F08B01C12CD12C760102C09E
:1036800080E019C0C216D306E406F506A1F0F801E1
:1036900061918F01C50129833A834B835C830E942A
:1036A000D71AFFEFCF1ADF0AEF0AFF0A5C814B81BE
:1036B0003A812981E7CF0F900F900F900F90DF9103
:1036C000CF911F910F91FF90EF90DF90CF90BF901F
:1036D000AF9008950F931F93CF93DF93DB01FC010D
:1036E000EA5FFE4F4081518162817381EC01CE5FC0
:1036F000DE4F088119812A813B81041715072607AF
:103700003707A9F0EC01C40FD51F8A818C93808103
:103710009181A281B3810196A11DB11D9927AA278C
:10372000BB2780839183A283B38381E001C080E0C3
:10373000DF91CF911F910F9108950F931F93FC017B
:1037400000E010E0980180E004171507260737070E
:1037500039F0919189270F5F1F4F2F4F3F4FF4CFC3
:103760001F910F9108952F923F924F925F926F9207
:103770007F928F929F92AF92BF92CF92DF92EF9201
:10378000FF920F931F93CF93DF9300D000D000D010
:10379000CDB7DEB78C0119827C018DEEE81A8EEF71
:1037A000F80A18019EEE291A9EEF390A4801A0EF87
:1037B0008A1AAEEF9A0A5801B4EFAB1ABEEFBB0AF1
:1037C0006801E9EECE1AEEEFDE0AC801855F9E4F72
:1037D0009B838A83D801A65FBE4FBD83AC83BE01A5
:1037E0006F5F7F4FC8010E946A1BF801882309F4AC
:1037F0000FC18081918183309105F9F064F48130AB
:10380000910591F0029759F78981EA81FB818083C4
:1038100083E090E00EC08530910509F48FC07CF103
:10382000069709F4C7C0DBCF8981853AC1F682E0EB
:1038300090E0D8018D939C93D2CFF7018081918144
:10384000800F911FFC01E45FFE4F29812083F70167
:1038500080819181A281B3810196A11DB11D8083D8
:103860009183A283B3830497A105B10509F0B7CF73
:10387000108211821282138284E090E05BC0D60134
:103880004D905D906D907C904114510461047104E1
:1038900059F5F50180819181A281B3818F3F910516
:1038A000A105B10539F030F081E090E0D8018D93A9
:1038B0009C9364C001960E94DC34D4018D939C9348
:1038C000892B91F481E090E0F80191838083D60107
:1038D0001D921D921D921C921397F7011082118266
:1038E00012821382D50189C08981D401ED91FC91A6
:1038F000E40DF51D8083F60180819181A281B38161
:103900000196A11DB11D80839183A283B383F5012C
:10391000408151816281738184179507A607B7079B
:1039200009F05DCFD6011D921D921D921C92139736
:1039300085E090E0F8019183808351CF2981D10106
:103940002C93F40160807180D5014D915D916D9152
:103950007C91C3012E830E949D1B2E81281721F18B
:1039600081E090E0F801918380836114710431F06B
:10397000C3010E947435D4011D921C92F60110827D
:10398000118212821382D7011D921D921D921C92E8
:103990001397F5011082118212821382AA81BB81D2
:1039A0001C92F10110821BCFE6E0F0E0D801ED930C
:1039B000FC9315CF89818A3589F0D4018D919C9132
:1039C000009729F00E947435F40111821082D5010C
:1039D0001D921D921D921C92139704C081E0EC81F0
:1039E000FD81808381E090E0D8018D939C93F60166
:1039F0001082118212821382D7011D921D921D9294
:103A00001C921397EA81FB811082D1011C92E7CEB0
:103A1000808126960FB6F894DEBF0FBECDBFDF9132
:103A2000CF911F910F91FF90EF90DF90CF90BF90BB
:103A3000AF909F908F907F906F905F904F903F904E
:103A40002F900895BF92CF92DF92EF92FF920F9343
:103A50001F93CF93DF93EC01CB018E01045F1E4FC8
:103A6000F801C080D180E280F380C216D306E4065C
:103A7000F50618F4BC2C5D2D02C0B22E532F7E012A
:103A8000F0EFEF1AFEEFFF0AF70160817181611517
:103A90007105B9F00097A9F04B2D0E94CD36F701C2
:103AA000808191810E947435F70111821082F801A2
:103AB0001082118212821382C65FDE4F18828B2D14
:103AC00001C080E0DF91CF911F910F91FF90EF90A7
:103AD000DF90CF90BF90089560E00C94D8204F9273
:103AE0005F926F927F928F929F92AF92BF92CF928E
:103AF000DF92EF92FF920F931F93CF93DF9300D04B
:103B000000D01F92CDB7DEB78C01CE0101966C01BB
:103B100085E0F60111928A95E9F760E0C8010E94FC
:103B2000202164E170E080E090E00E94702A61E072
:103B3000C8010E94202188E290E00E94982A60E05B
:103B4000C8010E9420210E94412A4B015C0160E0D3
:103B5000C8010E94FF2081110EC00E94412A6819ED
:103B600079098A099B09633071058105910578F30C
:103B7000F801148215820E94412A4B015C0160E029
:103B8000C8010E94FF20882359F00E94412A681929
:103B900079098A099B09633071058105910578F3DC
:103BA000E12CF12C0E94412A4B015C0160E0C8012C
:103BB0000E94FF2081110BC00E94412A68197909D7
:103BC0008A099B09633071058105910578F30E948C
:103BD0004D2A4B015C010E94412A2B013C0160E00F
:103BE000C8010E94FF20882359F00E94412A6419CD
:103BF000750986099709633071058105910578F388
:103C00000E944D2A681979098A099B09F70123E066
:103C1000F595E7952A95E1F76932710581059105DA
:103C200030F0EC0DFD1D8081880F816004C0EC0D2B
:103C3000FD1D8081880F8083FFEFEF1AFF0A88E265
:103C4000E816F10409F0AECF59814B81842F90E042
:103C5000850F911D2D8130E08217930719F4F8012B
:103C6000548345830F900F900F900F900F90DF912A
:103C7000CF911F910F91FF90EF90DF90CF90BF9069
:103C8000AF909F908F907F906F905F904F9008952E
:103C9000FC01611102C08481089585810895CF934C
:103CA000DF93EC010E9487228DE791E0998388835E
:103CB00088A1FE01E858FF4F80838F8DC758DF4FE2
:103CC0008883DF91CF910895CF93DF93EC0140E893
:103CD00055E260E070E00E94C42260E08F8DDF91C9
:103CE000CF910C94832B1F93CF93DF93EC018BA187
:103CF000882319F0CE010E94F22260E0CE014F9697
:103D00000E94EE20182F8BA1882319F0CE010E946B
:103D1000641E81E08127DF91CF911F91089586581D
:103D20009F4FFC0180810895CF93DF93EC010E94A7
:103D3000731E8823A1F0CE010E945F231816190676
:103D40008CF4E881F9810680F781E02DCE01099598
:103D50008F3F91053CF4C658DF4F888303C0C65897
:103D6000DF4F1882DF91CF9108950E944523992754
:103D700008951F920F920FB60F9211240F931F9365
:103D80002F933F934F935F936F937F938F939F9363
:103D9000AF93BF93CF93EF93FF9382E00E94F22BF8
:103DA000C82F2091F5053091F6052F5F3F4F3093D6
:103DB000F6052093F50580915B06843618F085E0C2
:103DC0008093F0059091F005933079F018F49230DB
:103DD00039F070C0943011F1953009F44AC06AC0CE
:103DE000C11168C010925B0629C0C13009F062C0E1
:103DF000E0915B0681E08E0F80935B06F0E080919E
:103E0000F5059091F605E151FA4F80871092F6057D
:103E10001092F50584E08093F0054CC0C11114C0E8
:103E2000E0915B0681E08E0F80935B06F0E080916D
:103E3000F5059091F605E151FA4F80871092F6054D
:103E40001092F50583E0E7CF8091F5059091F60596
:103E50008536910578F185E08093F0050E94412A2E
:103E60006093F1057093F2058093F3059093F40548
:103E700021C00E94412A0091F1051091F205209184
:103E8000F3053091F405601B710B820B930B693CB9
:103E900071058105910540F010925B061092F605C0
:103EA0001092F50582E0B7CFC11104C01092F6055B
:103EB0001092F505FF91EF91CF91BF91AF919F9136
:103EC0008F917F916F915F914F913F912F911F91B2
:103ED0000F910F900FBE0F901F90189560E00C94FB
:103EE000D820613049F40E9430218A5E91402091AF
:103EF0005E0630915F060AC0623059F40E943C2190
:103F00008A5E914020915C0630915D06820F931F7E
:103F1000089580E090E00895089570E0FB01EA5470
:103F2000FE4FE491DC01EC93FB01E653FE4FE4917C
:103F3000F0E0EE0FFF1FE252FE4F25913491FC019D
:103F40003283218308951F93CF93DF93FC01108167
:103F5000C181D2819981812F8095892389838A812A
:103F6000812B8A838AE090E00E94982A988191238D
:103F700081E009F480E0DF91CF911F910895FF92D5
:103F80000F931F93CF93DF93FC011081C181D281E6
:103F9000F8948981F12EF0948F2189838A81812B75
:103FA0008A8378940DE7015041F182E090E00E940D
:103FB000982A88818123B9F3F8948A818F218A8392
:103FC0008981812B8983789480EE91E00E94982AE0
:103FD000F89489818F2189838A81812B8A8386E461
:103FE00090E00E94982A8881812301E009F000E096
:103FF00078948AE991E00E94982A802FDF91CF91EE
:104000001F910F91FF9008951F93CF93DF93FC01B1
:104010001081C181D281912F909560FF12C0F894D8
:104020008A8189238A838981812B89838AE090E030
:104030000E94982A8A81812B8A83789487E390E072
:1040400011C0F8948A8189238A838981812B89838D
:1040500081E490E00E94982A8A81812B8A83789457
:1040600085E090E0DF91CF911F910C94982A0F93F7
:104070001F93CF93DF93FC011081C181D281F8940B
:104080008981812B89838A81012F009580238A83EE
:1040900083E090E00E94982A8981802389838A8125
:1040A000812B8A838AE090E00E94982AC8817894C4
:1040B00085E390E00E94982A1C2381E009F480E0C7
:1040C000DF91CF911F910F910895CF92DF92EF92E0
:1040D000FF920F931F93CF93DF931F92CDB7DEB75D
:1040E0006C01E62E08E010E0FF24F39461E09F2DC0
:1040F0009E2109F460E0C60149830E940420FF0C60
:104100000150110949810115110581F741111DC0A7
:10411000F894D6011196ED91FC91129791818C91B2
:104120008095892381831196ED91FC91129782816C
:104130009C91892B82831196ED91FC91129792812B
:104140008C9180958923828378940F90DF91CF9111
:104150001F910F91FF90EF90DF90CF900895EF9215
:10416000FF920F931F93CF93DF938C01C8E0D0E0B1
:10417000F12CEE24E394C8010E9437208111FE281F
:10418000EE0C2197C1F78F2DDF91CF911F910F91E9
:10419000FF90EF90089540E06CEC0C946520FC01DA
:1041A00080911A01808380911B018183128208957E
:1041B000DC01E62FF0E0EE0FFF1FE65EFE4F808190
:1041C0008C93818111968C93119712966C9308951C
:1041D000FC0182810895FC0183810895CF93DF93D0
:1041E000EC0188810E94832B88810E94F22B21E0C0
:1041F000892B09F420E0822FDF91CF910895CF938E
:10420000DF93EC0189810E94832B89810E94F22B2C
:1042100021E0892B09F420E0822FDF91CF910895CE
:104220001F93CF93DF93EC01162F61E088810E94EA
:10423000832B612F8881DF91CF911F910C94BC2B30
:104240001F93CF93DF93EC01162F61E089810E94C9
:10425000832B612F8981DF91CF911F910C94BC2B0F
:10426000CF93DF93EC0160E088810E94832B8881EB
:10427000DF91CF910C94DE2ACF93DF93EC0160E0C5
:1042800089810E94832B8981DF91CF910C94DE2A52
:10429000FC0180810C94FB2ADC01E62FF0E0EE0F9C
:1042A000FF1FE65EFE4F80818C93818111968C9377
:1042B000119712966C930895DC01E62FF0E0EE0F53
:1042C000FF1FE65EFE4F80818C93818111968C9357
:1042D000119712966C93129713964C930895FC01C4
:1042E00080810895FC0181810895CF93DF93EC01D3
:1042F000262F30E03D832C8323E0629FC0011124F0
:104300000E94DC349F838E83892B21F489E891E01D
:104310000E94DD3680E090E04C815D819A01220FA1
:10432000331F240F351F8217930738F4EE81FF8166
:10433000E80FF91F10820196EFCFDF91CF9108951A
:10434000CF93DF93EC010E94CF2060E2CE01DF919A
:10435000CF910C9475210F93FC01A62FB0E08481BE
:104360009581A817B907B8F4862F880F860F90E0BB
:10437000A681B781A80FB91F2C93A681B781A80F7A
:10438000B91F11964C930680F781E02DE80FF91FB5
:10439000028381E001C080E00F910895CF92DF9207
:1043A000EF92FF920F931F93CF93DF937C01142F13
:1043B000D22EC02E611113C0C0E0D0E0F70184817D
:1043C0009581C817D90748F40C2D2D2D412F6C2F3E
:1043D000C7010E94AB212196F1CF81E004C061505A
:1043E0000E94AB2180E0DF91CF911F910F91FF9050
:1043F000EF90DF90CF9008950F931F93CF93DF93AB
:10440000EC01142F6A834B83E62FF0E0EE0FFF1FC1
:10441000E65EFE4F818189838081888300E020E011
:1044200040E060E0CE010E94CE21123011F489817B
:1044300001C08881282F30E0F901EA54FE4FE49151
:10444000EC87F901E653FE4FE491F0E0EE0FFF1F19
:10445000E851FE4F259134913987288761E0DF913B
:10446000CF911F910F910C94832B0F93022F242F28
:10447000462F60E00E94CE210F9108950F931F9365
:10448000D8013FB7F8949C91822F80958923292BDE
:10449000FB01460F571FE417F50781F0919168E083
:1044A0002C9300C097FF8C93990F00C000C000C0F0
:1044B00008F48C9300C06A9599F7EDCF3FBF1F9128
:1044C0000F9108950F931F93FC010085118524819E
:1044D0003581A901440F551F420F531F6681778113
:1044E00024850E943E2261E070E080E090E01F9110
:1044F0000F910C94702ACF93DF93EC018E819F81F2
:104500000E9474351F821E82DF91CF910895FF9221
:104510000F931F93CF93DF93EC01F62E8C01015E76
:104520001F4FC8010E94D820EF2DF0E0EE0FFF1FB3
:10453000E65EFE4F20E040816181CE010E94890F3E
:104540008BEA91E0998388836FEC71E0CE01825908
:104550009F4F0E947A2F1DA21BA21CA288A1FE01C0
:10456000EA58FF4F80838F8D31968083C8010E9467
:10457000E82091E0853009F090E09BA3DF91CF9196
:104580001F910F91FF900895CF92DF92EF92FF92CB
:10459000CF93DF93EC016A017B0160E472E48FE06A
:1045A00090E0A70196010E949D343FA32EA38BA10A
:1045B000882369F026E0B701A6018FE896E0DF9135
:1045C000CF91FF90EF90DF90CF900C942A2DB70100
:1045D000A601CE01DF91CF91FF90EF90DF90CF90B9
:1045E0000C94B90FFC0123A1222321F08FE896E05F
:1045F0000C948C2D0C944710CF92DF92EF92FF9287
:104600000F931F93CF93DF93FC01C6A1D7A12397EC
:104610006C01F6E7CF0ED11CF60180810E94F22BCF
:10462000892BF1F400E010E0E12CF12CCE010E9486
:10463000982AF60180810E94F22B002E02C0880F7A
:10464000991F0A94E2F7E82AF92A0F5F1F4F0830F2
:10465000110561F7CE010E94982AC701992702C06F
:104660008FEF9FEFDF91CF911F910F91FF90EF9010
:10467000DF90CF900895FC0123A1222321F08FE841
:1046800096E00C94C52C0C94E40DFC0124A122238B
:1046900051F020A531A54FEF5FEF51A740A737FF9D
:1046A0000CC00C94FC22FC0123A1222321F08FE8F2
:1046B00096E00C94602C0C94C30DC9010895CF931F
:1046C000DF93EC018CA1882371F0CE010E94FC22C3
:1046D00088A799A7892F8095881F8827881F90E031
:1046E000DF91CF9108958BA1882331F08FE896E078
:1046F000DF91CF910C94472CCE01DF91CF910C9498
:10470000500ECF93DF93EC018E81813011F460E085
:1047100001C061E08A810E94BC2B61E08B810E9414
:10472000BC2B81E090E00E94982A60E08B81DF91B1
:10473000CF910C94BC2BCF93DF93EC0160E00296F9
:104740000E94D8208BEB91E099838883DF91CF91F1
:104750000895CF93DF93EC0102960E94D8208BEB53
:1047600091E0998388831F82188619861A861B8692
:104770001C861D861E861F8A188E198E1A8E0E9410
:104780004D2A6F8F78A389A39AA31F86188A198A46
:104790001A8A81E08E831F82188619861A861B86E4
:1047A0001C861D861E861BA21CA21DA21EA21B8E7D
:1047B0001C8E1D8E1E8E61E08A810E94832B61E01B
:1047C0008B81DF91CF910C94832B0F931F93CF9309
:1047D000DF93EC014B8D5C8D6D8D7E8D452B462BD3
:1047E000472B11F480E035C00E944D2A0F8D18A18F
:1047F00029A13AA1601B710B820B930B0B8D1C8DB1
:104800002D8D3E8D061717072807390758F78E811B
:104810004F81588569857A85813029F44F5F5F4FD4
:104820006F4F7F4F04C041505109610971094F8397
:10483000588769877A87E881F9810190F081E02DB6
:10484000CE0109950E944D2A6F8F78A389A39AA360
:1048500081E0DF91CF911F910F9108952F923F92A8
:104860004F925F926F927F928F929F92AF92BF9280
:10487000CF92DF92EF92FF920F931F93CF93DF932C
:1048800000D000D000D0CDB7DEB79E838D83FC0171
:10489000C384D484E584F68487819085A185B2851C
:1048A000C81AD90AEA0AFB0A678570898189928940
:1048B0009B01AC010E94A2324B015C01ED81FE81A3
:1048C0006789708D818D928D9B01AC010E94C52FEF
:1048D0009B01AC01C501B4010E948F300E94F730EA
:1048E000C114D104E104F104A9F462307105810519
:1048F00091050CF082C0ED81FE81138E148E158E11
:10490000168E1786108A118A128A13A214A215A273
:1049100016A20AC1ED81FE8103A114A125A136A131
:104920001C141D041E041F040CF51016110612069B
:1049300013064CF46C157D058E059F056CF52681DC
:1049400021115BC029C0011511052105310509F4AC
:1049500054C06C157D058E059F050CF04EC0ED8191
:10496000FE818681813009F048C03CC010161106D6
:10497000120613060CF50027112798010C191D09C2
:104980002E093F0960177107820793072CF4ED8108
:10499000FE812681213089F59B01AC01882799276A
:1049A000DC01821B930BA40BB50BED81FE8183A36D
:1049B00094A3A5A3B6A321C00115110521053105B6
:1049C000E1F08824992454018C189D08AE08BF0892
:1049D000681579058A059B0584F4ED81FE81868141
:1049E00081110BC030952095109501951F4F2F4FC9
:1049F0003F4F03A314A325A336A3ED81FE8183A01B
:104A000094A0A5A0B6A081149104A104B10499F4C6
:104A100087A190A5A1A5B2A583A794A7A5A7B6A78E
:104A200081E01C141D041E041F040CF080E0ED81C5
:104A3000FE81868342C0ED81FE81C3A4D4A4E5A497
:104A4000F6A4A7019601C701B6010E94C52F2B014C
:104A50003C01C501B4010E942A3120E030E040E869
:104A600050E40E94A23220E030E040E85FE30E9480
:104A7000C52F9B01AC01C301B2010E948F309B0185
:104A8000AC01C701B6010E94C42F1B012C01ED81AE
:104A9000FE8167A470A801A912A99301A8010E9430
:104AA0005232181614F431018201A301B801ED81CC
:104AB000FE8143A754A765A776A7FFEF8F1A9F0A29
:104AC000AF0ABF0AED81FE8183A294A2A5A2B6A27D
:104AD00023A534A545A556A5CA01B90129833A8362
:104AE0004B835C830E94FC30ED81FE81638F748F69
:104AF000858F968F29813A814B815C8160E074E2D9
:104B000084E799E40E948F30ED81FE816787708B86
:104B1000818B928B2681211107C0DC01CB01B0581B
:104B20008787908BA18BB28B26960FB6F894DEBF49
:104B30000FBECDBFDF91CF911F910F91FF90EF90EE
:104B4000DF90CF90BF90AF909F908F907F906F90AD
:104B50005F904F903F902F9008950F931F93FC010B
:104B6000038514852585368504171507260737071D
:104B700041F043875487658776871F910F910C9486
:104B80002E241F910F910895CF92DF92EF92FF9202
:104B9000CF93DF93EC016A017B019A01AB016B8932
:104BA0007C898D899E890E948B30882309F440C0BE
:104BB000CB8ADC8AED8AFE8AA701960160E074E266
:104BC00084E799E40E948F306FA778AB89AB9AABEA
:104BD0008BA19CA1ADA1BEA1181619061A061B0631
:104BE0003CF56F85788989899A899B01AC010E947F
:104BF000A2326B017C016F89788D898D9A8D9B0122
:104C0000AC010E94C52F9B01AC01C701B6010E94F7
:104C10008F300E94F7306BA37CA38DA39EA3CE019F
:104C2000DF91CF91FF90EF90DF90CF900C942E24E6
:104C3000DF91CF91FF90EF90DF90CF9008956F922A
:104C40007F928F929F92AF92BF92CF92DF92EF921C
:104C5000FF920F931F93CF93DF93EC013A018B01E7
:104C60002F85388949895A89B301C8010E948B3040
:104C7000882309F44FC0CB88DC88ED88FE88460184
:104C80005701B7FAB094B7F8B094A5019401B301F5
:104C9000C8010E948B3087FD0BC0A7019601B301AC
:104CA000C8010E94523218162CF43601870102C046
:104CB0003401850120E030E0A901B301C8010E9460
:104CC0008B30811105C01B8E1C8E1D8E1E8E1CC04C
:104CD0009301A80160E074E284E799E40E948F30B8
:104CE0009F770E94FC306B8F7C8F8D8F9E8FFF246F
:104CF000F39420E030E0A901B301C8010E945232D0
:104D000018160CF0F12CFE82C301D8018F87988B06
:104D1000A98BBA8BDF91CF911F910F91FF90EF90EC
:104D2000DF90CF90BF90AF909F908F907F906F90CB
:104D300008950F931F93FC010385148525853685FF
:104D40004781508561857285041715072607370747
:104D500071F040175107620773071CF421E02683A6
:104D600002C0FC0116821F910F910C94E52380E094
:104D70001F910F910895CF93DF93EC010E94CF20F4
:104D8000CE010496DF91CF910C948C1F1F93CF938B
:104D9000DF93EC01142F0E945C21123011F4698121
:104DA00001C06881CE010496DF91CF911F910C94D0
:104DB0008D1FCF92DF92EF92FF920F931F93CF93AD
:104DC000DF93CDB7DEB72C970FB6F894DEBF0FBEDA
:104DD000CDBF8C010C5F1F4FC8010E94BF1FC801CF
:104DE0000E94CB2040E064E4C8010E9465200E943C
:104DF000412A6B017C01C8010E94A31F81110BC0D5
:104E00000E94412A6C197D098E099F096E3E7240ED
:104E10008105910580F3C8010E94BF1FC8010E944F
:104E2000CB2040E06EEBC8010E946520CE010196C8
:104E30007C016E0196E0C90ED11CC8010E94AF2012
:104E4000F70181937F01EC15FD05B9F76A8170E0E8
:104E5000762F66278981682B882777FD8095982F84
:104E60000E942A3120E030E040E85DE30E94A23257
:104E70002C960FB6F894DEBF0FBECDBFDF91CF9159
:104E80001F910F91FF90EF90DF90CF90089560E019
:104E90000C94D82060E00C94FF2060E00C94D820A3
:104EA000CF92DF92EF92FF920F931F93CF93DF93F6
:104EB00000D000D0CDB7DEB78C019A01AB012983B9
:104EC0003A834B835C830E94412AF801C680D780D5
:104ED000E084F1846C197D098E099F0929813A814A
:104EE0004B815C81683171058105910510F081E08D
:104EF0008583F80185818823C1F129833A834B8317
:104F00005C830E94412AF8016683778380879187BA
:104F1000158260E0C8010E94202182E090E00E949A
:104F2000982A61E0C8010E9420218AE090E00E9456
:104F3000982A60E0C8010E94202160E0F801818188
:104F40000E94832B29813A814B815C8161E0F801C9
:104F500081810E941B2C6B017C010E942A31F80187
:104F6000628773878487958709C0F8016285738596
:104F7000848595850E94F7306B017C01C701B601DD
:104F80000F900F900F900F90DF91CF911F910F9185
:104F9000FF90EF90DF90CF900895CF93DF93EB01D8
:104FA00027E3269FA001279F500D112448535F4FF0
:104FB00060E070E00E945027611571058105910540
:104FC00041F48AE38C9FB0018D9F700D112480E025
:104FD00090E00E942A3120E030E048E652E40E944E
:104FE0008F30DF91CF9108951F920F920FB60F92DD
:104FF00011242F933F934F935F936F937F938F93DE
:105000009F93AF93BF93EF93FF938091610687FFC8
:1050100005C010928500109284001AC0209161068C
:10502000332727FD30958091600690E028173907D7
:105030007CF480916106992787FD9095FC01EE0F25
:10504000FF1FE80FF91FEE59F94F808187FD15C04A
:10505000809161068F5F80936106209161063327FE
:1050600027FD30958091600690E028173907BCF441
:10507000809161068C305CF112C0809161069927A5
:1050800087FD9095FC01EE0FFF1FE80FF91FEE5909
:10509000F94F808160E08F770E94BC2BD9CF80913F
:1050A000840090918500049680349C4918F480E433
:1050B0009CE905C0809184009091850004969093AE
:1050C0008900809388008FEF8093610638C020911B
:1050D00084003091850080916106992787FD909525
:1050E000FC01EE0FFF1FE80FF91FEE59F94F818108
:1050F0009281820F931F9093890080938800809102
:105100006106992787FD9095FC01EE0FFF1FE80FC0
:10511000F91FEE59F94F808187FF11C08091610618
:10512000992787FD9095FC01EE0FFF1FE80FF91FEF
:10513000EE59F94F808161E08F770E94BC2BFF917F
:10514000EF91BF91AF919F918F917F916F915F91FF
:105150004F913F912F910F900FBE0F901F90189578
:10516000209160062C30A0F431E0320F30936006BD
:10517000FC012083822F90E0FC01EE0FFF1FE80F5F
:10518000F91FEE59F94F88EB9BE0928381830895D4
:105190002FEFFC0120830895DF92EF92FF920F938F
:1051A0001F93CF93DF93EC01D62E7A01890188817A
:1051B0008C3008F066C061E08D2D0E94832B8881C1
:1051C000A82FB0E0FD01EE0FFF1FEA0FFB1FEE5905
:1051D000F94F2D2D2F7790819078922B908360E25C
:1051E00072E06E197F0977FF02C06D5F7F4F759582
:1051F000679575956795698340E659E0401B510BAB
:1052000057FF02C04D5F5F4F5595479555954795A0
:105210004A836CE00E9447349CE0899FB0011124CE
:1052200020E030E0A901460F571FFA01EE0FFF1FE3
:10523000E40FF51FEE59F94F908197FD16C02F5FCF
:105240003F4F2C30310571F781110FC01092800053
:1052500082E0809381001092850010928400B19AC0
:1052600080916F00826080936F00888190E0FC01E4
:10527000EE0FFF1FE80FF91FEE59F94F808180688C
:1052800080838881DF91CF911F910F91FF90EF90E4
:10529000DF90089520E639E040E252E00C94CC28FB
:1052A000FC0180818C3070F5918128E830E0291B69
:1052B000310997FD3395220F331F220F331F6217D9
:1052C00073077CF0928128E532E0291B310997FDB4
:1052D0003395220F331F220F331F621773070CF40D
:1052E0009B0122503109220F331F4FB7F89490E0F1
:1052F000FC01EE0FFF1FE80FF91FEE59F94F328343
:1053000021834FBF08954F925F926F927F92AF9229
:10531000BF92CF92DF92EF92FF920F931F93CF93A2
:10532000DF93EC01603282E078070CF040C077FD3B
:1053300006C0653B71052CF064EB70E002C060E0D4
:1053400070E0898128E830E0281B310987FD33951A
:10535000220F331F220F331F5901CC24B7FCC094F6
:10536000DC2C882777FD8095982F2A8148E552E02C
:10537000421B510927FD5395440F551F440F551FDC
:105380002A01662457FC6094762C7F926F925F927C
:105390004F9214EBE12EF12C00E010E020E030E021
:1053A000A9010E94C52E0F900F900F900F90CE0173
:1053B000DF91CF911F910F91FF90EF90DF90CF90F1
:1053C000BF90AF907F906F905F904F900C9450295A
:1053D000FC01808190E0FC01EE0FFF1FE80FF91F38
:1053E000EE59F94F808187FB882780F908951F9235
:1053F0000F920FB60F9211242F933F938F939F9389
:10540000AF93BF938091870690918806A0918906FB
:10541000B0918A063091860623E0230F2D3720F4C1
:105420000196A11DB11D05C026E8230F0296A11DFE
:10543000B11D209386068093870690938806A093DB
:105440008906B0938A0680918B0690918C06A09174
:105450008D06B0918E060196A11DB11D80938B061D
:1054600090938C06A0938D06B0938E06BF91AF915A
:105470009F918F913F912F910F900FBE0F901F9092
:1054800018952FB7F89460918706709188068091DF
:10549000890690918A062FBF08953FB7F8948091AE
:1054A0008B0690918C06A0918D06B0918E0626B544
:1054B000A89B05C02F3F19F00196A11DB11D3FBF4C
:1054C0006627782F892F9A2F620F711D811D911DDC
:1054D00042E0660F771F881F991F4A95D1F70895FC
:1054E000CF92DF92EF92FF92CF93DF936B017C011B
:1054F0000E944D2AEB01C114D104E104F10489F0AA
:105500000E94C32F0E944D2A6C1B7D0B683E734086
:1055100090F381E0C81AD108E108F108C851DC4FC6
:10552000EACFDF91CF91FF90EF90DF90CF90089579
:105530008230910538F0880F991F880F991F0597C1
:105540000197F1F70895789484B5826084BD84B59D
:10555000816084BD85B5826085BD85B5816085BD6E
:10556000EEE6F0E0808181608083E1E8F0E0108287
:10557000808182608083808181608083E0E8F0E0C8
:10558000808181608083E1EBF0E0808184608083B2
:10559000E0EBF0E0808181608083EAE7F0E08081E9
:1055A0008460808380818260808380818160808349
:1055B0008081806880831092C10008958E3008F049
:1055C0008E50877020913C0190E4299F9001112416
:1055D000822B80937C0080917A00806480937A0093
:1055E00080917A0086FDFCCF80917800209179002F
:1055F00090E0922B08951F93CF93DF93182FEB0128
:1056000061E00E94832B209711F460E004C0CF3F3B
:10561000D10539F461E0812FDF91CF911F910C9476
:10562000BC2BE12FF0E0EE55FE4FE491E330F9F0B2
:1056300048F4E130B9F0E230A1F584B5806284BD70
:10564000C8BD34C0E730E9F0E83019F1E43049F57D
:1056500080918000806280938000D0938B00C09303
:105660008A0024C084B5806884BDC7BD1FC08091F6
:105670008000806880938000D0938900C093880068
:1056800015C08091B00080688093B000C093B300D3
:105690000DC08091B00080628093B000C093B400D0
:1056A00005C0C038D1050CF0B5CFAFCFDF91CF9199
:1056B0001F910895833081F028F4813099F0823071
:1056C000A1F008958730A9F08830B9F08430D1F482
:1056D000809180008F7D03C0809180008F778093C0
:1056E0008000089584B58F7702C084B58F7D84BD16
:1056F00008958091B0008F7703C08091B0008F7DB6
:105700008093B0000895CF93DF9390E0FC01EA54BA
:10571000FE4F2491FC01E653FE4F8491882349F10A
:1057200090E0880F991FFC01EE50FE4FA591B491B7
:1057300088519E4FFC01C591D4919FB7611108C05B
:10574000F8948C91209582238C93888182230AC0BF
:10575000623051F4F8948C91322F309583238C93DE
:105760008881822B888304C0F8948C91822B8C933F
:105770009FBFDF91CF9108950F931F93CF93DF9336
:105780001F92CDB7DEB7282F30E0F901EE55FE4F5E
:105790008491F901EA54FE4F1491F901E653FE4F4A
:1057A00004910023C9F0882321F069830E945A2BB9
:1057B0006981E02FF0E0EE0FFF1FE851FE4FA59149
:1057C000B4919FB7F8948C91611103C01095812317
:1057D00001C0812B8C939FBF0F90DF91CF911F91C0
:1057E0000F910895CF93DF93282F30E0F901EE5504
:1057F000FE4F8491F901EA54FE4FD491F901E6532A
:10580000FE4FC491CC2391F081110E945A2BEC2FB2
:10581000F0E0EE0FFF1FE252FE4FA591B4912C91E4
:105820002D2381E090E021F480E002C080E090E050
:10583000DF91CF9108950F931F93762F90E0FC0195
:10584000EA54FE4F6491FC01E653FE4FE49171115E
:10585000762FF0E0EE0FFF1FE252FE4F85919491FC
:1058600089019A013F70472F0E942E016115710531
:105870008105910531F06F5F7F4F8F4F9F4F9F7074
:1058800003C060E070E0CB011F910F910895FC010F
:10589000818D228D90E0805C9F4F821B91098F73D8
:1058A00099270895FC01918D828D981731F0828D92
:1058B000E80FF11D858D90E008958FEF9FEF08951B
:1058C000FC01918D828D981761F0828DDF01A80F08
:1058D000B11D5D968C91928D9F5F9F73928F90E02A
:1058E00008958FEF9FEF089580E09EE2892B49F0A5
:1058F00080E090E0892B29F00E94002E81110C9409
:1059000000000895FC01848DDF01A80FB11DA35A8A
:10591000BF4F2C91848D90E001968F739927848FCF
:10592000A689B7892C93A089B1898C9180648C93C6
:10593000938D848D981306C00288F389E02D8081B1
:105940008F7D80830895CF93DF93EC01888D88232A
:10595000C9F0EA89FB89808185FD05C0A889B989DC
:105960008C9186FD0FC00FB607FCF5CF808185FFB7
:10597000F2CFA889B9898C9185FFEDCFCE010E9425
:10598000822CE7CFDF91CF910895CF92DF92FF92E3
:105990000F931F93CF93DF931F92CDB7DEB76C01A8
:1059A00081E0D60158968C9358975B969C915B97B3
:1059B0005C968C915C97981307C05096ED91FC9182
:1059C0005197808185FD2EC0F601038D10E00F5F99
:1059D0001F4F0F731127F02EF601848DF81211C09E
:1059E0000FB607FCF9CFD6015096ED91FC91519777
:1059F000808185FFF1CFC60169830E94822C698175
:105A0000EBCF838DE80FF11DE35AFF4F6083D60182
:105A10005B960C935B975296ED91FC915397808126
:105A200080620CC0D6015696ED91FC915797608329
:105A30005096ED91FC91519780818064808381E044
:105A400090E00F90DF91CF911F910F91FF90DF9029
:105A5000CF900895BF92CF92DF92EF92FF92CF93B3
:105A6000DF93EC016A017B01B22EE889F98982E0BB
:105A70008083411581EE580761057105A1F060E052
:105A800079E08DE390E0A70196010E947B342150DC
:105A900031094109510956954795379527952115A3
:105AA00080E1380798F0E889F989108260E874E8A5
:105AB0008EE190E0A70196010E947B3421503109CC
:105AC000410951095695479537952795EC85FD85F0
:105AD0003083EE85FF852083188EEC89FD89B082A6
